:020000040800F2
:10000000406702206D030008411F0008C31A000862
:10001000691E0008ED0900086137000800000000B3
:10002000000000000000000000000000B502000811
:10003000C90A00080000000009030008A9330008ED
:100040008703000887030008870300088703000868
:100050008703000887030008870300088703000858
:100060008703000887030008870300088703000848
:100070008703000887030008870300088703000838
:100080008703000887030008870300088703000828
:100090008703000887030008870300088703000818
:1000A0008703000887030008870300088703000808
:1000B00087030008870300088703000887030008F8
:1000C00087030008870300088703000887030008E8
:1000D000870300089936000887030008DD3600080A
:1000E00087030008870300088703000887030008C8
:1000F00087030008870300088703000887030008B8
:1001000087030008870300088703000887030008A7
:100110008703000887030008870300088703000897
:100120008703000887030008870300088703000887
:100130008703000887030008870300088703000877
:100140008703000887030008870300088703000867
:100150008703000887030008870300088703000857
:100160008703000887030008870300088703000847
:1001700087030008870300088703000800000000C9
:100180008703000887030008870300088703000827
:100190008703000887030008870300088703000817
:1001A00087030008870300088703000800F002F8AF
:1001B00000F071F80AA090E8000C82448344AAF190
:1001C0000107DA4501D100F066F8AFF2090EBAE88E
:1001D0000F0013F0010F18BFFB1A43F0010318477B
:1001E0000C9300002C93000010F8013B0A4413F01C
:1001F000030408BF10F8014B1D1108BF10F8015B84
:10020000641E05D010F8016B641E01F8016BF9D172
:10021000002D15D010F8014B03F00C030C2BA1EBB3
:1002200004040ABF10F8013BA4EB8314A4EB0324DD
:1002300005F1010314F8016B5B1E01F8016BF9D5A0
:10024000914238BF10F8013BD1D3704700230024FE
:1002500000250026103A28BF78C1FBD8520728BFD6
:1002600030C148BF0B607047642900F0EB807529EE
:1002700000F0E880782900F02181632900F03F83B5
:10028000732900F04483002070471FB508F0F2FB8B
:100290001FBD10B510BD00F077FB1146FFF7F5FF4D
:1002A00003F06EFF00F095FB03B4FFF7F2FF03BC11
:1002B00003F0F7FB2A4B19680868B0E8F04F80F3A9
:1002C0000988BFF36F8F4FF0000080F311887047EB
:1002D0000000000006480068006880F3088862B6E5
:1002E00061B6BFF34F8FBFF36F8F00DF00BF00BF5A
:1002F00008ED00E0DFF80C00016841F470010160D6
:10030000704700BF88ED00E0EFF30980BFF36F8F07
:10031000134B1A681EF0100F08BF20ED108A20E959
:10032000F04F106008B44FF0500080F31188BFF315
:100330004F8FBFF36F8F07F079FA4FF0000080F313
:10034000118808BC19680868B0E8F04F1EF0100F5B
:1003500008BFB0EC108A80F30988BFF36F8F704735
:100360003C070020EFF305807047000009488047F4
:1003700009480047FEE7FEE7FEE7FEE7FEE7FEE787
:10038000FEE7FEE7FEE7FEE704480549054A064B9F
:1003900070470000C1330008AD0100084061022031
:1003A0004067022040630220406302207047000043
:1003B0000FB4044910B503AA029800F0ADFA10BCBE
:1003C0005DF814FB400000200FB41CB5074B06AAD3
:1003D0007B4469460090059800F06FFA002069465A
:1003E00000F07EFA1CBC5DF814FB00000D05000057
:1003F00070B50C460546012A05D02878800600D540
:10040000EA69002302E0012305E05B1C934202D26B
:10041000E05C0028F9D1A869E618C01AA861286A2A
:10042000184428622846AFF3008004E0D5E9012192
:1004300014F8010B9047B442F8D32846AFF300807C
:1004400070BD00002DE9F0410646002410687529B2
:10045000314616A510D0AFF30080002802DA4042E2
:1004600013A507E031688A0701D512A502E0490704
:1004700004D511A5012401E0AFF3008000210A2278
:1004800006F1240709E0B0FBF2FCB0FBF2F302FB3B
:100490001C00303078541846491C0028F3D12346FC
:1004A0002A463046BDE8F04100F0A8B9000000003F
:1004B0002D0000002B0000002000000070B5044655
:1004C0000D4621461068AFF300802188090502D54A
:1004D0000F4A7A4402E00E4A7A440E32002104F1B7
:1004E000240305E000F00F060009965D5E54491CE8
:1004F0000028F7D120780023000704D5702D02D002
:1005000009B1022311322046BDE8704000F076B9EF
:10051000D08700002DE9F0474FF0000A89460446D5
:10052000C0F820A02046E1688847002876D025281A
:1005300006D0D4E901219047206A401C2062F1E7EF
:10054000E168204600258847C4F81CA0064600271D
:10055000C4F818A02A2E09D0304603F09BFA38B30D
:1005600004EB8708303EC8F8186019E059F8041BFE
:10057000204604EB87029161E1688847012F064617
:1005800018D1E069002820DA25F020051DE0D8F810
:10059000180000EB800006EB40003038C8F8180067
:1005A0002046E1688847064603F074FA0028EED139
:1005B000012F0AD02E2E08D12046E16888477F1CE3
:1005C0000646022F45F02005C4DBA069002803DAA7
:1005D000404245F00105A061E80701D025F0100573
:1005E000B6B1A6F14100192802D8203645F40065BD
:1005F0004A463146204625604D46FFF735FE58B144
:10060000012806D0ED1D25F0070000F1080989E753
:1006100004E005F1040985E730468AE7206ABDE871
:10062000F08740EA0103024630B59B0710D14FF036
:10063000013400E008C208C91D1B9D4315EAC41F10
:10064000F8D013F0FF0102F8011B0DD01B0AF8E7E8
:1006500011F8013B002B02F8013B05D011F8013BDA
:10066000002B02F8013BF3D130BD10B5431C02E072
:1006700010F8011B71B18107FAD14FF0013202C8A5
:100680008C1A8C4314EAC211F9D0C01A0A0603D09E
:10069000C01E10BDC01A10BD0A0401D0801E10BDBE
:1006A0000902FCD0401E10BD032A40F2308010F039
:1006B000030C00F0158011F8013BBCF1020F6244FD
:1006C00098BF11F801CB00F8013B38BF11F8013B8E
:1006D000A2F1040298BF00F801CB38BF00F8013B3B
:1006E00011F0030300F02580083AC0F0088051F8AB
:1006F000043B083A51F804CBA0E80810F5E7121DB6
:100700005CBF51F8043B40F8043BAFF30080D207D4
:1007100024BF11F8013B11F801CB48BF11F8012BA0
:1007200024BF00F8013B00F801CB48BF00F8012BC3
:10073000704710B5203AC0F00B80B1E81850203A4D
:10074000A0E81850B1E81850A0E81850BFF4F5AF71
:100750005FEA027C24BFB1E81850A0E8185044BFFB
:1007600018C918C0BDE810405FEA827C24BF51F868
:10077000043B40F8043B08BF7047D20728BF31F85C
:10078000023B48BF11F8012B28BF20F8023B48BFAD
:1007900000F8012B704702F0FF0343EA032242EA0C
:1007A000024200F0CDB84FF0000200B51346944667
:1007B0009646203922BFA0E80C50A0E80C50B1F1B9
:1007C0002001BFF4F7AF090728BFA0E80C5048BFCD
:1007D0000CC05DF804EB890028BF40F8042B08BF6B
:1007E000704748BF20F8022B11F0804F18BF00F867
:1007F000012B704770477047704770472DE9F047ED
:100800000D4699469246044600F124080168880680
:1008100004D5E06921F01001216000E00120A84228
:1008200001DD471B00E00027A1697A1902EB0900EE
:10083000081AA0612078C00602D42046AFF30080D9
:10084000002608E0D4E901211AF806009047206A42
:10085000401C761C20624E45F4DB2078C0060AD589
:100860002046AFF3008006E0D4E901213020904714
:10087000206A401C2062381EA7F10107F4DC07E063
:10088000D4E9012118F805009047206A401C206235
:10089000281EA5F10105F3DC2046AFF30080207887
:1008A000000602D50220BDE8F0870120FBE700002A
:1008B00001694A1C02610878704700B58FB0CDE924
:1008C00001310021059105497944CDE90310114614
:1008D0006846FFF71FFE0FB000BD0000E5FFFFFFF9
:1008E0000A6802F8010B0A60704710B5436913B13A
:1008F000AFF3008001E0FFF77BFD012010BD12780F
:1009000000F124010A7000224A700122EDE711680B
:100910004FF0FF32E9E70000074B70B50D467B440E
:10092000FFF7CBFF0446284600F02AF810B14FF03D
:10093000FF3070BD204670BD473700004FF0000209
:100940000429C0F0128010F0030C3FF42EAFCCF15C
:10095000040CBCF1020F18BF00F8012BA8BF20F84F
:10096000022BA1EB0C01FFF720BF5FEAC17C24BF83
:1009700000F8012B00F8012B48BF00F8012B70474D
:10098000007B00F080007047754600F02BF8AE4603
:1009900005006946534620F00700854618B020B58B
:1009A000FFF7F2FCBDE820404FF000064FF00007D3
:1009B0004FF000084FF0000B21F00701AC46ACE807
:1009C000C009ACE8C009ACE8C009ACE8C0098D4674
:1009D000704710B50446AFF300802046BDE81040D4
:1009E000FFF762BC00487047E0600220FEE70000AD
:1009F0000D4800B500680D4985B0B0FBF1F10C4819
:100A0000491E01220160002101720273417340F20C
:100A10000130CDE900010220CDE902106946054808
:100A200000F054F805B000BD1C000020002D31017D
:100A300064250020002002400D4800B500680D49E3
:100A400085B0B0FBF1F10C48491E01220160002184
:100A5000017202734173E020CDE900010220CDE96B
:100A600002106946054800F031F805B000BD0000ED
:100A70001C000020002D31017425002000200240C0
:100A80000D4800B500680D4985B0B0FBF1F10C4888
:100A9000491E0122016000210172027341731A2074
:100AA000CDE900010220CDE902106946054800F0B9
:100AB0000DF805B000BD00001C000020002D310124
:100AC0008425002000200240704700002DE9F84FE7
:100AD000DFF8A091002209F1040A0AF1040B4FF09B
:100AE0000F080BF1040E01260B6896403340B34209
:100AF00071D14C68022C01D0122C11D1D40800EB1A
:100B000084073D6A5407E40E08FA04FC25EA0C0544
:100B1000D1F810C00CFA04FC4CEA050CC7F820C050
:100B200007685400032591F804C0A5400CF0030C9D
:100B3000AF430CFA04FC4CEA070CC0F800C04F6845
:100B4000012F05D0022F03D0112F01D0122F11D168
:100B50008768D1F80CC0AF430CFA04FC4CEA070CD0
:100B6000C0F808C04768B7430E79C6F30016964030
:100B70003E434660C668AE438D68A5403543C560B8
:100B80004C68E4006FD53C4C256845F480452560F1
:100B9000246822F0030504F480440094374C2E1995
:100BA000D6F808789407250F08FA05F4A743344CC3
:100BB000A04201D100242EE0324CA04201D10124F8
:100BC00029E0314CA04201D1022424E02F4CA04264
:100BD00002D103241FE046E02D4CA04201D10424A1
:100BE00019E02C4CA04201D1052414E02A4CA0426B
:100BF00001D106240FE0294CA04201D107240AE0CC
:100C0000274CA04201D1082405E0264CA04201D186
:100C1000092400E00A24AC403C43C6F80848D9F84F
:100C200000404D464E689C43F60300D51C432C60A3
:100C3000DAF8004055464E689C43B60300D51C4385
:100C40002C60DBF800405D464E689C43F60200D500
:100C50001C432C60DEF8004075464E689C43B6028B
:100C600000D51C432C60521C102AFFF43CAFBDE899
:100C7000F88F0000003C0140443802400030014041
:100C8000000002400004024000080240000C024044
:100C9000001002400014024000180240001C0240F4
:100CA00000200240002402400069084000D00120DA
:100CB00070470AB1816170470904FBE70148006889
:100CC000704700003000002002480168491C0160A4
:100CD00070470000300000200B4810B5016841F457
:100CE00000710160016841F480610160016841F4B4
:100CF00080710160032000F049F80F2000F006F831
:100D000000F015F8002010BD003C024010B504466C
:100D100000F096F94FF47A71B0FBF1F000F071FD3C
:100D200000222146501E00F011F8002010BD08B529
:100D30000020009008BD00F01F02012191404009F1
:100D4000800000F1E020C0F800117047F0B40E4BB5
:100D50001B68C3F30223C3F10704042C00D9042445
:100D60001D1D072D01D2002300E0DB1E012606FA1F
:100D700004F56D1E0D409D409E40761E164045EACE
:100D80000601F0BC01F0DDB80CED00E0064A00F011
:100D9000070110684FF6FF03184040EA012003499D
:100DA00008431060704700000CED00E00000FA05F9
:100DB0002DE9F8431D48016841F080510160006849
:100DC000012700F080500090380490FAA0F0DFF87E
:100DD0006080B0FA80F048F82070FFF76FFF04469B
:100DE0004FF47A75134E04E0FFF768FF001BA8422A
:100DF00013D87068C003F7D54FF4003090FAA0F014
:100E0000B0FA80F048F82070FFF758FF044607E07A
:100E1000FFF754FF001BA84202D90320BDE8F88366
:100E200070688003F4D50020F8E7000040380240E5
:100E300000000E42007000402DE9F05FDFF8F8A1DD
:100E400004460F46DAF80000DFF8F08100F00F02E8
:100E5000C8B27A49814641F2883608F10808BA4298
:100E600061D202468AF80020DAF8000000F00F0094
:100E7000B8427DD12078800707D5D8F80020A36834
:100E800022F0F0021A43C8F800202078C0072DD0C5
:100E9000606801281AD002281BD0032819D00968DD
:100EA0008907002964DAD8F80010474621F00301C9
:100EB0000143C8F80010FFF701FF054660680128EC
:100EC0000FD0022818D003281CD027E00968890316
:100ED000E7E709688901E4E7FFF7F0FE401BB0424D
:100EE00058D83868C0F381000128F5D188E0FFF7B1
:100EF000E5FE401BB0424DD83868C0F3810002289F
:100F0000F5D17DE03868FFF7D9FE401BB042F9D932
:100F100040E0FFF7D3FE401BB0423BD8386810F0EA
:100F20000C0FF6D16CE02078800707D5D8F80020A8
:100F3000A36822F0F0021A43C8F800202078C00706
:100F40004CD06068012828D0022829D0032827D057
:100F500009688907002949DAD8F8002022F003023D
:100F60000243C8F80020FFF7A9FE0546606800E0CC
:100F70003CE001281DD0022829D0032838D0B346F0
:100F80004646306810F00C0F28D0FFF797FE411B43
:100F90005945F6D90320BDE8F09F09688903D9E7D0
:100FA00009688901D6E7FFF789FE411B594502D937
:100FB000F0E7B34646463068C0F381000128F2D11D
:100FC0000CE0FFF77BFE411B594502D9E2E7B3462F
:100FD00046463068C0F381000228F2D18AF80090BA
:100FE000DAF8000000F00F00B84209D00120D2E783
:100FF00044462068FFF762FE401BB042F9D9C9E7BA
:101000002078400707D5D8F80010E26821F4E051B5
:101010001143C8F800102078000708D5D8F8001050
:10102000226921F4604141EAC201C8F800100F2092
:10103000FFF76CFE0020AEE7003C024000380240A3
:1010400010B500F043F808490968F02292FAA2F2BC
:1010500001F0F001B2FA82F2D140044A515CC8407A
:101060000349086010BD000008380240838A000868
:101070001C00002010B5FFF7E3FF074909684FF493
:10108000E05292FAA2F201F4E051B2FA82F2D140B7
:10109000024A515CC84010BD08380240838A0008EB
:1010A00010B5FFF7CDFF074909684FF4604292FA87
:1010B000A2F201F46041B2FA82F2D140024A515CDC
:1010C000C84010BD08380240838A000830B519486E
:1010D000006810F00C01184812D0184C04290ED0EA
:1010E00008290DD1134A121F1168136801F03F013E
:1010F0005D0247F6C07304D5B4FBF1F003E020466F
:1011000030BDB0FBF1F01168194093FAA3F3B3FAC4
:1011100083F3D940484311684FF4403292FAA2F267
:1011200001F44031B2FA82F2D140491C4900B0FBCF
:10113000F1F030BD083802400024F40040787D0111
:101140002DE9F84F04460078DFF8FCA2BF4DC00738
:101150004FF0000648D0DAF800105046C1F3810184
:10116000012908D00068C0F3810002280AD1281D97
:101170000068400206D52868800335D560680028DD
:1011800073D031E0DFF8C49209F1020989F80060F8
:10119000FFF794FD074641F2883804E0FFF78EFD23
:1011A000C11B41457AD828688003F7D4207989F893
:1011B0000000606860B1FFF781FD074604E0FFF7BB
:1011C0007DFDC11B4145EDD828688003F7D50BE0B4
:1011D000FFF774FD074604E0FFF770FDC11B4145B2
:1011E000E0D828688003F7D42078DFF8649280077D
:1011F00044D5DAF80010504611F00C0F4FF0F80803
:1012000009D00068C0F3810002280BD18E48001F6E
:101210000068400206D42868800714D5E0680128D9
:1012200023D110E0E068D0B10120C9F80000FFF739
:1012300045FD074604E0FFF741FDC01B6428B1D817
:1012400028688007F7D5286898FAA8F22169B2FAC9
:1012500082F220F0F8009140084328600EE0C9F8BF
:101260000060FFF72BFD074605E0EAE0FFF726FDEB
:10127000C01B642812D828688007F7D4207800079C
:1012800025D5DFF8C4817348616908F16C0881B124
:1012900001210160FFF712FD074605E07EE0FFF740
:1012A0000DFDC01B642879D8D8F800008007F6D55A
:1012B0000DE00660FFF702FD074604E0FFF7FEFCC5
:1012C000C01B64286AD8D8F800008007F6D42078BC
:1012D000400753D55C483830016841F080510160C7
:1012E0000068DFF8748100F080500090D8F800109A
:1012F00041F48071C8F80010FFF7E0FC074604E0F5
:10130000FFF7DCFCC01B642848D8D8F80000C005F3
:10131000F6D5DFF834B10BF1680B8BF80060FFF7FE
:10132000CDFC074641F2883804E0FFF7C7FCC11B3B
:1013300041457ED8DBF800008007F6D4207A8BF890
:101340000000A06868B1FFF7B9FC074604E0FFF7AA
:10135000B5FCC11B41456CD8DBF800008007F6D511
:101360000CE0FFF7ABFC074604E0FFF7A7FCC11B4E
:1013700041455ED8DBF800008007F6D4A069E8B3E9
:10138000DAF80010C1F3810102295AD0022806D0F0
:10139000C9F86060FFF792FC04464DE049E04F4613
:1013A000C9F86060FFF78AFC064604E0FFF786FC98
:1013B000801B64283DD828688001F7D4D4E9070150
:1013C000084347F6C07191FAA1F1626AB1FA81F15E
:1013D0008A40A16A4FF0FF3303EB51014FF44033D1
:1013E00093FAA3F3B3FA83F399400A4310434FF0FF
:1013F000706292FAA2F2B2FA82F200E01FE0E16AB1
:10140000914008431049091F086001203866FFF722
:1014100055FC044604E0FFF751FC001B642808D883
:1014200028688001F7D50AE0FFF748FC001B642814
:1014300002D90320BDE8F88F28688001F4D4002089
:10144000F8E70120F6E700000838024000380240C3
:1014500000004742800E47420070004070B5040013
:1014600004D094F85100002510B106E0012070BDB1
:1014700084F85050204600F033F8022084F85100E0
:101480002068016821F040010160D4E901010843AE
:10149000D4E903121143084361690843218B01F425
:1014A00000710843E1690843216A0843A16A0843BF
:1014B00021680860A069042101EA1040616A0843BC
:1014C000216848602168E06A08612068C16921F4E8
:1014D0000061C1616565012084F85100002070BD84
:1014E00000B50068134987B0884220D112480168CE
:1014F00041F020010160006800F0200005900E48D6
:101500001430016841F4801101600068012100F489
:10151000801005904FF4607000900220CDE9010129
:1015200003900520049069460448FFF7CFFA07B0FE
:1015300000BD00000050014030380240001402405D
:101540002DE9F843044690F85100DDF82080012889
:1015500001D022287ED169B162B15BB194F850000C
:10156000012877D0012784F8507094F851000128A1
:1015700003D005E00120BDE8F883322084F8510053
:1015800000266665A263A387E3872163A386E386BB
:10159000A664E664A06A4FF40055A84209D1206809
:1015A000016821F4005101602068016841F4005194
:1015B000016020680168490603D4016841F04001D8
:1015C0000160E0684FF48271B0F5006F606807D089
:1015D000002867D088426ED1E08E012862D06AE090
:1015E00020B188420CD1E08E012809D1206B2168FE
:1015F0000088C860206B801C2063E08E401EE0865F
:10160000E08E80B9A06AA84244D12068016841F404
:10161000805101603EE02068C068A16B0880A06B2B
:10162000801CA0639EE0434600220221204601F078
:101630001BF8002874D1206B21680088C860206BDB
:10164000801C2063E08E401E0004000CE08609D15F
:10165000A06A00E0C7E0A84204D12068016841F414
:1016600080510160434600220121204600F0FCFF2A
:1016700000286FD12068C068A16B0880A06B801C17
:10168000A063E08F401EE087E08E0028CBD1606829
:1016900000286AD1434600220121204600F0E4FFE1
:1016A000F0BBB8E7206B411C216321680078C8605B
:1016B000E08E401EE086E08E98B9A06AA84204D170
:1016C0002068016841F480510160434600220121F5
:1016D000204600F0C9FF18BB2068C068A16B0870E5
:1016E00040E0434600220221204600F0BDFFB8B989
:1016F000206B411C216321680078C860E08E401E89
:101700000004000CE08607D1A06AA84204D120683A
:10171000016841F48051016000224346012100E04C
:1017200018E0204600F0A0FFA0B92068C168A06BB7
:10173000421CA2630170E08F401EE087E08E00280B
:10174000CFD1606888B9434600220121204600F0CD
:101750008BFF08B103200EE72068C168A06B421C14
:10176000A2630170E08F401EE087A06AA84210D1FA
:10177000434600220121204600F076FF18B1606D3B
:1017800040F002000FE02068C068ADF80000BDF82E
:101790000000434601228021204600F065FF20B171
:1017A000606D40F020006065D4E784F851702068D7
:1017B0008168A26AC1F30011AA4210D179B1616DAA
:1017C00041F002016165016821F400510160206867
:1017D000016841F40051016084F85060CAE684F861
:1017E00050600020C7E60220C5E64FF0E021042843
:1017F000086903D020F004000861704740F004003D
:10180000FAE710B5401EB0F1807F01D3012010BD72
:101810004FF0E02460610F21601700F092FB002080
:10182000A06107202061002010BD704790F83900AA
:10183000704738B5016804460868CA68C0F30000FC
:1018400002F4807238B132B1086848680090E06BE9
:1018500040F00100E06308684A69C0F3400002F00C
:10186000010238B132B1086848680090E06B40F07E
:101870000400E06308684A69C0F3800002F00102D6
:1018800038B132B1086848680090E06B40F002005F
:10189000E06308684A69C0F3C00002F0010238B191
:1018A00032B1086848680090E06B40F00800E063DF
:1018B0000868C968C0F3401001F0200118B111B1E7
:1018C000204601F0A7FD20680168C068C1F3C0117F
:1018D00000F0800019B110B1204601F0A9FE216886
:1018E0000868CA68C0F3801002F04002012568B1A0
:1018F00062B1CA68204622F04002CA6094F83910EA
:1019000032290CD080F8395000F0DAF8E06B00286A
:1019100004D084F839502046FFF787FF38BD2221D4
:1019200080F83910F0E770B5040004D094F839005D
:10193000002510B106E0012070BD84F83850204623
:1019400000F020F8022084F839002068C16821F4F2
:101950000051C160204601F0B1FD2068016921F409
:10196000904101612068416921F02A0141612068AC
:10197000C16841F40051C160E563012084F8390079
:10198000002070BD10B500681A4986B088422FD17A
:101990001948016841F001010160006800F0010090
:1019A000059015481430016841F01001016000688D
:1019B000012100F0100005904FF40070009002200B
:1019C000CDE90101039007200C4C049069462046A4
:1019D000FFF77CF82115009169462046FFF776F85D
:1019E0002520FFF7A8F9032211462520FFF7AEF9BD
:1019F00006B010BD00100140303802400000024027
:101A000090F83930012B01D0122B2BD131B32AB3EE
:101A100090F83830012B25D0012380F838308162CE
:101A20008285C2850022C26390F83910122917D02E
:101A3000222180F839100168CB6843F48073CB60B1
:101A400001684B6943F001034B6180F8382000685E
:101A5000C16841F02001C16000207047012070473B
:101A60003221E6E70220704730B50068114988420C
:101A70000CD1114A5088010408D411464404097855
:101A80004FF0000306D50A2901D0538030BD40F441
:101A900000400DE00D2909D0C0F30D04074D401C96
:101AA00080B229555080C728EFD830BD40F480401F
:101AB000508030BD001001403C000020B0070020E5
:101AC0007047FEE71CB5002404F024F9002828D054
:101AD0004EF29E7004F0FCFA002822D004F01AF9AD
:101AE00000281ED04BF26D7004F0F2FA002818D0D6
:101AF00004F010F9002814D000208DF8040001A98A
:101B0000082000F001FE6946002004F063F8012877
:101B100008D023460E4A40F217310E48FEF748FC23
:101B200000201CBD9DF800009DF80310084A40EA03
:101B300001639DF802009DF80110000440EA0120B5
:101B4000034340F21B3104A0FEF732FC01201CBD10
:101B5000D28B0008748F00085B2E2E5C53574450C4
:101B60005C5357445F686F73742E635D5B4C696EA2
:101B700065A3BA25645D5B25735DA3BA5265616494
:101B8000204944434F4445203078252E34580D0ACF
:101B90000D0A00001CB5002404F0CBF8002828D062
:101BA0004EF29E7004F0A0FA002822D004F0C1F892
:101BB00000281ED04BF26D7004F096FA002818D061
:101BC00004F0B7F8002814D000208DF8040001A913
:101BD000082000F0C1FD6946002004F01CF801282F
:101BE00008D023460E4A40F296610E48FEF7E0FB0D
:101BF00000201CBD9DF800009DF80310084A40EA33
:101C000001639DF802009DF80110000440EA0120E4
:101C1000034340F29A610448FEF7CAFB01201CBD51
:101C2000218C0008748F0008581B00081CB5002484
:101C300004F08EF8002828D04EF29E7004F060FA6E
:101C4000002822D004F084F800281ED04BF26D70DA
:101C500004F056FA002818D004F07AF8002814D0BE
:101C600000208DF8040001A9082000F09BFD6946C2
:101C7000002003F0F1FF012808D023460E4A40F669
:101C800013210E48FEF794FB00201CBD9DF80000B8
:101C90009DF80310084A40EA01639DF802009DF890
:101CA0000110000440EA0120034340F617210448D4
:101CB000FEF77EFB01201CBD708C0008748F0008AD
:101CC000581B000870B51B4886B00025016841F01C
:101CD00001010160016801F001010591016841F015
:101CE00004010160016801F004010591016841F0FF
:101CF000800101600068032400F08000059002204C
:101D00000126CDE90204CDE9006569460A48FEF7DF
:101D1000DDFE700303948DE8610069460748FEF715
:101D2000D5FE0C20009069460548FEF7CFFE06B0B0
:101D300070BD000030380240000002400008024040
:101D4000001C02402DE9F0470126304C7703DFF8F4
:101D5000C080DFF8C090304D01281DD02078A0B1A0
:101D600008212846FEF7A0FFC0B104212846FEF74F
:101D70009BFF98B139464046FEF796FF70B10121AE
:101D80004846FEF791FF012808D008212846FEF7B3
:101D90008BFF012826D037E02670E1E70A2002F009
:101DA000E9F80020207008212846FEF77DFF80B169
:101DB00004212846FEF778FF70B139464046FEF709
:101DC00073FF58B101214846FEF76EFF012807D086
:101DD0001AE00120BDE8F0870220FBE70320F9E7C5
:101DE0000420F7E704212846FEF75EFF01280BD107
:101DF00039464046FEF758FF012805D101214846E3
:101E0000FEF752FF00B926700020E3E744000020EF
:101E10000008024000000240001C0240104810B5BB
:101E2000016886B041F0020101600068012100F004
:101E3000020005900320CDE90210CDE90001094C14
:101E400069462046FEF742FE012211462046FEF773
:101E500030FF012202212046FEF72BFF06B010BD05
:101E60003038024000040240FEE77CB504460878A2
:101E70002070487860704888A08088886080C88812
:101E8000E0800D46002004E029182218097A11721A
:101E9000401C61888142F7DC684602F036F8062271
:101EA0002946684602F034F8628805F10801684660
:101EB00002F02EF801A9684602F024F8E088BDF887
:101EC0000410884201D100207CBD01207CBD0FB4EC
:101ED0007CB506AB889C9DF8180020709DF8190011
:101EE00060700020A070E070BDF81A202271110A05
:101EF0006171A071E071082104E01D18401C2D7A69
:101F00006554491C8242F8DC684601F0FEFF062257
:101F10002146684601F0FCFFBDF81A2004F10801D3
:101F2000684601F0F5FF01A9684601F0EBFFBDF836
:101F30000400A071000AE0717CBC00205DF814FB75
:101F400070470907090E002806DA00F00F0000F1BB
:101F5000E02080F8141D704700F1E02080F80014A4
:101F60007047000002480069C0F30020704700007D
:101F70000020024002480069C0F380107047000052
:101F80000020024002480069C0F3C0007047000012
:101F900000200240C107044801D0811501E04FF044
:101FA000807181617047000000200240C107044831
:101FB00001D0402101E04FF48001816170470000B1
:101FC00000200240C107044801D0082101E04FF47D
:101FD00000218161704700000020024000B585B0FB
:101FE0004FF4807000900120019002900220039035
:101FF00069460248FEF76AFD05B000BD00200240B8
:1020000000B585B040200090012001900290022090
:10201000039069460248FEF759FD05B000BD000077
:102020000020024000B585B00820009001200190FA
:1020300002900220039069460248FEF747FD05B072
:1020400000BD000000200240C107044801D0411536
:1020500001E04FF0007181617047000000200240F4
:10206000C107044801D0802101E04FF400018161E3
:102070007047000000200240C107044801D0102131
:1020800001E04FF4801181617047000000200240A0
:10209000F0B5064685B00A464FF48000012908D005
:1020A000022A09D0032A0CD0042A0FD0052912D005
:1020B00015E00146002512E04FF410014FF4A00591
:1020C0000DE04FF460014FF4200508E04FF09871E7
:1020D0004FF4700503E04FF0C0714FF0A075A6F10A
:1020E0008052454FB2F5002F03D20020B86143481B
:1020F00006E0A6F18072824203D20120B861404816
:10210000F8611422684601F097FB0498401C13D034
:102110000498A8B10146DDE90220401E00FB02112F
:102120000098814216D0374A40F2771136A0FEF768
:102130003FF9032005B0F0BD324A4FF4B471F5E722
:10214000DDE9021048430099884203D02D4A40F24D
:102150006F11EBE70098386010F0070101D00844D8
:102160003860F869C16A4A1CC261026B114401629D
:10217000826B816A114401F580514162304604F05E
:1021800023FC08B10720D5E7F869846B38688442DE
:1021900018D382B229462C4801F04EFB2A4930461A
:1021A0003A6822E0008F291982B2274801F044FBE7
:1021B000F8692549826B301904F054FDC0B9F869FB
:1021C000806B044438688442F869EBD9816B3868C5
:1021D0000A18A2420ED0641A071BBAB229191A486B
:1021E00001F02AFB30193A46174904F03BFD08B1CB
:1021F0000C209FE700209DE7F4060020B806002091
:102200001C040020048B00085B2E2E5C53574450A6
:102210005C5357445F666C6173682E635D5B4C6909
:102220006E65A3BA25645D5B25735DA3BA457272C2
:102230006F723A206E6F2062696E2066696C65214C
:1022400021210D0A0D0A000094250020F0B5064654
:1022500085B00A464FF48000012908D0022A09D02F
:10226000032A0CD0042A0FD0052912D015E001460C
:10227000002512E04FF410014FF4A0050DE04FF4DB
:1022800060014FF4200508E04FF098714FF470059D
:1022900003E04FF0C0714FF0A075A6F18052454F9A
:1022A000B2F5002F03D200203862434806E0A6F1C1
:1022B0008072824203D20120386240487862142240
:1022C000684601F0B9FA0498401C13D00498A8B1EC
:1022D0000146DDE90220401E00FB02110098814208
:1022E00016D0374A4FF4307136A0FEF761F803205C
:1022F00005B0F0BD324A40F2B121F5E7DDE9021048
:1023000048430099884203D02D4A4FF42E71EBE7E1
:102310000098B86010F0070101D00844B860786AEE
:10232000C16A4A1CC261026B11440162826B816AFC
:10233000114401F580514162304604F0B3FB08B10D
:102340000720D5E7786A846BB868844218D382B2D4
:1023500029462C4801F070FA2A493046BA6822E032
:10236000008F291982B2274801F066FA786A254958
:10237000826B301904F0BAFCC0B9786A806B0444EF
:10238000B8688442786AEBD9816BB8680A18A242AF
:102390000ED0641A071BBAB229191A4801F04CFA78
:1023A00030193A46174904F0A1FC08B10C209FE708
:1023B00000209DE7F4060020B80600201C04002041
:1023C000568B00085B2E2E5C535744505C53574489
:1023D0005F666C6173682E635D5B4C696E65A3BA62
:1023E00025645D5B25735DA3BA4572726F723A20F6
:1023F0006E6F2062696E2066696C652121210D0A6D
:102400000D0A000094A50020F0B5064685B00A46E6
:102410004FF48000012908D0022A09D0032A0CD0E9
:10242000042A0FD0052912D015E00146002512E03C
:102430004FF410014FF4A0050DE04FF460014FF48C
:10244000200508E04FF098714FF4700503E04FF05D
:10245000C0714FF0A075A6F18052454FB2F5002F24
:1024600003D20020B862434806E0A6F1807282429F
:1024700003D20120B8624048F8621422684601F095
:10248000DBF90498401C13D00498A8B10146DDE99B
:102490000220401E00FB02110098814216D0374AEC
:1024A00040F2094136A0FDF783FF032005B0F0BDDF
:1024B000324A40F2FA31F5E7DDE90210484300996B
:1024C000884203D02D4A40F20141EBE70098386181
:1024D00010F0070101D008443861F86AC16A4A1C4B
:1024E000C261026B11440162826B816A114401F581
:1024F00080514162304604F045FB08B10720D5E722
:10250000F86A846B3869844218D382B229462C4811
:1025100001F092F92A4930463A6922E0008F2919E0
:1025200082B2274801F088F9F86A2549826B301990
:1025300004F020FCC0B9F86A806B04443869844216
:10254000F86AEBD9816B38690A18A2420ED0641A76
:10255000071BBAB229191A4801F06EF930193A4628
:10256000174904F007FC08B10C209FE700209DE705
:10257000F4060020B80600201C040020A88B0008E8
:102580005B2E2E5C535744505C5357445F666C611E
:1025900073682E635D5B4C696E65A3BA25645D5BF1
:1025A00025735DA3BA4572726F723A206E6F206216
:1025B000696E2066696C652121210D0A0D0A0000F3
:1025C0009425012010B5124C1048022120604FF4D0
:1025D000827060600020A060C4E903010121616194
:1025E0004902C4E9061020626062A0620720E0622E
:1025F0002046FEF733FF2068016841F0400101608A
:10260000BDE81040FF2000F005B800000050014078
:10261000480A002001B582B04FF47A70009001237F
:1026200001AA02A90248FEF78BFF9DF804000EBD27
:10263000480A00200B4A10B511680B6823F04003CC
:102640000B6011680B684FF6C77423400B6011686C
:102650000B6803430B601068016841F040010160A2
:1026600010BD0000480A00202DE9F0471D469046A5
:102670000F460446FEF722FB06465FEA08004FF0CD
:1026800000084FF4005A4FF0010926D034E0681CCE
:1026900023D025B1FEF712FB801BA8421DD920686C
:1026A000416821F0E00141602068016821F04001AB
:1026B0000160A06A504509D12068016821F40051E9
:1026C00001602068016841F40051016084F8519074
:1026D00084F850800320BDE8F0872068806837EADE
:1026E0000000D4D10DE0681C06D0002DD7D0FEF735
:1026F000E5FA801BA842D2D82068806837EA00003B
:10270000F1D00020E7E7000070B5124C00231A4614
:102710000F4E256818E012B911F8013B0822DC07BA
:1027200002D04FF4807401E04FF08074B4614FF434
:102730008034B4612C46641EFDD10124B4612C4662
:10274000641EFDD15B08521E401EE4D270BD000025
:10275000002002406425002070B5114C00231A4669
:102760000E4E256817E012B911F8013B0822DC076C
:1027700001D0402401E04FF48004B4614FF4001410
:10278000B4612C46641EFDD12024B4612C46641E25
:10279000FDD15B08521E401EE5D270BD00200240F4
:1027A0007425002070B5114C00231A460E4E256882
:1027B00017E012B911F8013B0822DC0701D0082408
:1027C00001E04FF40024B4614FF40034B4612C46AE
:1027D000641EFDD10224B4612C46641EFDD15B0849
:1027E000521E401EE5D270BD00200240842500200C
:1027F00000F004B800F0DEB900F0B6BB2DE9F34FED
:10280000044685B000250120FFF7C4FBE64E4FF4D7
:102810008037B761E54A10680146401EFDD14FF090
:102820000109C6F818909046491EFDD12046FFF7D1
:10283000B1FBB761D8F8000042460146401EFDD109
:10284000B046C6F818909346491EFDD12E1965086A
:102850002846FFF79FFB3846BA464746C8F8180097
:10286000DBF800005A460146491EFDD1C846C7F8AC
:102870001890401EFDD12E44A5082846FFF78AFB7C
:10288000D146C7F818A0DBF800005A460146401EA2
:10289000FDD1C7F81880DA46491EFDD12E44E5085F
:1028A0002846FFF777FBC7F81890DAF80010524671
:1028B0000846401EFDD1C7F81880491EFDD1701989
:1028C000FFF768FB4E46C7F81890DAF8000052464A
:1028D0000146491EFDD14546C7F81880D046401E26
:1028E000FDD1FFF757FBBE61D8F800004246014614
:1028F000491EFDD1BD61401EFDD10120FFF74AFBFD
:10290000BE61D8F8000042460146491EFDD1BD61B6
:10291000401EFDD14FF48070009000200190029085
:102920000220039069463846FEF7D0F898F80C105C
:1029300059B1D8F80020BE611046401EFDD1BD61DE
:102940001046401EFDD1491EF5D1B146BE61D8F8F2
:102950000000401EFDD1FFF705FB0646BD61D8F81B
:1029600000000146491EFDD1C7F81890401EFDD158
:10297000FFF7F8FA0246BD61D8F800000146491E8B
:10298000FDD146EA4206CB46C7F81890401EFDD15D
:10299000FFF7E8FA0246A946BA46BD6183480068D7
:1029A0000146491EFDD146EA8205012D17D0022DB0
:1029B0007ED0042D7CD07D490A7B21320CD05C4630
:1029C0004E4653469C610146491EFDD19E6101461B
:1029D000491EFDD1521EF5D1FFF700FBDDE0A10736
:1029E00046D54FF0000847462026CAF818B06F4871
:1029F0000068401EFDD1FFF7B5FA01465246CAF8FD
:102A000018906A480068401EFDD14FEA58000F44F4
:102A100040EAC178761EE8D11646C2F818B063487D
:102A20000068401EFDD1FFF79DFA02464B46C6F8EE
:102A300018905E490868401EFDD15740F80700D045
:102A40000825069810B1069AC2F800800A7B62B188
:102A5000D1F800C05F46B7616046401EFDD1B3614A
:102A60006146491EFDD1521EF5D1FFF7B7FA3BE092
:102A70004E490A7B62B15E464F4653469E6101460F
:102A8000491EFDD19F610146491EFDD1521EF5D15F
:102A9000FFF7A4FA06984FF0000820270668304692
:102AA000FFF778FA5246CAF818B04048006800E0CC
:102AB00035E00146401EFDD1C2F81890491EFDD1F7
:102AC00008EB0600760880467F1EE8D1FFF762FA21
:102AD0005246CAF818B0354800680146491EFDD173
:102AE000C2F81890401EFDD1200603D5304840683A
:102AF0002E4948602D4E347AECB30020FFF74AFA95
:102B000036685A464B4651468A613046401EFDD1D2
:102B10008B613046401EFDD1641EF5D13DE0234E51
:102B2000717B81B1A1070ED521225F46CC46534669
:102B30009F610146491EFDD1C3F818C00146491ED8
:102B4000FDD1521EF4D1327B6AB15F46CC4653466A
:102B50009F610146491EFDD1C3F818C00146491EB8
:102B6000FDD1521EF4D1FFF739FA707B18B1A007DE
:102B700013D4002000E010E0FFF70CFA36682121A2
:102B80005B464C46524693613046401EFDD19461EF
:102B90003046401EFDD1491EF5D10120FFF7FAF95C
:102BA00007B0E8B2BDE8F08F0020024064250020A5
:102BB000001000E02DE9F34F044685B00025012008
:102BC000FFF7F4F9E54F4FF40019C7F81890E44AFD
:102BD00010680146491EFDD12026BE619046401E68
:102BE000FDD12046FFF7E2F9C7F81890D8F8001099
:102BF00042460846401EFDD1B046BE619246491E7F
:102C0000FDD12E1965082846FFF7D0F9C7F81890AE
:102C1000DAF8000052460146491EFDD1C246C7F807
:102C200018809346401EFDD12E44A5082846FFF784
:102C3000BDF9C846C7F81890DBF800005A460146AF
:102C4000401EFDD1C7F818A0491EFDD12E44E5084D
:102C50002846FFF7ABF9C146C7F81880DBF800003B
:102C60005A460146491EFDD1D046C7F818A0DA469B
:102C7000401EFDD17019FFF799F94E46C7F818901C
:102C8000DAF8000052460146491EFDD14546C7F814
:102C90001880D046401EFDD1FFF788F9BE61D8F8F4
:102CA000000042460146491EFDD1BD61401EFDD1D6
:102CB0000120FFF77BF9BE61D8F8001042460846B4
:102CC000401EFDD1BD61491EFDD140200090002075
:102CD000019002900220039069463846FDF7F6FE07
:102CE00098F80C1059B1D8F80020BE611046401E6B
:102CF000FDD1BD611046401EFDD1491EF5D1B14642
:102D0000BE61D8F80000401EFDD1FFF733F906463A
:102D1000BD61D8F800000146491EFDD1C7F81890E2
:102D2000401EFDD1FFF726F90246BD61D8F800002C
:102D30000146491EFDD146EA4206CB46C7F8189027
:102D4000401EFDD1FFF716F90246A946BA46BD61FD
:102D5000834800680146491EFDD146EA8205012DDF
:102D600017D0022D7ED0042D7CD07D490A7B2132E4
:102D70000CD05C4653464E469C610146491EFDD12F
:102D80009E610146491EFDD1521EF5D1FFF738F96B
:102D9000DCE0A10745D54FF0000847462026CAF8D9
:102DA00018B06F480068401EFDD1FFF7E3F80146F8
:102DB0005246CAF818906A480068401EFDD14FEA92
:102DC00058000F4440EAC178761EE8D1C2F818B026
:102DD000634E3068401EFDD1FFF7CCF80146CC466B
:102DE0005346CAF818903068401EFDD14F40F8078E
:102DF00000D00825069810B10699C1F80080327BF2
:102E000062B136685F469F613046401EFDD1C3F80F
:102E100018C03146491EFDD1521EF4D1FFF7F0F81B
:102E20003BE04F490A7B62B15E4653464F469E6186
:102E30000146491EFDD19F610146491EFDD1521E2A
:102E4000F5D1FFF7DDF806984FF000082027066857
:102E50003046FFF7ABF85246CAF818B04048006851
:102E6000014600E034E0401EFBD1C2F81890491E34
:102E7000FDD108EB0600760880467F1EE8D1FFF7FB
:102E800095F85246CAF818B0354800680146401E09
:102E9000FDD1C2F81890491EFDD1200603D5314856
:102EA00040682F4948602E4E347AECB30020FFF77B
:102EB0007DF836685A4651464B468A613046401E78
:102EC000FDD18B613046401EFDD1641EF5D13DE041
:102ED000234E717B81B1A1070ED521225F46534657
:102EE000CC469F610146491EFDD1C3F818C001467A
:102EF000491EFDD1521EF4D1327B6AB15F46534662
:102F0000CC469F610146491EFDD1C3F818C0014659
:102F1000491EFDD1521EF4D1FFF772F8707B18B133
:102F2000A00713D4002000E010E0FFF73FF8366858
:102F300021215B4652464C4693613046401EFDD1EE
:102F400094613046401EFDD1491EF5D10120FFF7A6
:102F50002DF807B0E8B2BDE8F08F00000020024075
:102F600074250020001000E02DE9F34F044685B0E1
:102F700000250120FFF726F8E74E4FF40037B76130
:102F8000E64A10680146401EFDD14FF00209C6F81E
:102F900018909046491EFDD12046FFF713F8B761FF
:102FA000D8F8000042460146401EFDD1B046C6F8A2
:102FB00018909346491EFDD12E1965082846FFF743
:102FC00001F83846BA464746C8F81800DBF8000052
:102FD0005A460146491EFDD1C846C7F81890401E02
:102FE000FDD12E44A5082846FEF7ECFFD146C7F8D0
:102FF00018A0DBF800005A460146491EFDD1C7F86B
:103000001880DA46401EFDD12E44E5082846FEF71A
:10301000D9FFC7F81890DAF8000052460146491E59
:10302000FDD1C7F81880401EFDD17019FEF7CAFF08
:103030004E46C7F81890DAF8000052460146491E7D
:10304000FDD14546C7F81880D046401EFDD1FEF799
:10305000B9FFBE61D8F8000042460146491EFDD1C5
:10306000BD61401EFDD10120FEF7ACFFBE61D8F866
:10307000001042460846401EFDD1BD61491EFDD1EB
:10308000082000900020CDE90205019069463846ED
:10309000FDF71CFD98F80C1059B1D8F80020BE615E
:1030A0001046401EFDD1BD611046401EFDD1491E97
:1030B000F5D1B146BE61D8F80000401EFDD1FEF743
:1030C00061FF0646AA46BD61D8F800000146491EC8
:1030D000FDD14D46C7F81890401EFDD1FEF752FFB6
:1030E0000246D146C7F818A0D8F800000146491E8C
:1030F000FDD146EA4206AB46BD61401EFDD1FEF75A
:1031000041FF0246BA46C7F8189084480068014655
:10311000491EFDD146EA8205012D17D0022D7DD032
:10312000042D7BD07D490A7B21320CD05C4653466E
:103130004E469C610146491EFDD19E610146491ED5
:10314000FDD1521EF5D1FEF76DFFDDE0A10746D59A
:103150004FF0000847462026CAF818B06F480068AC
:10316000401EFDD1FEF70EFF01465246CAF81890E8
:103170006A480068401EFDD14FEA58000F4440EAFB
:10318000C178761EE8D11646C2F818B063480068C8
:10319000401EFDD1FEF7F6FE02464B46C6F81890DB
:1031A0005E490868401EFDD15740F80700D0082549
:1031B000069810B1069AC2F800800A7B62B1D1F875
:1031C00000C05F46B7616046401EFDD1B3616146F5
:1031D000491EFDD1521EF5D1FEF724FF3BE04F49B9
:1031E0000A7B62B15E4653464F469E610146491EC8
:1031F000FDD19F610146491EFDD1521EF5D1FEF75A
:1032000011FF06984FF00008202706683046FEF7A9
:10321000D9FE5246CAF818B0404800E036E00068CF
:103220000146401EFDD1C2F81890491EFDD108EBA1
:103230000600760880467F1EE8D1FEF7C3FE5246A0
:10324000CAF818B0354800680146401EFDD1C2F8E2
:103250001890491EFDD1200603D5314840682F49FA
:1032600048602E4E347AECB30020FEF7ABFE366891
:103270005A4651464B468A613046401EFDD18B610D
:103280003046401EFDD1641EF5D13DE0234E717BDA
:1032900081B1A1070ED521225F465346CC469F61DE
:1032A0000146491EFDD1C3F818C00146491EFDD193
:1032B000521EF4D1327B6AB15F465346CC469F61C1
:1032C0000146491EFDD1C3F818C00146491EFDD173
:1032D000521EF4D1FEF7A6FE707B18B1A00713D4DE
:1032E000002000E010E0FEF76DFE366821215B460D
:1032F00052464C4693613046401EFDD194613046A3
:10330000401EFDD1491EF5D10120FEF75BFE07B03E
:10331000E8B2BDE8F08F00000020024084250020C4
:10332000001000E070B51E4C92B00025266846F0F3
:1033300080562660246804F080541194194C266845
:1033400046F44046266024680DF1240C04F4404401
:103350001194012400940194022406948CE80D0039
:103360006605CDE907616846FDF7EAFE00B1FEE7B4
:10337000FDF71EFD00B1FEE70CA90F2081E831002A
:103380004FF4A0500F904FF48050109005210CA8DE
:10339000FDF752FD002800D0FEE712B070BD00001E
:1033A000403802400070004010B505F0A7F8012831
:1033B00001D004F097FDBDE81040FDF785BC00008A
:1033C0001048016841F4700101600F48016841F044
:1033D000010101600C4A00210832116002680B4BA8
:1033E0001A400260031D0A4A1A60026822F4802211
:1033F000026005480C3001600249580680390860B7
:103400007047000088ED00E000380240FFFFF6FE44
:103410001030002410B590F83910222903D0322939
:1034200001D0022010BD8168B1F5805F11D0016923
:10343000002901681FD0496801F07F03816A4A1C96
:1034400082620B70C18D491E0904090CC18518D018
:103450002FE00269816A002A0268526805D0D2B260
:103460000A80816A491C8162ECE7C2F308020A8083
:10347000816A891CF7E74A68816A4B1C83620A707B
:10348000E0E70168CA6822F02002CA6090F83910AB
:10349000322910D00168CA6822F48072CA600168BB
:1034A0004A6922F001024A61012180F83910FEF7D1
:1034B000DBFA002010BD1221F7E700002DE9F041F2
:1034C000044600680169E26821F440510A43026140
:1034D0002068C16849F20C6291432369A268E569DA
:1034E0001A4363692B431A430A43C2602068416947
:1034F00021F44072A16911434161E06964263225DB
:10350000B0F5004F484A494920681DD0884201D093
:10351000904269D1FDF7C4FD00EBC00101EB001042
:103520006168B0468900B0FBF1F1B1FBF8F6FDF738
:10353000B7FD00EBC00101EB001061688900B0FB32
:10354000F1F7FDF7ADFD68E0884201D0904219D156
:10355000FDF7A6FD00EBC00101EB00106168B0466D
:103560004900B0FBF1F1B1FBF8F6FDF799FD00EB76
:10357000C00101EB001061684900B0FBF1F7FDF7F5
:103580008FFD18E0FDF776FD00EBC00101EB0010A8
:103590006168B0464900B0FBF1F1B1FBF8F6FDF708
:1035A00069FD00EBC00101EB001061684900B0FB50
:1035B000F1F7FDF75FFD00EBC00101EB0010616862
:1035C0004900B0FBF1F1B1FBF8F06FF0180148438E
:1035D00007EB800005EB0011B1FBF8F0216866F302
:1035E0001F108860BDE8F081FDF744FD00EBC001CD
:1035F00001EB00106168B0468900B0FBF1F1B1FB4E
:10360000F8F6FDF737FD00EBC00101EB0010616833
:103610008900B0FBF1F7FDF72DFD00EBC00101EBD8
:10362000001061688900CCE70014014000100140DF
:1036300090F83910122903D0322901D002207047A6
:103640008168B1F5805F016A0BD04A1C0262026892
:1036500009785160C18C491E0904090CC1840ED03F
:1036600017E009880268C1F3080151600169002967
:10367000016A02D0491C0162ECE7891CFBE7016882
:10368000CA6822F08002CA600068C16841F0400147
:10369000C16000207047000070B500240C4D0D483B
:1036A000FEF7C7F802E0641CAC4204D80948FEF7F4
:1036B000BDF80128F7D1002402E0641CAC4206D812
:1036C000012205490348FEF79BF90028F5D170BD9A
:1036D000FFFF0100780800203C000020F8B51C48DE
:1036E000002600960068800630D51948001D006845
:1036F000194C184D01276188685428785A2806D13A
:10370000164827706A461021006804F0C9FA20782C
:1037100001281BD16088401C80B26080062804D03C
:10372000B0F5806F07D3012106E029796A79083165
:1037300041EA0221216100212269904201D1012048
:1037400000E00020014301D066806770F8BD0000F2
:1037500000480040641100204800002018000020AC
:10376000FEE7000070B5040300F02EF900F0D6F873
:10377000104D0020C5F898022020FEF74BFF0E48A0
:103780000088A0F56F41183902D1200EFEF742FFE4
:10379000C4F30740FEF73EFFC4F30720FEF73AFFED
:1037A000E0B2FEF737FF0120C5F89802BDE870408F
:1037B00000F0B4B8008042426800002070B51A489A
:1037C00086B00025016841F02001016000680124F5
:1037D00000F0200005904020CDE900040220CDE952
:1037E000024069461148FDF771F9114EC6F898423A
:1037F000FEF7E8FE0020FEF71DFF00F051F80D492E
:103800000880A0F56F4118390BD1032000F06AF849
:10381000C00706D1C6F89852B720FEF7FBFEC6F8DF
:10382000984206B070BD00003038024000140240DB
:1038300000804242680000202DE9F041164F064604
:10384000002015460C46C7F898020320FEF7E2FE5A
:1038500012480088A0F56F41183902D1200EFEF7FA
:10386000D9FEC4F30740FEF7D5FEC4F30720FEF7E8
:10387000D1FEE0B2FEF7CEFE002405E0FF20FEF709
:10388000C9FE3055641CA4B2AC42F7D30120C7F87E
:103890009802BDE8F08100000080424268000020EC
:1038A00070B50F4D0024C5F89842902005F5267597
:1038B000FEF7B0FE0020FEF7ADFE0020FEF7AAFEE8
:1038C0000020FEF7A7FEFF20FEF7A4FE44EA002436
:1038D000FF20FEF79FFE20430121296070BD0000FC
:1038E0000080424210B5012803D0022803D00328EB
:1038F00003D0052002E0352000E01520064C002111
:10390000C4F8981204F52674FEF784FEFF20FEF733
:1039100081FE0121216010BD0080424210B50120CE
:10392000FFF7E0FFC007FAD110BD00002DE9F05FFE
:10393000C1F30B06DFF88C800F0BC6F580548A4666
:1039400081461546A24200D8144639038B464FF4EF
:1039500080524046FFF770FF002006E0321818F84A
:103960000210FF2903D1401C80B2A042F6D3A0422E
:1039700021D23846FFF7F6FE002006E019F80020B5
:103980008319401C08F8032080B2A042F6D35946A0
:103990004FF48052404600F027F8A5420FD0281B74
:1039A000A144A244002685B24FF480547F1CA54256
:1039B000CBD82C46C9E7224651464846EBE7BDE83E
:1039C000F09F00006415002010B5064C0020C4F8DC
:1039D0009802062004F52674FEF71CFE01202060E4
:1039E00010BD0000008042422DE9F0410746C8B2F8
:1039F000C0F580740E461546A24200D814464FF416
:103A0000807822463146384600F00EF8A54208D0AC
:103A1000281B2744264485B24446A542F1D82C46AB
:103A2000EFE7BDE8F08100002DE9F04115460C46B6
:103A30000646FFF7C9FF154F0020C7F8980202207D
:103A4000FEF7E8FD12480088A0F56F41183902D151
:103A5000200EFEF7DFFDC4F30740FEF7DBFDC4F3E5
:103A60000720FEF7D7FDE0B2FEF7D4FD002404E006
:103A7000305DFEF7CFFD641CA4B2AC42F8D3012048
:103A8000C7F89802BDE8F041FFF748BF0080424206
:103A90006800002030380A2801D201207047002039
:103AA000704770472DE9FE4F0F46044600F02CF991
:103AB000002854D1DFF8ACB0DFF8ACA04FF001091A
:103AC0004AE0210A0AEB81056946284602F0E6F839
:103AD000012844D1C4F3C40009FA00F6009928462D
:103AE000B14302F035FF012839D102A9D846584622
:103AF00002F0D4F8012832D11C490298084040EA6B
:103B0000043040F01201404602F022FF012826D185
:103B1000DFF8508008F1100801A9404602F0BEF815
:103B200001281CD101988007F6D5019840F00201C8
:103B3000404602F00DFF012811D12846694602F0E7
:103B4000ADF801280BD1009846EA0001284602F0A2
:103B5000FFFE012803D1641CBC42B2D90020BDE89D
:103B6000FE8F00000420194070211940FF0FC0FF94
:103B70002DE9FE4F0F46044600F028F9002854D1E5
:103B8000DFF8ACB0DFF8ACA04FF001094AE0210A41
:103B90000AEB81056946284602F094F8012844D1D1
:103BA000C4F3C40009FA00F600992846B14302F0B4
:103BB000E3FE012839D102A9D846584602F082F81E
:103BC000012832D11C490298084040EA043040F0F4
:103BD0001201404602F0D0FE012826D1DFF85080C5
:103BE00008F1100801A9404602F06CF801281CD128
:103BF00001988007F6D5019840F00201404602F096
:103C0000BBFE012811D12846694602F05BF8012865
:103C10000BD1009846EA0001284602F0ADFE0128CB
:103C200003D1641CBC42B2D90020BDE8FE8F000065
:103C30000420194070211940FF0FC0FF2DE9FE4FED
:103C40000F46044600F010F9002854D1DFF8ACB05C
:103C5000DFF8ACA04FF001094AE0210A0AEB810528
:103C60006946284602F042F8012844D1C4F3C40052
:103C700009FA00F600992846B14302F091FE0128A6
:103C800039D102A9D846584602F030F8012832D17D
:103C90001C490298084040EA043040F012014046B6
:103CA00002F07EFE012826D1DFF8508008F11008CE
:103CB00001A9404602F01AF801281CD1019880079A
:103CC000F6D5019840F00201404602F069FE012855
:103CD00011D12846694602F009F801280BD1009855
:103CE00046EA0001284602F05BFE012803D1641C6D
:103CF000BC42B2D90020BDE8FE8F0000042019406C
:103D000070211940FF0FC0FF7CB52049204802F008
:103D10001FFE012821D11E4C6946241D204601F0BA
:103D2000BDFF012819D1251D1A49284602F010FEB1
:103D3000012812D11849284602F00AFE01280CD1A8
:103D40006946204601F0AAFF012806D1009988069D
:103D500004D512A0FCF72CFB01207CBD41F04001F2
:103D6000204602F0F5FD0128F7D1174C01A92046A5
:103D700001F094FF0128F0D1019820F08041204605
:103D800002F0E6FD0128E8D100207CBD3941545401
:103D90000020194023016745AB89EFCD666C617344
:103DA00068206E6F7420756E6C6F636B6564204164
:103DB0004C494F54485F464C4153485F43523A2068
:103DC0003078257800000000902119407CB520490A
:103DD000204802F0D1FD012821D11E4C6946241D46
:103DE000204601F06FFF012819D1251D1A492846E8
:103DF00002F0C2FD012812D11849284602F0BCFD8C
:103E000001280CD16946204601F05CFF012806D14B
:103E10000099880604D51248FCF7CAFA01207CBD37
:103E200041F04001204602F0A7FD0128F7D10D4CDA
:103E300001A9204601F046FF0128F0D1019820F0A9
:103E40008041204602F098FD0128E8D100207CBD89
:103E5000394154540020194023016745AB89EFCD07
:103E60009C3D0008902119407CB52049204802F073
:103E700097FD012821D11E4C6946241D204601F0E2
:103E800035FF012819D1251D1A49284602F088FD61
:103E9000012812D11849284602F082FD01280CD1D0
:103EA0006946204601F022FF012806D100998806C4
:103EB00004D51248FCF77CFA01207CBD41F040019A
:103EC000204602F06DFD0128F7D10D4C01A92046D6
:103ED00001F00CFF0128F0D1019820F0804120462C
:103EE00002F05EFD0128E8D100207CBD3941545428
:103EF0000020194023016745AB89EFCD9C3D0008A8
:103F00009021194000880880704700210180704787
:103F1000F0B50388002641F221070CE08C5D0025F6
:103F200083EA04235C001B0400D57C406D1C2346FF
:103F3000082DF7D3761C9642F0D30380F0BD000025
:103F400010B504460420FDF750FC09484CF25031EE
:103F500044604C43322101804FF0E021086940F079
:103F6000020008614C61086940F00100086110BD61
:103F70003400002070B5044604F0C0FA01280CD0CB
:103F8000094D2888844203D3B4FBF0F003F0BAF95A
:103F90002888B4FBF0F100FB11444FF47A706043C1
:103FA000BDE8704000F002B83400002070B54FF05A
:103FB000E02500216C69094AAB6952685043AA693F
:103FC0009A42FCD002D2A3EB020302E0A4EB020669
:103FD0003344194413468142F1D370BD34000020AC
:103FE00070B5050005D140F2FB4214A118A0FCF702
:103FF000DFF91B4E3068854201D1002070BD03F00F
:104000003DF86C6903F076F8706B844202D0B06BB7
:10401000844201D1022070BD1248844204D1A86AB2
:104020000028F7D1032070BD0E481438844202D016
:104030000CB1012070BD042070BD00002E2E5C4626
:1040400072656552544F535C7461736B732E6300D9
:104050004572726F723A25732C25640D0A000000B8
:104060003C070020A4A8012003490A685206FCD599
:10407000C2B24A60704700000010014010B5002332
:1040800005E0DC0021FA04F4C4545B1CDBB293426B
:10409000F7D310BD10B5002305E0DC0021FA04F4CD
:1040A000C4545B1CDBB29342F7D310BD10B50023A0
:1040B00005E0DC0021FA04F4C4545B1CDBB293423B
:1040C000F7D310BD10B50020FDF73CFE01281CD031
:1040D000022808D0032818D10C480F210068BDE839
:1040E000104003F085BD0AA0FCF762F914A0FCF7AC
:1040F0005FF91F4803F0E4F91D491EA0FCF758F9C9
:10410000BDE8104002A0FCF753B910BD1800002014
:104110002D2D2D2D2D2D2D2D2D2D2D2D2D2D2D2DCF
:104120002D2D2D2D2D2D2D2D2D2D2D2D2D2D2D2DBF
:104130002D2D2D2D2D2D2D2D2D2D0D0A00000000A6
:104140002020206E616D65202020202020207374A7
:1041500061746520207072696F72697479202073B0
:104160007461636B2020206E756D200D0A000000C5
:10417000B808002025730000FFF7A4FFFCE700004B
:104180001CB5FCF7A9FD0823022219214FF4B470D5
:10419000FFF7C8F8B420FFF7D3FE4FF4E13002F088
:1041A0005DFEFDF73BFEFDF78DFD02F073FEFFF7B0
:1041B00005FB094A1E2109A0FCF7FAF81149012064
:1041C000CDE90001820200230FA1124804F06AF930
:1041D00003F0DAFA00201CBD7E8A00085B6D61697D
:1041E0006E2E635D5B4C696E65A3BA25645D5B25CD
:1041F000735DA3BA737420737764206461700D0AD1
:104200000D0A00000000002073746172745F746115
:10421000736B0000214D000830B5002200280DD03E
:1042200000290BD0064B1D1D8A4207D21C6864066C
:10423000FCD5845C2C60521C92B2F5E730BD0000C6
:10424000004800402DE9F041184E0F460446F5683D
:104250003068001D02F06AFE38B9306890F82C1002
:1042600001208840316981433161601C07D137B139
:104270003168BDE8F0410E48091D02F0F3BE306818
:104280002C44AC424460316805D2B06BBDE8F041CB
:10429000091D02F0CFBE706B091D02F0CBFEB06AA3
:1042A000844200D2B462BDE8F08100003C070020E7
:1042B000A4A801202DE9F041054602F0DFFE2D4EB5
:1042C000B068401CB06030682B4F10B1706930B3DB
:1042D0002BE03560B068012827D1002404EB84006E
:1042E00007EB800002F098FE641C202CF6D32348D4
:1042F00002F092FE2148143002F08EFE1F48283052
:1043000002F08AFE1D483C3002F086FE1B48503009
:1043100002F082FE194870631430B06305E0306823
:10432000E96AC06A884200D83560706A0121401C81
:1043300070626864E86A326981401143316100EB60
:10434000800007EB8000291D02F08CFE02F0D2FEF7
:10435000706900280CD03068E96AC06A884207D2C8
:1043600007494FF080500860BFF34F8FBFF36F8F46
:10437000BDE8F0813C070020D4A5012054A801200D
:1043800004ED00E010B502F079FE0E4C2068A0B9F3
:104390000D4802F041FE0C48143002F03DFE0A4880
:1043A000E0601430206100221021052003F0B0FDF0
:1043B000206010B105A102F071FFBDE8104002F0CD
:1043C00099BE000078070020B8A80120546D7251F2
:1043D0000000000070B5124E124D1CE003F01EFAF2
:1043E000306820B1002404F003FAA4B901E00124EC
:1043F000F9E702F043FEF068C468201D02F096FD64
:10440000A868401EA8606868401E686002F072FEDE
:10441000204600F052F868680028DFD170BD000027
:1044200090A801203C07002030B4026C0B46002A03
:104430000BD0C1681144C1604468A14201D3016836
:10444000C16030BC1846FCF72FB930BC70472DE96D
:10445000F041856B174604460026026C82B1C7B155
:10446000E068FCF721F9E168206C091AE160226834
:10447000914202D26168081AE060022F16D017E05C
:104480002068A8B9606804F0C1F8064600206060A2
:104490000EE0A068FCF708F9216CA0680844A06051
:1044A0006168884204D32068A06001E005B16D1EF8
:1044B0006D1CA5633046BDE8F08110B50446006B65
:1044C00002F04AFE2046BDE8104002F045BE000062
:1044D00010484FF43841420706D0C01D0D4920F066
:1044E0000700411AC1F538410B4A00230144C2E9D3
:1044F00000030839103A21F0070111604B600B608E
:104500000B1AC0E9001393604FF000405360D06075
:1045100070470000E0A80120A8070020074E4FF0D8
:104520008054074DFFF756FF30680128FAD92C60F8
:10453000BFF34F8FBFF36F8FF4E70000D4A50120C6
:1045400004ED00E02DE9F047DDE909840E46174649
:10455000824691009946089DA522206BFCF71BF925
:104560006FF00301206B01EB8701084420F007077F
:10457000780705D040F22B3219A11EA0FBF718FFD7
:1045800000202218315C82F83410315C11B1401CDB
:104590001028F6D3002684F84360202D00D31F2571
:1045A000E562C4E91356201D02F041FD04F1180034
:1045B00002F03DFD2461C5F120006462A0616665E2
:1045C00084F858604A465146384600F037FB206070
:1045D000B8F1000F01D0C8F80040BDE8F087000036
:1045E0002E2E5C4672656552544F535C7461736B3A
:1045F000732E63004572726F723A25732C25640D19
:104600000A00000030B5114900E011460A688242F4
:10461000FBD34B685C18844203D14068184448605F
:10462000084643681C18944209D1084C103C246881
:10463000A24209D052681A4442600A6812680260B5
:10464000814200D0086030BD0460F9E7A80700206F
:1046500070B5002441600B4D0061914206D8D11A1B
:104660008269914206D2011D286907E09A4203D26D
:10467000994201D3012403E0011DE86802F0DAFC4D
:10468000204670BD7807002010B5044602F0F6FC05
:10469000A06B20B1002402F02DFD204610BD0124A6
:1046A000F9E72DE9F0478146086892460C46002557
:1046B000F8B1486801F1080640684860B04201D18D
:1046C00040684860D0F80C80606842686260B2421E
:1046D00001D151686160606805EBC50109EB81019A
:1046E000C76853460122384602F0A8FE6D1C4745B4
:1046F000EAD12846BDE8F0872DE9F34100980F463E
:104700000026846C2CB940F6CE1216A11AA0FBF735
:104710004FFEA06BE16B884205D340F6CF1211A18A
:1047200015A0FBF745FEA06BE16B88420CD294F913
:1047300045503A4669462046FFF789FE0646681C02
:1047400005D06D1C84F845503046BDE8FC81606A98
:104750000028F9D004F1240003F0B2FF0028F3D0C0
:104760000126F1E72E2E5C4672656552544F535C6C
:1047700071756575652E63004572726F723A2573A7
:104780002C25640D0A000000F8B5054614480E46B5
:10479000C068C068C468201D02F0C8FBE069012839
:1047A00017D1A0692B46411932462046FFF750FF2A
:1047B00078B100200346014600902A46204604F0C6
:1047C000FDF830B907494FF4027201F11800FBF708
:1047D000EFFD616A01B02046BDE8F04008470000E7
:1047E000780700202089000870B586B02F4E53E06E
:1047F0000198002806DADDE90301029A9047019842
:10480000002849DB039C606910B1201D02F08EFB7B
:1048100005A800F0A7F8054601980A283CD2DFE871
:1048200000F00505053B273805053B270298A169DF
:10483000034601442A462046FFF70AFF00282BD0F2
:10484000616A20468847E069012825D10020009050
:104850000298A169002342181946204604F0AEF8D8
:10486000D0B940F2213212A117A0FBF7A1FD13E04D
:104870000298A06128B94FF44E720DA112A0FBF767
:1048800097FDA0692B4641191A462046FFF7E0FE26
:1048900002E0204602F060FC00231A4601A93068BD
:1048A00003F072FB0028A3D106B070BD780700208A
:1048B0002E2E5C4672656552544F535C74696D656B
:1048C00072732E63000000004572726F723A257396
:1048D0002C25640D0A000000F8B50D46064602F0CE
:1048E0009DFF684600F03EF80446009810B103F0C2
:1048F0007FFFF8BD1148ADB101690968D9B1002544
:10490000311B2A46006802F0DBFC03F071FF00282F
:10491000EFD10B494FF080500860BFF34F8FBFF3CA
:104920006F8FF8BDA642EBD803F062FF21463046F8
:10493000FFF72AFFF8BD0125E2E700007807002015
:1049400004ED00E00648416B096829B1416BC96874
:10495000C9684968816270474FF0FF31FAE700008B
:104960003C07002070B5054603F0D6FD064E044610
:10497000B068844203D200F009F8012000E0002072
:1049800028602046B46070BD78070020F8B5184E46
:1049900026E0C068C4680568201D02F0C7FA616A95
:1049A00020468847E06901281AD1A0692844A84216
:1049B00006D924616060211DF06802F03BFB0FE026
:1049C00000200346014600902A46204603F0F6FFE9
:1049D00030B9084940F2923201F11800FBF7E8FCC7
:1049E000F06801680029D4D13169C6E90310F8BD27
:1049F000780700202089000808484068401C05D03E
:104A000040F20F1206A111A0FBF7D2FC502080F358
:104A10001188BFF34F8FBFF36F8FFEE78C07002025
:104A20002E2E5C4672656552544F535C706F7274E3
:104A300061626C655C525644535C41524D5F434D1C
:104A400034465C706F72742E630000004572726FA2
:104A5000723A25732C25640D0A00000003460020DD
:104A600012B1994302D070470B42FCD0012070472D
:104A7000084CE068016839B1002139B10020FFF726
:104A80002BFFFFF7B1FEF4E70121F6E7C0680068ED
:104A9000F5E70000780700202DE9F041044602F018
:104AA000EDFA94F9455004F1240610E0A06C20B111
:104AB00000212046FFF720FE04E0606A48B130463E
:104AC00003F0FEFD08B102F063FD6D1E6DB2002D16
:104AD000ECDC4FF0FF3684F8456002F00BFB02F08F
:104AE000CDFA94F9445004F1100709E0206948B167
:104AF000384603F0E5FD08B102F04AFD6D1E6DB2C7
:104B0000002DF3DC84F84460BDE8F04102F0F2BA15
:104B10002DE9F0410546002602F080FE324F38684C
:104B200008B9FFF7D5FCF86805424FD1002D4DD0EC
:104B3000083568070BD005F00700C0F108000544F0
:104B4000680704D0BE2229A132A0FBF731FC002D5A
:104B50003CD07868854239D823491031084604682A
:104B600001E0214604466068A84202D2206800287D
:104B7000F7D13868B846844228D00E6820680860AB
:104B800060680836401B10280ED96719780704D0D2
:104B9000EB2216A11FA0FBF70BFC6068401B78609E
:104BA00038466560FFF72EFD6168D8F8040042467C
:104BB000401AC8F80400D8F80830984200D2906033
:104BC000D8F80C0001430020C4E9000103F010FEF6
:104BD000700705D040F22B1204A10EA0FBF7E8FBF2
:104BE0003046BDE8F0810000980700202E2E5C467C
:104BF00072656552544F535C706F727461626C657C
:104C00005C4D656D4D616E675C686561705F342EEB
:104C1000630000004572726F723A25732C25640D93
:104C20000A0000000449086818B10868026D521CA7
:104C300002650868704700003C07002010B5031F9C
:104C40004FF080741C601B1F21F001011960191FB7
:104C5000044B0B6014390A60091F6FF002024438DC
:104C60000A6010BDF949000808B5094D094C4FF01C
:104C7000FF360096012300221021A86903F018F8DE
:104C800002F012FED4F88402C043C4F88402F0E7B4
:104C900000000020008040421CB56420FFF786F928
:104CA0001C498888401C80B2A0F598528880883AB8
:104CB0002ED10020888018490A785A2A24D14978B0
:104CC000A62921D1154C5A212170A7216170A0700D
:104CD000E070207160710120A0714D20E071684684
:104CE000FFF713F9082221466846FFF711F901A9D9
:104CF0006846FFF707F9BDF804002072000A6072E9
:104D00000A212046FFF788FABDE81C4000F078B879
:104D10001CBD00004800002064110020A00A0020F3
:104D20007CB502F0ABF902F055FF1F4D4FF48066E1
:104D300005F11401A8610320CDE9000100233246EA
:104D40001AA11E4803F0AEFB05F110000224CDE9C4
:104D50000040002332461AA11C4803F0A3FB281D83
:104D6000CDE900400023324619A11C4803F09AFB0C
:104D700005F10800CDE900400023324618A11B4888
:104D800003F090FB05F10C00CDE900400023324612
:104D900017A11A4803F086FB286802F0E9FABDE87B
:104DA0007C4002F0A7B9000000000020725F73741D
:104DB0006172745F7461736B00000000694C0008DD
:104DC0006B65795F7461736B0000000079410008C6
:104DD0007461736B315F7461736B0000FD6D00086B
:104DE0007461736B325F7461736B00001D6E000839
:104DF0007461736B335F7461736B00003D6E000808
:104E00000020084A01464FF480631154401C984228
:104E1000FBD30548418001704170044810210068AF
:104E200002F0A6BE641100204800002018000020F7
:104E3000F8B500252C461B4E2AE006EBC40191F87C
:104E40002F0091F82E2045EA006040EA024091F8D8
:104E50002D2091F82C5040EA02200543FBF72EFF4D
:104E60000746611C2846FDF713F930B1631C0E4A52
:104E70004C210E48FBF79CFA09E0FBF71FFFC01B13
:104E80000090631C084A51210948FBF791FA641C01
:104E900096F82900A042D0DCBDE8F840022000F0DE
:104EA000BBBF000010110020938A0008D08C0008BE
:104EB000208D0008F8B500252C461B4E2AE006EB95
:104EC000C40191F82F0091F82E2045EA006040EAD5
:104ED000024091F82D2091F82C5040EA0220054321
:104EE000FBF7ECFE0746611C2846FDF7AFF930B131
:104EF000631C0E4A66210E48FBF75AFA09E0FBF7DD
:104F0000DDFEC01B0090631C084A6B210948FBF7BB
:104F10004FFA641C96F82900A042D0DCBDE8F840A6
:104F2000022000F0EDBF000010110020A38A00084D
:104F3000D08C0008208D0008F8B500252C461B4EAB
:104F40002AE006EBC40191F82F0091F82E2045EAE3
:104F5000006040EA024091F82D2091F82C5040EA80
:104F600002200543FBF7AAFE0746611C2846FDF711
:104F70004BFA30B1631C0E4A80210E48FBF718FA39
:104F800009E0FBF79BFEC01B0090631C084A8521CB
:104F90000948FBF70DFA641C96F82900A042D0DC02
:104FA000BDE8F840022001F01FB8000010110020F9
:104FB000B38A0008D08C0008208D00082DE9F0434A
:104FC00093B00F46DDE91A8904461E461546442172
:104FD0006846FBF7E8FB8DE8600360680990A0680D
:104FE0000D902068CDE90E074FF080701090684654
:104FF00001F0F8FA30B12E4F42F2107538680128EE
:1050000005D005E02B4A40F2AF212BA022E0052578
:105010000024A046374E14E011A9304600F03EFEB1
:1050200088B1119880030BD532480021C7F8008061
:105030006F460C466425001D01F08AFC48B30FE062
:10504000641CAC42E8D33868012806D0194A40F203
:10505000BD212948FBF7ACF91FE0C7F800801CE030
:105060003946304600F01AFE98B13868C00302D4C1
:10507000641CAC42F4DBAC4213D01E483946083005
:1050800000F00CFE28B1009B83B10A4A40F2CF2108
:1050900000E006E019A0FBF78BF9002013B0BDE893
:1050A000F083044A40F2C9212248D3E70120F5E702
:1050B000F8060020B98B00085B2E2E5C5357445035
:1050C0005C5357445F686F73742E635D5B4C696E0D
:1050D00065A3BA25645D5B25735DA3BA57726974D5
:1050E00065205374617465204661756C660D0A0D08
:1050F0000A000000F0ED00E0B88F00085B2E2E5C87
:10510000535744505C5357445F686F73742E635D0C
:105110005B4C696E65A3BA25645D5B25735DA3BABC
:10512000204661756C74203078252E34580D0A0D98
:105130000A000000009000082DE9F04393B00F46EC
:10514000DDE91A8904461E46154644216846FBF7E8
:105150002AFB8DE8600360680990A0680D902068C4
:10516000CDE90E074FF080701090684601F07CFA90
:1051700030B12E4F42F210753868012805D005E095
:105180002B4A40F22E612BA022E005250024A046E8
:10519000374E14E011A9304600F094FD88B1119803
:1051A00080030BD532480021C7F800806F460C46BB
:1051B0006425001D01F0E0FB48B30FE0641CAC4225
:1051C000E8D33868012806D0194A40F23C612948E2
:1051D000FBF7EEF81FE0C7F800801CE039463046C8
:1051E00000F070FD98B13868C00302D4641CAC4272
:1051F000F4DBAC4213D01E483946083000F062FDA3
:1052000028B1009B83B10A4A40F24E6100E006E0FB
:1052100019A0FBF7CDF8002013B0BDE8F083044AD5
:105220004FF4C9612248D3E70120F5E700070020C9
:10523000088C00085B2E2E5C535744505C53574437
:105240005F686F73742E635D5B4C696E65A3BA25EE
:10525000645D5B25735DA3BA5772697465205374EE
:10526000617465204661756C660D0A0D0A000000C8
:10527000F0ED00E0489000085B2E2E5C5357445040
:105280005C5357445F686F73742E635D5B4C696E4B
:1052900065A3BA25645D5B25735DA3BA204661757D
:1052A0006C74203078252E34580D0A0D0A00000049
:1052B000909000082DE9F04393B00F46DDE91A897C
:1052C00004461E46154644216846FBF76CFA8DE8F5
:1052D000600360680990A0680D902068CDE90E0712
:1052E0004FF080701090684601F000FA30B12E4FF8
:1052F00042F210753868012805D005E02B4A40F6C7
:10530000AB112BA022E005250024A046374E14E067
:1053100011A9304600F0EAFC88B1119880030BD542
:1053200032480021C7F800806F460C466425001DF6
:1053300001F036FB48B30FE0641CAC42E8D3386898
:10534000012806D0194A40F6B9112948FBF730F870
:105350001FE0C7F800801CE03946304600F0C6FC6C
:1053600098B13868C00302D4641CAC42F4DBAC4290
:1053700013D01E483946083000F0B8FC28B1009B15
:1053800083B10A4A40F6CB1100E006E019A0FBF712
:105390000FF8002013B0BDE8F083044A40F6C511B1
:1053A0002248D3E70120F5E708070020578C0008C2
:1053B0005B2E2E5C535744505C5357445F686F73A9
:1053C000742E635D5B4C696E65A3BA25645D5B25D5
:1053D000735DA3BA57726974652053746174652054
:1053E0004661756C660D0A0D0A000000F0ED00E0E4
:1053F000D89000085B2E2E5C535744505C535744A2
:105400005F686F73742E635D5B4C696E65A3BA252C
:10541000645D5B25735DA3BA204661756C742030B2
:1054200078252E34580D0A0D0A000000209100083E
:1054300010B586B0FBF7DCFA1348016841F48071BF
:1054400001600068114C00F48070059040F201305A
:1054500000900120019002900220039069462046AE
:10546000FBF734FB012211462046FBF722FC012208
:1054700011022046FBF71DFC012251022046FBF7DA
:1054800018FC06B0012010BD303802400020024058
:1054900010B586B0FBF7D0FA1348016841F480716B
:1054A00001600068114C00F480700590E0200090CD
:1054B0000120019002900220039069462046FBF7EC
:1054C00005FB012220212046FBF7F3FB01224021AE
:1054D0002046FBF7EEFB012280212046FBF7E9FB8B
:1054E00006B0012010BD000030380240002002400C
:1054F00010B586B0FBF7C4FA1348016841F4807117
:1055000001600068114C00F4807005901A20009032
:105510000120019002900220039069462046FBF78B
:10552000D5FA012202212046FBF7C3FB0122082104
:105530002046FBF7BEFB012210212046FBF7B9FBFA
:1055400006B0012010BD00003038024000200240AB
:10555000F8B50020324904460090401E08606425DA
:105560004860FFF765FFFCF7ADFA40B31E2100204D
:1055700001F0FEF8002827D00021082001F0F8F8FB
:10558000002826D04FF0A041042001F0F1F80028B7
:1055900024D04FF020466946042000F01BFB002871
:1055A00020D0009836EA000002D0641CAC42F2DB46
:1055B000AC421CD11B4A40F24F311BA02CE0194ACF
:1055C00040F22F3128A027E0164A4FF44D7135A044
:1055D00022E0144A40F23A3142481DE0114A4FF4A9
:1055E000507113E00F4A40F246313F4814E03F4902
:1055F000042001F0BDF830B10021082001F0B8F816
:1056000030B10120F8BD074A40F25531384803E077
:10561000044A40F25D313748FAF7CAFE0020F8BD6F
:1056200024070020DD8B00085B2E2E5C535744506E
:105630005C5357445F686F73742E635D5B4C696E97
:1056400065A3BA25645D5B25735DA3BA556E61627F
:105650006C6520746F20706F776572757020445090
:105660000D0A0D0A000000005B2E2E5C53574450BB
:105670005C5357445F686F73742E635D5B4C696E57
:1056800065A3BA25645D5B25735DA3BA4A5441479F
:10569000325357445F31204661756C740D0A0D0A10
:1056A000000000005B2E2E5C535744505C5357445F
:1056B0005F686F73742E635D5B4C696E65A3BA257A
:1056C000645D5B25735DA3BA7377645F77726974F9
:1056D000655F64705F31204661756C740D0A0D0A58
:1056E000000000003093000868910008000F00508F
:1056F000B491000808940008F8B500203249044627
:105700000090401E086064254860FFF7C1FEFCF76A
:1057100041FA40B31E21002001F044F8002827D0B0
:105720000021082001F03EF8002826D04FF0A041CB
:10573000042001F037F8002824D04FF020466946B5
:10574000042000F068FA002820D0009836EA000013
:1057500002D0641CAC42F2DBAC421CD11B4A40F2CA
:10576000CE611BA02CE0194A40F2AE6128A027E0D0
:10577000164A40F2B36135A022E0144A40F2B96102
:1057800042481DE0114A40F2BF6113E00F4A40F267
:10579000C5613F4814E03F49042001F003F830B1EF
:1057A0000021082000F0FEFF30B10120F8BD074ABB
:1057B00040F2D461384803E0044A40F2DC613748E3
:1057C000FAF7F6FD0020F8BD2C0700202C8C00080D
:1057D0005B2E2E5C535744505C5357445F686F7385
:1057E000742E635D5B4C696E65A3BA25645D5B25B1
:1057F000735DA3BA556E61626C6520746F20706F23
:1058000077657275702044500D0A0D0A0000000083
:105810005B2E2E5C535744505C5357445F686F7344
:10582000742E635D5B4C696E65A3BA25645D5B2570
:10583000735DA3BA4A544147325357445F312046FF
:1058400061756C740D0A0D0A000000005B2E2E5C61
:10585000535744505C5357445F686F73742E635DB5
:105860005B4C696E65A3BA25645D5B25735DA3BA65
:105870007377645F77726974655F64705F32204626
:1058800061756C740D0A0D0A000000007893000821
:1058900000920008000F00504C9200085494000839
:1058A000F8B50020324904460090401E0860642587
:1058B0004860FFF71DFEFCF7B9F940B31E21002038
:1058C00000F08AFF002827D00021082000F084FF84
:1058D000002826D04FF0A041042000F07DFF0028D2
:1058E00024D04FF020466946042000F0B5F9002886
:1058F00020D0009836EA000002D0641CAC42F2DBF3
:10590000AC421CD11B4A40F64B211BA02CE0194A8B
:1059100040F62B2128A027E0164A4FF4236134A03B
:1059200022E0144A40F6362141481DE0114A40F673
:105930003C2113E00F4A40F642213E4814E03E4924
:10594000042000F049FF30B10021082000F044FF9E
:1059500030B10120F8BD074A40F65121374803E035
:10596000044A40F659213648FAF722FD0020F8BDD6
:10597000340700207B8C00085B2E2E5C535744506C
:105980005C5357445F686F73742E635D5B4C696E44
:1059900065A3BA25645D5B25735DA3BA556E61622C
:1059A0006C6520746F20706F77657275702044503D
:1059B0000D0A0D0A000000005B2E2E5C5357445068
:1059C0005C5357445F686F73742E635D5B4C696E04
:1059D00065A3BA25645D5B25735DA3BA4A5441474C
:1059E00032535744204661756C740D0A0D0A00004D
:1059F0005B2E2E5C535744505C5357445F686F7363
:105A0000742E635D5B4C696E65A3BA25645D5B258E
:105A1000735DA3BA7377645F77726974655F64704E
:105A20005F33204661756C740D0A0D0A000000009A
:105A3000C093000898920008000F0050E4920008FC
:105A4000A094000800B585B040F20130009000201D
:105A5000019002900220039069460348FBF736F854
:105A600005B0012000BD00000020024000B585B057
:105A7000E0200090002001900290022003906946EF
:105A80000248FBF723F805B0012000BD00200240CA
:105A900000B585B01A2000900020019002900220ED
:105AA000039069460248FBF711F805B0012000BDDC
:105AB000002002401CB50C460146042201A8FEF756
:105AC000DDFA052001A900F027FB012820D10F20D5
:105AD000694600F021FB01281AD10E20694600F02A
:105AE0001BFB002222609DF8031042EA0161216045
:105AF0009DF8022041EA024121609DF8012041EA1F
:105B0000022121609DF8002011432160012800D06E
:105B100000201CBD1CB50C460146042201A8FEF75E
:105B2000B9FA052001A900F006FB012820D10F20B9
:105B3000694600F000FB01281AD10E20694600F0EA
:105B4000FAFA002222609DF8031042EA0161216006
:105B50009DF8022041EA024121609DF8012041EABE
:105B6000022121609DF8002011432160012800D00E
:105B700000201CBD1CB50C460146042201A8FEF7FE
:105B800095FA052001A900F0E5FA012820D10F209F
:105B9000694600F0DFFA01281AD10E20694600F0AC
:105BA000D9FA002222609DF8031042EA01612160C7
:105BB0009DF8022041EA024121609DF8012041EA5E
:105BC000022121609DF8002011432160012800D0AE
:105BD00000201CBD38B50C4600F00C006946801C46
:105BE00000F09AFA002222609DF8031042EA016157
:105BF00021609DF8022041EA024121609DF80120C8
:105C000041EA022121609DF8002011432160012812
:105C100000D0002038BD38B50C4600F00C006946B5
:105C2000801C00F088FA002222609DF8031042EAEE
:105C3000016121609DF8022041EA024121609DF846
:105C4000012041EA022121609DF8002011432160DA
:105C5000012800D0002038BD38B50C4600F00C00FB
:105C60006946801C00F076FA002222609DF803103D
:105C700042EA016121609DF8022041EA024121606F
:105C80009DF8012041EA022121609DF80020114386
:105C90002160012800D0002038BD000070B50C46FE
:105CA00005460749002000F065FA002806D0214685
:105CB0002846FFF7FFFE002800D0012070BD00003D
:105CC0005200002370B50C4605460749002000F03D
:105CD00085FA002806D021462846FFF71BFF00283A
:105CE00000D0012070BD00005200002370B50C46AA
:105CF00005460749002000F0A5FA002806D02146F5
:105D00002846FFF737FF002800D0012070BD0000B3
:105D1000520000231CB500206A46FF211154401C8C
:105D2000C0B20828FAD311463320FCF7EDFC01205D
:105D30001CBD1CB500206A46FF211154401CC0B296
:105D40000828FAD311463320FCF706FD01201CBDBC
:105D50001CB500206A46FF211154401CC0B208281F
:105D6000FAD311463320FCF71DFD01201CBD08B1FC
:105D7000002000E00120FCF767B908B1002000E036
:105D80000120FCF76DB908B1002000E00120FCF70C
:105D900073B900000748016807480029016801F449
:105DA000E06103D0054A114300F0D2BD034A921CC2
:105DB000F9E700000C0700200CED00E00200FA05F6
:105DC0000748016807480029016801F4E06103D031
:105DD000054A114300F0D0BD034A921CF9E70000C8
:105DE000140700200CED00E00200FA0507480168E6
:105DF00007480029016801F4E06103D0054A114316
:105E000000F0CEBD034A921CF9E700001C070020F9
:105E10000CED00E00200FA05F8B50224054606285C
:105E200001D0FFF705FB25B1012D15D0022D3CD186
:105E300003E00120FFF79BFF23E00120FFF797FF1E
:105E40001420FEF797F80020FFF791FF1420FEF7CB
:105E500091F8FFF7F7FD14E0FFF77AFB002811D067
:105E6000134E144D3146284600F072FD58B1694674
:105E70002846FFF713FF88B1FFF78CFF00988003D7
:105E8000F5D50120F8BD641E64B2002CEADC0A4A94
:105E90004FF4657109A0FAF78BFA06E0064A40F262
:105EA0009D311648009BFAF783FA0020F8BD0000E8
:105EB00003005FA0F0ED00E0EE8B00085B2E2E5C8F
:105EC000535744505C5357445F686F73742E635D3F
:105ED0005B4C696E65A3BA25645D5B25735DA3BAEF
:105EE0007772697465204442475F484353522046A5
:105EF00061756C740D0A0D0A000000009C8E00088C
:105F0000F8B502240546062801D0FFF7C1FA25B1ED
:105F1000012D15D0022D3CD103E00120FFF72DFF0C
:105F200023E00120FFF729FF1420FEF723F80020CB
:105F3000FFF723FF1420FEF71DF8FFF797FD14E08D
:105F4000FFF7DAFB002811D0134E144D31462846D6
:105F500000F012FD58B169462846FFF7B3FE88B13C
:105F6000FFF72EFF00988003F5D50120F8BD641ED1
:105F700064B2002CEADC0A4A40F2137109A0FAF775
:105F800017FA06E0064A40F21C711648009BFAF721
:105F90000FFA0020F8BD000003005FA0F0ED00E064
:105FA0003D8C00085B2E2E5C535744505C53574485
:105FB0005F686F73742E635D5B4C696E65A3BA2571
:105FC000645D5B25735DA3BA777269746520444292
:105FD000475F48435352204661756C740D0A0D0AA1
:105FE00000000000E48E0008F8B5022405460628EB
:105FF00001D0FFF77DFA25B1012D15D0022D3CD13E
:1060000003E00120FFF7BFFE23E00120FFF7BBFE06
:106010001420FDF7AFFF0020FFF7B5FE1420FDF7B9
:10602000A9FFFFF735FD14E0FFF73AFC002811D077
:10603000134E144D3146284600F0B2FC58B1694663
:106040002846FFF753FE88B1FFF7D0FE0098800383
:10605000F5D50120F8BD641E64B2002CEADC0A4AC2
:106060004FF4296109A0FAF7A3F906E0064A40F6C1
:1060700099211648009BFAF79BF90020F8BD000013
:1060800003005FA0F0ED00E08C8C00085B2E2E5C1E
:10609000535744505C5357445F686F73742E635D6D
:1060A0005B4C696E65A3BA25645D5B25735DA3BA1D
:1060B0007772697465204442475F484353522046D3
:1060C00061756C740D0A0D0A000000002C8F000829
:1060D00008B569468DF80000000A8DF8010010200F
:1060E000FCF712FB012008BD08B569468DF80000D9
:1060F000000A8DF801001020FCF72EFB012008BDDE
:1061000008B569468DF80000000A8DF801001020DE
:10611000FCF748FB012008BD70B50D46064600247B
:1061200029463046FCF764FB022803D1641CE4B224
:106130000A2CF5D370BD70B50D46064600242946DD
:106140003046FCF757FB022803D1641CE4B20A2C4A
:10615000F5D370BD70B50D4606460024294630467D
:10616000FCF74AFB022803D1641CE4B20A2CF5D3E5
:1061700070BD000038B5174A0D46044600F07F4157
:10618000126800F0F0000AB941F0407101430820A4
:1061900000F0EEFA002805D034B90F484168A94252
:1061A00001D1012038BD456004F00C0404222946C9
:1061B0006846641CFDF762FF69462046FFF7ACFFA6
:1061C000012805D10E200021FFF7A6FF0128E9D004
:1061D000002038BD0C0700202407002038B5174ADE
:1061E0000D46044600F07F41126800F0F0000AB945
:1061F00041F040710143082000F0D4FA002805D096
:1062000034B90F484168A94201D1012038BD456029
:1062100004F00C04042229466846641CFDF73AFF8A
:1062200069462046FFF787FF012805D10E2000218F
:10623000FFF781FF0128E9D0002038BD14070020B6
:106240002C07002038B5174A0D46044600F07F4160
:10625000126800F0F0000AB941F0407101430820D3
:1062600000F0BAFA002805D034B90F484168A942B5
:1062700001D1012038BD456004F00C0404222946F8
:106280006846641CFDF712FF69462046FFF762FF6F
:10629000012805D10E200021FFF75CFF0128E9D07D
:1062A000002038BD1C07002034070020F8B50D463B
:1062B00004462AB3960813490020FFF75BFF002825
:1062C0001FD00527042221466846FDF7D7FE694600
:1062D0003846FFF721FF012812D10D27002407E0DF
:1062E00029463846FFF718FF012809D1641C2D1DE7
:1062F000B442F5D30E200021FFF70EFF012800D095
:106300000020F8BD52000023F8B50D4604462AB31C
:10631000960813490020FFF761FF00281FD00527CA
:10632000042221466846FDF7B5FE69463846FFF768
:1063300002FF012812D10D27002407E02946384624
:10634000FFF7F9FE012809D1641C2D1DB442F5D3D5
:106350000E200021FFF7EFFE012800D00020F8BD3D
:1063600052000023F8B50D4604462AB39608134997
:106370000020FFF767FF00281FD0052704222146D1
:106380006846FDF793FE69463846FFF7E3FE0128AD
:1063900012D10D27002407E029463846FFF7DAFE20
:1063A000012809D1641C2D1DB442F5D30E20002113
:1063B000FFF7D0FE012800D00020F8BD52000023D6
:1063C00070B50C46054608490020FFF7D3FE0028AB
:1063D00009D0A807C00E04FA00F1284600F0A4F87E
:1063E000002800D0012070BD5000002370B50C467D
:1063F000054608490020FFF7F1FE002809D0A8074C
:10640000C00E04FA00F1284600F0ADF8002800D0D4
:10641000012070BD5000002370B50C4605460849A8
:106420000020FFF70FFF002809D0A807C00E04FACC
:1064300000F1284600F0B6F8002800D0012070BD19
:106440005000002373B50646002464250F480199C7
:1064500000F07EFA002813D00C4846F48031001F6B
:1064600000F076FA00280BD0084E083E01A930460D
:10647000FFF714FC002803D00198C00301D50120C8
:106480007CBD641CAC42F1DB00207CBDF8ED00E07B
:1064900073B50646002464250F48019900F06CFA94
:1064A000002813D00C4846F48031001F00F064FA35
:1064B00000280BD0084E083E01A93046FFF702FC29
:1064C000002803D00198C00301D501207CBD641CC5
:1064D000AC42F1DB00207CBDF8ED00E073B5064670
:1064E000002464250F48019900F05AFA002813D0BF
:1064F0000C4846F48031001F00F052FA00280BD0FF
:10650000084E083E01A93046FFF7F0FB002803D0F3
:106510000198C00301D501207CBD641CAC42F1DBB5
:1065200000207CBDF8ED00E038B50C4601460422A1
:106530006846FDF7A3FD05206946FFF7EDFD01283C
:106540000AD1042221466846FDF798FD0D206946D0
:10655000FFF7E2FD012801D0002038BD0E20002108
:10656000FFF7DAFD38BD38B50C460146042268460F
:10657000FDF790FD05206946FFF7DDFD01280AD1F2
:10658000042221466846FDF785FD0D206946FFF788
:10659000D2FD012801D0002038BD0E200021FFF7D8
:1065A000CAFD38BD38B50C46014604226846FDF7E1
:1065B0007DFD05206946FFF7CDFD01280AD10422A3
:1065C00021466846FDF772FD0D206946FFF7C2FDC2
:1065D000012801D0002038BD0E200021FFF7BAFDB0
:1065E00038BD000038B505460021082000F0C0F88D
:1065F000002832D00024204655F82410FFF722FF4F
:1066000000282AD0641C042CF5D30920696AFFF7FE
:1066100019FF002821D00D24204655F82410FFF73B
:1066200011FF002819D0641C102CF5D31020296C00
:10663000FFF708FF002810D009490A4800F088F940
:1066400000280AD069460420FFF7C4FA002804D0C5
:10665000009810F0A00F01D0002038BD012038BDF7
:1066600001005FA0F0ED00E038B5054600210820EC
:1066700000F098F8002832D00024204655F8241065
:10668000FFF706FF00282AD0641C042CF5D309204C
:10669000696AFFF7FDFE002821D00D24204655F839
:1066A0002410FFF7F5FE002819D0641C102CF5D338
:1066B0001020296CFFF7ECFE002810D009490A4889
:1066C00000F05AF900280AD069460420FFF7A3FA1F
:1066D000002804D0009810F0A00F01D0002038BD91
:1066E000012038BD01005FA0F0ED00E038B505469F
:1066F0000021082000F070F8002832D00024204645
:1067000055F82410FFF7EAFE00282AD0641C042C58
:10671000F5D30920696AFFF7E1FE002821D00D2496
:10672000204655F82410FFF7D9FE002819D0641C24
:10673000102CF5D31020296CFFF7D0FE002810D0C4
:1067400009490A4800F02CF900280AD069460420BB
:10675000FFF782FA002804D0009810F0A00F01D0B3
:10676000002038BD012038BD01005FA0F0ED00E041
:1067700038B5082806D10A4A13688B4201D1012096
:1067800038BD116000F00C0404226846FDF776FC69
:1067900069462046FFF7C0FC0128F1D0002038BD33
:1067A0002407002038B5082806D10A4A13688B420E
:1067B00001D1012038BD116000F00C0404226846AC
:1067C000FDF768FC69462046FFF7B5FC0128F1D0CB
:1067D000002038BD2C07002038B5082806D10A4A09
:1067E00013688B4201D1012038BD116000F00C0408
:1067F00004226846FDF75AFC69462046FFF7AAFCCA
:106800000128F1D0002038BD340700202DE9F041E7
:1068100014460D46064608E029783046FFF7D0FDBD
:10682000002827D0641E6D1C761C14B3B007F3D16A
:1068300011E0C6F30900C0F58067BC4201D224F024
:1068400003073A4629463046FFF730FD002811D0AD
:106850003E443D44E41B032CEBD808E02978304645
:10686000FFF7AEFD002805D0641E6D1C761C002CC1
:10687000F4D10120BDE8F0812DE9F04114460D4628
:10688000064608E029783046FFF7B0FD002827D0FB
:10689000641E6D1C761C14B3B007F3D111E0C6F36F
:1068A0000900C0F58067BC4201D224F003073A46D4
:1068B00029463046FFF728FD002811D03E443D44CC
:1068C000E41B032CEBD808E029783046FFF78EFD57
:1068D000002805D0641E6D1C761C002CF4D101200C
:1068E000BDE8F0812DE9F04114460D46064608E06A
:1068F00029783046FFF790FD002827D0641E6D1CD4
:10690000761C14B3B007F3D111E0C6F30900C0F54B
:106910008067BC4201D224F003073A46294630463C
:10692000FFF720FD002811D03E443D44E41B032C1A
:10693000EBD808E029783046FFF76EFD002805D037
:10694000641E6D1C761C002CF4D10120BDE8F08182
:1069500070B50C46054607490020FFF70BFC0028E0
:1069600006D021462846FFF7DFFD002800D0012091
:1069700070BD00005200002370B50C460546074963
:106980000020FFF72BFC002806D021462846FFF701
:10699000EAFD002800D0012070BD00005200002355
:1069A00070B50C46054607490020FFF74BFC002850
:1069B00006D021462846FFF7F5FD002800D001202B
:1069C00070BD0000520000232DE9FC410546012066
:1069D000FFF722FA70B3204EF369D3E90B02596B2B
:1069E000FFF714FF48B30127002477600094019457
:1069F000F06923462A4650F81C1BFEF7DFFA776041
:106A000000940194F06900232A46C1681C30FEF707
:106A1000D5FA0120FFF700FAB0B130682844A0F1A0
:106A20008070010BA5F18075280BFDF73BF8002065
:106A3000BDE8FC81094AE82108E0084AEF2108483E
:106A4000F9F7B6FC0520F3E7044AFB2105A0F9F7A6
:106A5000AFFC0420ECE70000F4060020C38A000825
:106A6000C08D00085B2E2E5C535744505C53574436
:106A70005F666C6173682E635D5B4C696E65A3BA7B
:106A800025645D5B25735DA3BA74617267657420CC
:106A9000636F6E6E656374204661756C740D0A0DCC
:106AA0000A0000002DE9FC4105460120FFF728FA05
:106AB00070B3214E736AD3E90B02596BFFF7DCFE0A
:106AC00050B301270024F76000940194706A2346B4
:106AD0002A4650F81C1BFEF72FFBF7600094019428
:106AE000706A00232A46C1681C30FEF725FB01208E
:106AF000FFF706FAC0B1B0682844A0F18070010B1E
:106B0000A5F18075280BFDF733F80020BDE8FC8166
:106B10000A4A40F231210AE0084A4FF40E7108484F
:106B2000F9F746FC0520F1E7044A4FF4117105A07E
:106B3000F9F73EFC0420E9E7F4060020158B000875
:106B4000C08D00085B2E2E5C535744505C53574455
:106B50005F666C6173682E635D5B4C696E65A3BA9A
:106B600025645D5B25735DA3BA74617267657420EB
:106B7000636F6E6E656374204661756C740D0A0DEB
:106B80000A0000002DE9FC4105460120FFF72CFA20
:106B900070B3214EF36AD3E90B02596BFFF7A2FEE3
:106BA00050B301270024776100940194F06A2346D2
:106BB0002A4650F81C1BFEF77DFB77610094019478
:106BC000F06A00232A46C1681C30FEF773FB0120DF
:106BD000FFF70AFAC0B130692844A0F18070010BB8
:106BE000A5F18075280BFDF729F80020BDE8FC8190
:106BF0000A4A40F27A310AE0084A40F281310848F4
:106C0000F9F7D6FB0520F1E7044A40F28D3105A0E3
:106C1000F9F7CEFB0420E9E7F4060020678B0008B3
:106C2000C08D00085B2E2E5C535744505C53574474
:106C30005F666C6173682E635D5B4C696E65A3BAB9
:106C400025645D5B25735DA3BA746172676574200A
:106C5000636F6E6E656374204661756C740D0A0D0A
:106C60000A0000002DE9FC411B4C07461646E0696E
:106C7000806AFFF7CBFDC8B1E06900253346816A21
:106C8000CDE9001501693A461C30FEF797F9A8B125
:106C9000E06933463A46816ACDE9001581691C30C6
:106CA000FEF78CF978B10020BDE8FC810B4A40F278
:106CB00017110B48F9F77CFB0620F5E7074A40F26D
:106CC0002311084803E0054A40F22F110648F9F75E
:106CD0006FFB0C20E8E70000F4060020ED8A0008B6
:106CE000588E00087C8D0008148E00082DE9FC41A8
:106CF0001B4C07461646606A806AFFF7BDFDC8B1A7
:106D0000606A00253346816ACDE9001501693A467B
:106D10001C30FEF711FAA8B1606A33463A46816A20
:106D2000CDE9001581691C30FEF706FA78B1002024
:106D3000BDE8FC810B4A4FF418710B48F9F738FB9A
:106D40000620F5E7074A4FF41B71084803E0054A9F
:106D50004FF41E710648F9F72BFB0C20E8E7000002
:106D6000F40600203F8B0008588E00087C8D000838
:106D7000148E00082DE9FC411B4C07461646E06ABC
:106D8000806AFFF7AFFDC8B1E06A00253346816A2B
:106D9000CDE9001501693A461C30FEF78BFAA8B11F
:106DA000E06A33463A46816ACDE9001581691C30B4
:106DB000FEF780FA78B10020BDE8FC810B4A40F272
:106DC000A9310B48F9F7F4FA0620F5E7074A40F233
:106DD000B531084803E0054A40F2C1310648F9F7E9
:106DE000E7FA0C20E8E70000F4060020918B000889
:106DF000588E00087C8D0008148E000808B5064CDB
:106E00004FF0FF35012300951A461946A06900F09E
:106E10004FFFFEF70DF8F5E70000002008B5064C1F
:106E20004FF0FF35012300951A460221A06900F0BA
:106E30003FFFFEF73FF8F5E70000002008B5064CDD
:106E40004FF0FF35012300951A460421A06900F098
:106E50002FFFFEF771F8F5E7000000200B4910B591
:106E6000094AC1E9002000208860C8600861886183
:106E70000C2048610846FAF756FDBDE81040012293
:106E800003490248FAF7BCBD001001407808002011
:106E90003C00002010B5214886B00024016841F470
:106EA00080210160006800F4802005901B481038A4
:106EB000016841F0020101600068694600F00200CB
:106EC00005904FF440600090022001900120029054
:106ED00003200390072004901148F9F7F7FD1148AB
:106EE000016841F0200101602720F9F724FF012209
:106EF00005212720F9F72AFF0A490B480C390160C0
:106F00004FF4E121C0E90114C4600C210461C0E91F
:106F10000514C461FAF707FD06B010BD4038024001
:106F2000000402400C480040A00E0020D0E90132CD
:106F300001699A60D0E901235A604A68824201D10E
:106F400082684A60002202610868401E086070473B
:106F50002DE9F04717460A4606460024202500F092
:106F60005DFCDFF88C80D8F8080082423AD3DFF865
:106F700084906D1E05EB850104EBC40009EB8101D3
:106F800006EB80000122FDF78CFB0444002DF0D1BC
:106F900004EBC40006EB800002224546D8F834100A
:106FA000FDF77FFB044404EBC40006EB80000222E3
:106FB000A96BFDF776FB044404EBC40006EB8000EC
:106FC00004220D49FDF76DFB04440B4904EBC4009A
:106FD00006EB800003221431FDF763FB04440FB17C
:106FE0000020386001F004FC2046BDE8F087000076
:106FF0003C070020D4A5012090A80120044908687E
:107000000A688069D26A0968C2F120028A61704701
:107010003C07002000F0ECBD00F108014FF0FF320A
:10702000C0E90112C16001610021016070470021C7
:107030000161704730B50C68621C02D000F1080293
:1070400002E0026904E01A4653681D68A542FAD9B5
:1070500053684B6099608A60516008610168491CFF
:10706000016030BD42684A6093688B6093685960E4
:10707000916008610168491C01607047502080F3ED
:107080001188BFF34F8FBFF36F8F09494868401CC9
:10709000486001280AD10748006810F0FF0F05D0AA
:1070A00040F2B91204A10FA0F9F782B970470000AD
:1070B0008C07002004ED00E02E2E5C4672656552C0
:1070C000544F535C706F727461626C655C525644CD
:1070D000535C41524D5F434D34465C706F72742E69
:1070E000630000004572726F723A25732C25640D9F
:1070F0000A00000010B5084C606828B94FF4E0722F
:1071000006A111A0F9F754F96068401E606001D132
:1071100080F3118810BD00008C0700202E2E5C46E5
:1071200072656552544F535C706F727461626C6526
:107130005C525644535C41524D5F434D34465C7043
:107140006F72742E630000004572726F723A25737D
:107150002C25640D0A00000070B500282AD0164DB9
:10716000A0F108046068E968084205D140F23F12C6
:1071700012A11CA0F9F71CF9206828B14FF4A072E5
:107180000EA118A0F9F714F96068E968084211D057
:107190002268002A0ED18843606000F03FFB6068DF
:1071A0006968084468602046FDF72CFABDE8704025
:1071B00001F01EBB70BD0000980700202E2E5C461B
:1071C00072656552544F535C706F727461626C6586
:1071D0005C4D656D4D616E675C686561705F342EF6
:1071E000630000004572726F723A25732C25640D9E
:1071F0000A000000054814210068B0FBF1F14FF0CF
:10720000E020491E41610721016170471C000020F8
:1072100010B5F9F7A7F8104C10280CD300F1E020B6
:1072200090F8F0032178884205D24FF440720BA108
:1072300015A0F9F7BDF818480068A16800F4E060EF
:10724000884207D9BDE810404FF4447203A10EA054
:10725000F9F7AEB810BD00008C0700202E2E5C465A
:1072600072656552544F535C706F727461626C65E5
:107270005C525644535C41524D5F434D34465C7002
:107280006F72742E630000004572726F723A25733C
:107290002C25640D0A0000000CED00E010B5074B32
:1072A000002253F832401CB1521C082AF9D310BDF9
:1072B00043F8321003EBC201486010BD94A50120D1
:1072C00070B515460E460446FFF7D8FE94F94410F3
:1072D0000020491C01D184F8440094F94510491C50
:1072E00001D184F84500FFF705FFA06B28B92A46B5
:1072F000314604F1240000F07BF92046BDE87040DF
:10730000FDF7CABB10B5040012D00E49096B29B1B4
:1073100040F2CF420CA111A0F9F74AF800F07EFA32
:1073200000212046FCF78EFF01F062FA002807D109
:107330000E494FF080500860BFF34F8FBFF36F8F3F
:1073400010BD00003C0700202E2E5C467265655281
:10735000544F535C7461736B732E63004572726F8C
:10736000723A25732C25640D0A00000004ED00E03C
:1073700070B50446FFF782FE234D04B92C68201D2A
:10738000FFF7D4FD58B9E06A204A00EB800152F8BB
:10739000211021B901218140286988432861A06A10
:1073A00018B104F11800FFF7C1FD686A401C68625B
:1073B0002868844207D1211D1548FFF753FE6868ED
:1073C000401C686007E0A868401EA8602046FDF7E2
:1073D00074F8FDF7B7FAFFF78DFE6869002812D040
:1073E000286884420FD1286B28B140F2654209A178
:1073F0000DA0F8F7DDFF10494FF080500860BFF393
:107400004F8FBFF36F8F70BD3C070020D4A50120C4
:1074100090A801202E2E5C4672656552544F535C35
:107420007461736B732E63004572726F723A2573C9
:107430002C25640D0A00000004ED00E02DE9F04762
:107440001E4691460C4607000ED0054605F1340055
:10745000C4E90050E86A2061286BE061686CA060B4
:10746000207B032803D00AE014480568EEE700F00B
:10747000D5F9A86A08B10220207301F0B9F94FF0DC
:107480000008E86CC4E90508052E01D0267303E066
:107490003846FCF7A5FD2073B9F1000F0BD0002191
:1074A000286B01E0401C491C0278A52AFAD0880804
:1074B0002084BDE8F087A4F82080FAE73C0700208C
:1074C0002DE9FF410027054607702C48816802918D
:1074D000806800EBC0008000FDF71AFB06004BD06F
:1074E00000220299FFF734FDCDE9020738463AE061
:1074F00000EBC00006EB8001087B01280FD00228BA
:107500000FD003280FD004280FD000244968284644
:10751000F9F787F82846F9F7A8F8202109E052245E
:10752000F4E74224F2E75324F0E74424EEE7295439
:10753000401C0F28FBD32F540544039800EBC000D8
:1075400006EB80008268018CCDE9001203692246B7
:107550000BA12846F8F738FF2846F9F786F80544C6
:107560000398401C039002998842C1D304B030466E
:10757000BDE8F041FFF7F0BDBDE8FF813C0700200A
:107580000925630925750925750925750D0A00006A
:1075900001490120C86170473C07002070B50D46C5
:1075A000040005D140F6073207A10CA0F8F700FF50
:1075B0000E48016820461831FFF73CFD2846BDE81B
:1075C00070400121FCF73EBE2E2E5C46726565526E
:1075D000544F535C7461736B732E63004572726F0A
:1075E000723A25732C25640D0A0000003C07002028
:1075F00070B514460E46050005D140F6323209A199
:107600000DA0F8F7D5FE1048016828461831FFF79D
:1076100029FD0CB14FF0FF3621463046BDE87040E1
:10762000FCF710BE2E2E5C4672656552544F535CBB
:107630007461736B732E63004572726F723A2573B7
:107640002C25640D0A0000003C0700202DE9F041C4
:1076500017460E46050005D140F618320DA112A0BE
:10766000F8F7A6FE144C206B28B940F61C3209A18D
:107670000DA0F8F79DFE216846F000408861216862
:1076800028461831FFF7EEFC3846BDE8F0410121ED
:10769000FCF7D8BD2E2E5C4672656552544F535C84
:1076A0007461736B732E63004572726F723A257347
:1076B0002C25640D0A0000003C07002070B5040072
:1076C00039D01D4DE06A2968C96A884233D2A06961
:1076D000002804DB2868C06AC0F12000A061E06ACD
:1076E000164E00EB8000616906EB800081421FD1DD
:1076F000201DFFF71BFC012150B9E06A00EB80025E
:1077000056F8222022B92A6901FA00F082432A6140
:107710002868C06AE0622A6981401143296100EB50
:10772000800006EB8000211DBDE87040FFF79ABC89
:107730002868C06AE06270BD3C070020D4A5012023
:1077400010B5040005D140F6C23205A109A0F8F732
:107750002FFE0C48016A2160C068606010BD000007
:107760002E2E5C4672656552544F535C7461736B88
:10777000732E63004572726F723A25732C25640D67
:107780000A0000003C0700201CB517480024CDE982
:1077900000402346822215A1164800F083FE0128EE
:1077A00003D101F0D1F801280AD0401C1BD102B04E
:1077B00040F28572BDE810400FA114A0F8F7F8BDA3
:1077C000502080F31188BFF34F8FBFF36F8F0648AF
:1077D0004FF0FF312C38816201214161C460BDE866
:1077E0001C4000F0F5BA1CBD6807002049444C4518
:1077F000000000001D4500082E2E5C467265655293
:10780000544F535C7461736B732E63004572726FD7
:10781000723A25732C25640D0A0000000248016BA2
:10782000491C0163704700003C07002070B5134DF0
:10783000286B10B10120E86170BD0020E861286963
:107840000F4EB0FA80F0C0F11F0000EB800456F834
:10785000240028B940F6F7220AA10FA0F8F7A8FDE6
:1078600006EB840000F108024168496841609142DA
:1078700001D149684160C868286070BD3C0700209C
:10788000D4A501202E2E5C4672656552544F535C80
:107890007461736B732E63004572726F723A257355
:1078A0002C25640D0A0000002DE9F043ADF20C4DCB
:1078B000FDF7F2F9AA4C6078012875D1A949A1F524
:1078C0002170FAF7D2FA00286FD1A64801785A2918
:1078D0000AD14178A0F52175A0F17C0905F10807CE
:1078E000A42902D0A52971D034E1017A04264FF0F1
:1078F000E878202904D022291CD0212956D029E15A
:107900004046FBF72FFF6A8841463846FCF70EF8E1
:10791000042241460DF20440FBF78EFFDDF804041B
:107920004146000E06EB80028E4862615438FBF738
:1079300083FFCCE0042241460DF20440FBF77CFFBC
:10794000DDF804044146000E06EB800285486261C2
:107950005438FBF771FF5A202870A42068708149C1
:10796000626900206A80543903E00B5C2C18401CCB
:1079700023729042F9D37C487E9000F58A614FF4DF
:10798000FC726846F8F790FE4FF4027277497FA8C0
:10799000F8F78AFE7FAC94E80F00FAF798FA688847
:1079A000083081B27048D3E0D6E0CEE0017B0129F7
:1079B0000DD0022910D0032914D0042918D005298C
:1079C0001CD0202920D0212924D029E083E04FF4A5
:1079D0008001A161002122E04FF41001A1614FF468
:1079E000A0011CE04FF46001A1614FF4200116E0FA
:1079F0004FF09871A1614FF4700110E04FF0C07129
:107A0000A1614FF0A0710AE04FF0D071A1614FF079
:107A1000C87104E04FF0E071A1614FF0D871E161ED
:107A2000C17C827C090641EA0241427C41EA022192
:107A300010F8102F1143C9F80010C1798279090696
:107A400041EA0241427941EA022102791143C9F82F
:107A50000410C17A827A090641EA0241427A41EA77
:107A60000221027A1143C9F80810C17B827B090602
:107A700041EA0241427B41EA0221027B1143C9F8FB
:107A80000C10C17C827C090641EA0241427C007CE8
:107A900041EA022101433348C9F810101421683823
:107AA000F8F781FEA069FBF75DFE2E4814227C38B2
:107AB000A169FBF73BFF002505E0E0692844FBF7DF
:107AC00051FE05F58055D9F80000A842F5D82448A4
:107AD0000421801D3CE0234E683EF068401CF060AD
:107AE000D9F80C10884235D8D9F80810E269401E40
:107AF00000FB01216A883846FBF718FFF068D9F8C7
:107B00000810E269401E00FB01216A883846FBF735
:107B100093FE6988306842180020326005E02C1816
:107B20007368247A401C234473608142F7DCF16857
:107B3000D9F80C3048469942C9D101688A4204D12B
:107B40007168D9F804008142C1D0054804210A3087
:107B5000FCF762FBFDF754F90DF20C4DBDE8F08324
:107B60004800002064110020A00A0020E00E002040
:107B700070B50E46040005D140F2DF120AA111A033
:107B8000F8F716FC300E05D04FF4F07206A10DA0E8
:107B9000F8F70EFCFFF772FA256825EA0600206068
:107BA000FFF7A8FA284670BD2E2E5C467265655216
:107BB000544F535C6576656E745F67726F75707352
:107BC0002E6300004572726F723A25732C25640D86
:107BD0000A00000010B51C20FCF79AFF040004D036
:107BE00000202060201DFFF717FA204610BD00007E
:107BF0002DE9F04100258846040005D140F21D2200
:107C00001CA123A0F8F7D4FB5FEA186005D040F26E
:107C10001E2218A11EA0F8F7CBFB261D04F10C07AD
:107C2000FFF7FCFD2168F06841EA0801216017E0D8
:107C3000D0E9001601F07F425301236821F07F4113
:107C400002D40B4203D10AE031EA030307D1D20187
:107C500000D50D43216841F0007100F07DFD3046F4
:107C6000B842E5D12068A843206000F0C1FD20683B
:107C7000BDE8F0812E2E5C4672656552544F535C10
:107C80006576656E745F67726F7570732E63000042
:107C90004572726F723A25732C25640D0A0000003C
:107CA00013460A460146014800F0D0BE1570000890
:107CB0002DE9F047089F9A4691460D4604004FF083
:107CC000000605D140F24D1235A13CA0F8F770FB3B
:107CD000280E05D04FF4A77231A138A0F8F768FB41
:107CE0002DB940F24F122EA134A0F8F761FB00F03D
:107CF00005FC30B92FB14FF4A97229A12FA0F8F7D4
:107D000057FBFFF78BFDD4F80080524629464046CA
:107D1000FCF7A4FE40B100274646B9F1000F15D08C
:107D20002068A843206011E0AFB1B9F1000F01D085
:107D30004FF08076BAF1000F01D046F0806645EA38
:107D400006013A46201DFFF781FC002600F050FD99
:107D50001FB310B109E04646F8E71C494FF08050C8
:107D60000860BFF34F8FBFF36F8FFFF747F90646E9
:107D7000800110D4FFF782F9266852462946304622
:107D8000FCF76CFE28B1B9F1000F02D02068A843BF
:107D90002060FFF7AFF926F07F463046BDE8F08758
:107DA0002E2E5C4672656552544F535C6576656E47
:107DB000745F67726F7570732E6300004572726F27
:107DC000723A25732C25640D0A00000004ED00E0D2
:107DD0001CB5304C20683049884205D140F2591218
:107DE0002EA139A0F8F7E4FA20682B49491E8842F1
:107DF00005D14FF4AD7229A133A0F8F7D9FA364C6A
:107E000020780190FF20207020788DF800009DF8E8
:107E100000009DF8001000F0F000884205D040F20C
:107E200073121EA128A0F8F7C3FA9DF800002B4A90
:107E300000F0500010700720906007E09068401E2E
:107E400090609DF8000040008DF800009DF8000053
:107E50000006F3D4107A000200F4E060906001980C
:107E600020700C482030016841F470010160016805
:107E700041F070410160FFF7BDF900205060F8F754
:107E800039FA1748016841F040410160F8F722FAD9
:107E900000201CBD00ED00E071C20F412E2E5C469B
:107EA00072656552544F535C706F727461626C6599
:107EB0005C525644535C41524D5F434D34465C70B6
:107EC0006F72742E630000004572726F723A2573F0
:107ED0002C25640D0A00000000E400E08C0700205F
:107EE00034EF00E010B5502080F31188BFF34F8FBE
:107EF000BFF36F8F00F016FB18B104494FF08050AC
:107F00000860002080F3118810BD000004ED00E03F
:107F10002DE9F04117460E46050005D14FF4C47215
:107F200010A115A0F8F744FABEB105FB06F05430D5
:107F3000FCF7EEFD04000ED004F154007EB1206089
:107F4000C4E90F562046012100F0E0F884F8507093
:107F500000212046A164BDE8F0810020E7E724600D
:107F6000EEE700002E2E5C4672656552544F535C5E
:107F700071756575652E63004572726F723A25736F
:107F80002C25640D0A0000002DE9FF4F83B09B46AD
:107F90008A4604004FF0000605D140F2DC4251A1B0
:107FA00055A0F8F705FABAF1000F07D1206C28B1F7
:107FB00040F2DD424BA150A0F8F7FAF900F09EFA2A
:107FC00038B9059828B14FF49C6246A14AA0F8F749
:107FD000EFF94FF000094FF08057DFF82C81FFF7E1
:107FE0004DF8A56B45B351462046E668FCF71CFAF0
:107FF000BBF1000F13D0E660606A50B104F12400B9
:1080000000F05EFB28B1C8F80070BFF34F8FBFF3DC
:108010006F8FFFF76FF8012007B0BDE8F08F6D1E7E
:10802000A563206810B9FCF7FDFD60602069002899
:10803000EFD004F11000E3E7059808B11EB106E0A7
:10804000FFF758F827E06846FFF77AFB0126FFF7AD
:1080500051F8FFF7E3FBFFF711F894F94400401CD7
:1080600001D184F8449094F94500401C01D184F872
:108070004590FFF73FF805A9684600F0CFF90028C2
:1080800020460AD0FCF708FD00F0B2FB2046FCF7C2
:10809000FBFA0028A3D00020BEE7FCF7F5FAD8B120
:1080A000206830B9FEF7EAFF6068FFF707FBFFF7CB
:1080B00021F804F124000599FFF770FA2046FCF737
:1080C000EBFC00F095FB002889D1C8F80070BFF3E5
:1080D0004F8FBFF36F8F82E72046FCF7DDFC00F087
:1080E00087FB7CE72E2E5C4672656552544F535CCD
:1080F00071756575652E63004572726F723A2573EE
:108100002C25640D0A00000004ED00E070B50D465A
:10811000040005D140F21B121CA121A0F8F748F978
:10812000FEF7ACFFD4E90F20216802FB001161606B
:108130000021A1632168A1600A46D4E90F01401E15
:1081400000FB0121E16021464FF0FF3001F8440FB0
:10815000487004F110004DB1FEF75EFF04F12400F9
:10816000FEF75AFFFEF7C6FF012070BD2169002906
:10817000F8D000F0A5FA0028F4D00D494FF0805057
:108180000860BFF34F8FBFF36F8FEBE72E2E5C4677
:1081900072656552544F535C71756575652E630049
:1081A0004572726F723A25732C25640D0A00000027
:1081B00004ED00E02DE9FF4F83B099468B460400A3
:1081C0004FF0000605D140F2D92252A156A0F8F78F
:1081D000EFF8BBF1000F07D1206C28B140F2DA2292
:1081E0004CA151A0F8F7E4F8B9F1020F08D1E06B07
:1081F000012805D040F2DB2246A14BA0F8F7D8F8C1
:1082000000F07CF938B9059828B140F2DE2241A18E
:1082100045A0F8F7CDF84FF0000A4FF08057DFF88F
:108220001881FEF72BFFA06BE16B884206D3B9F1F2
:10823000020F03D0059800B316B325E04A4659460D
:108240002046FCF704F9A16C21B149462046FCF711
:1082500053FA05E0616A19B104F1240000F030FA24
:1082600028B1C8F80070BFF34F8FBFF36F8FFEF7D0
:1082700041FF012007B0BDE8F08FFEF73BFF21E092
:108280006846FFF75DFA0126FEF734FFFFF7C6FAEE
:10829000FEF7F4FE94F94400401C01D184F844A098
:1082A00094F94500401C01D184F845A0FEF722FF57
:1082B00005A9684600F0B2F830B12046FCF7ECFBA7
:1082C00000F096FA0020D5E7FEF7D8FEA06BE16B30
:1082D000884201D1012500E00025FEF70BFF95B192
:1082E00004F110000599FFF759F92046FCF7D4FB7B
:1082F00000F07EFA002894D1C8F80070BFF34F8FC9
:10830000BFF36F8F8DE72046FCF7C6FB00F070FAD5
:1083100087E700002E2E5C4672656552544F535C11
:1083200071756575652E63004572726F723A2573BB
:108330002C25640D0A00000004ED00E02DE9F04753
:10834000984615468946040005D140F29F322AA17D
:108350002EA0F8F72DF8B9F1000F07D1206C28B145
:108360004FF4687224A129A0F8F722F8B8F1020F9F
:1083700008D1E06B012805D040F2A1321EA123A054
:10838000F8F716F8FEF744FF5020EFF3118780F35B
:108390001188BFF34F8FBFF36F8FA06BE16B8842E3
:1083A00007D3B8F1020F04D0002087F31188BDE88D
:1083B000F08794F94560424649462046FCF747F865
:1083C000701C04D0761C84F845600120EDE7A06C99
:1083D000012620B141462046FCF78EF906E0606A8E
:1083E0000028F2D004F1240000F06AF90028ECD053
:1083F000002DEAD02E60E8E72E2E5C4672656552AD
:10840000544F535C71756575652E63004572726FCC
:10841000723A25732C25640D0A00000070B50D46D4
:10842000040005D140F6CC3214A119A0F7F7C0FF23
:108430002DB940F6CD3211A115A0F7F7B9FFFEF71F
:108440001DFE174AD06829684B1C0FD02368126A9A
:10845000934202D0626882420AD96268801A8842D6
:1084600006D2081A28602046FFF76AF9002400E0C7
:108470000124FEF73FFE204670BD00002E2E5C4614
:1084800072656552544F535C7461736B732E630055
:108490004572726F723A25732C25640D0A00000034
:1084A0003C0700202DE9FF5F8346DDE90E879946F2
:1084B00016468A469000FCF72BFB05001AD05C207C
:1084C000FCF726FB040012D025630021CDE9024110
:1084D000CDE900874B46324651465846FCF732F804
:1084E0002046FBF7E7FE012004B0BDE8F09F2846D8
:1084F000FEF732FE4FF0FF30F6E700000548416915
:1085000019B1006B18B1002070470120704702209C
:10851000704700003C0700200148C0687047000019
:108520003C0700202DE9F0412D4F0026386B40B16B
:10853000B869401CB861F86900B101263046BDE851
:10854000F081FD686D1CFD6011D1786B006828B169
:1085500040F6DA1223A128A0F7F72AFF786BB96B4F
:108560007963B863386A401C3862FCF7EBF9B86A83
:10857000DFF89480854209D3786B006880B1786B0E
:10858000C068C468606885420DD2B8623868C06A45
:1085900000EB800158F821000128CCD90126CAE758
:1085A0004FF0FF30F1E7201DFEF7C0FCA06A18B1C4
:1085B00004F11800FEF7BAFCE06A01213A69814033
:1085C0001143396100EB800108EB8100211DFEF7AA
:1085D00049FDE06A3968C96A8842CDD30126CBE7F4
:1085E0003C0700202E2E5C4672656552544F535C4A
:1085F0007461736B732E63004572726F723A2573E8
:108600002C25640D0A000000D4A5012070B50400DB
:108610004FF000063CD01F4D2868844205D040F63C
:10862000C8621DA121A0F7F7C3FE206D28B940F64E
:10863000CA6219A11DA0F7F7BBFE206D401E206580
:10864000E26CE16A914223D010BB201DFEF76EFC64
:108650001A49012250B9E06A00EB800351F8233037
:1086600023B92B6902FA00F083432B61E06CE062CE
:10867000C0F12000A061E06A2B6982401A432A61A0
:1086800000EB800001EB8000211DFEF7EBFC0126D2
:10869000304670BD3C0700202E2E5C467265655248
:1086A000544F535C7461736B732E63004572726F29
:1086B000723A25732C25640D0A000000D4A5012010
:1086C0002DE9F041C068C4682CB940F6623216A1A9
:1086D0001AA0F7F76DFE04F118000746FEF726FC16
:1086E0001A4D286B012660B139461948FEF7BAFCCD
:1086F000E06A2968C96A884213D90120EE61BDE8A1
:10870000F081201DFEF712FCE06A2A6906FA00F1EA
:10871000114329610F4900EB800001EB8000211D0E
:10872000E4E70020EBE700002E2E5C467265655200
:10873000544F535C7461736B732E63004572726F98
:10874000723A25732C25640D0A0000003C070020B6
:108750007CA80120D4A5012070B51A4D06460C4610
:10876000286B28B940F69A3217A11CA0F7F720FE13
:1087700044F000403060F4682CB940F6A23212A1F7
:1087800016A0F7F715FE3046FEF7D0FB201DFEF7CA
:10879000CDFBE06A01262A6906FA00F1114329613E
:1087A000124900EB800001EB8000211DFEF75AFC0E
:1087B000E06A2968C96A884202D90120EE6170BD69
:1087C000002070BD3C0700202E2E5C46726565526D
:1087D000544F535C7461736B732E63004572726FF8
:1087E000723A25732C25640D0A000000D4A50120DF
:1087F0002DE9F0472B4D00242746286B28B940F27D
:10880000E97229A12DA0F7F7D3FDFEF737FC286BFD
:10881000401E2863286BE8BBA8682C490126C8B312
:10882000A1F52A798846D8F80010E9B1D8F80C00EB
:10883000C46804F11800FEF779FB201DFEF776FBF3
:10884000E06A2A6906FA00F11143296100EB800110
:1088500009EB8100211DFEF705FCE06A2968C96A61
:108860008842E0D3EE61DEE70CB1FCF76BF8AC694F
:108870003CB1FFF757FE00B1EE61641EF9D1002054
:10888000A861E86930B11249012738070860BFF3D1
:108890004F8F00E001E0BFF36F8FFEF72BFC3846EF
:1088A000BDE8F0873C0700202E2E5C4672656552BD
:1088B000544F535C7461736B732E63004572726F17
:1088C000723A25732C25640D0A0000007CA8012053
:1088D00004ED00E02DE9F0470746994616460D469F
:1088E0002C20DDF820A0FCF713F9040014D0B846C2
:1088F0004F46D1462DB94FF4C67209A10EA0F7F725
:1089000057FDFBF73FFD04F11801C4F8008081E832
:10891000E002201DFEF78BFB2046BDE8F08700003B
:108920002E2E5C4672656552544F535C74696D65BA
:1089300072732E63000000004572726F723A2573E5
:108940002C25640D0A0000001CB50024FBF71AFD5D
:108950000C48006868B10B491F20091DCDE90001D2
:1089600000234FF4827208A10948FFF79BFD040021
:1089700005D140F2331207A10CA0F7F719FD2046EC
:108980001CBD000078070020546D722053766300F0
:10899000714A00082E2E5C4672656552544F535C36
:1089A00074696D6572732E63000000004572726F0A
:1089B000723A25732C25640D0A0000002DE9FF474B
:1089C000DDF830A0994690460D4606004FF00007AE
:1089D00005D14FF4D37212A117A0F7F7E9FC1A4C96
:1089E000206880B1CDE900580296062D11DAFFF714
:1089F00085FD02284FF0000309D000226946206857
:108A0000FFF7D8FB074604B03846BDE8F08752466A
:108A1000F4E700234A466946FFF790FCF2E70000BE
:108A20002E2E5C4672656552544F535C74696D65B9
:108A300072732E63000000004572726F723A2573E4
:108A40002C25640D0A000000780700207FB56FF028
:108A5000010401AE009486E8070005481D46002386
:108A60002A4669460068FFF769FC04B070BD000043
:108A7000780700204FF04070E1EE100A70476D61FA
:108A8000696E0000000000010203040102030406F5
:108A90000708097377645F646F776E6C6F61646554
:108AA0005F31007377645F646F776E6C6F616465CC
:108AB0005F32007377645F646F776E6C6F616465BB
:108AC0005F33007461726765745F666C6173685FC1
:108AD000696E69745F31007461726765745F666C9A
:108AE0006173685F756E696E69745F31007461727D
:108AF0006765745F666C6173685F70726F677261DF
:108B00006D5F310050726F6772616D5F54617267A3
:108B100065745F31007461726765745F666C617360
:108B2000685F696E69745F32007461726765745F53
:108B3000666C6173685F756E696E69745F3200742C
:108B400061726765745F666C6173685F70726F678E
:108B500072616D5F320050726F6772616D5F546158
:108B6000726765745F32007461726765745F666C0A
:108B70006173685F696E69745F3300746172676501
:108B8000745F666C6173685F756E696E69745F337C
:108B9000007461726765745F666C6173685F7072A0
:108BA0006F6772616D5F330050726F6772616D5FE6
:108BB0005461726765745F33007377645F666C61DC
:108BC00073685F73797363616C6C5F657865635F0D
:108BD00031004A544147325357445F310073776440
:108BE0005F696E69745F64656275675F3100737792
:108BF000645F7365745F7461726765745F737461D9
:108C000074655F68775F31007377645F666C61736A
:108C1000685F73797363616C6C5F657865635F32FD
:108C2000004A544147325357445F32007377645FC0
:108C3000696E69745F64656275675F32007377643B
:108C40005F7365745F7461726765745F7374617478
:108C5000655F68775F32007377645F666C61736825
:108C60005F73797363616C6C5F657865635F330014
:108C70004A544147325357445F33007377645F6906
:108C80006E69745F64656275675F33007377645FF4
:108C90007365745F7461726765745F737461746522
:108CA0005F68775F330030313233343536373839E7
:108CB0004142434445464030580030313233343528
:108CC0003637383961626364656640307800000089
:108CD0005B2E2E5C48415244574152455C4B4559EE
:108CE0005C6B65792E635D5B4C696E65A3BA256428
:108CF0005D5B25735DA3BA746172676574206669F4
:108D0000726D776172652D25642070726F67726174
:108D10006D206661696C65640D0A0D0A0000000033
:108D20005B2E2E5C48415244574152455C4B45599D
:108D30005C6B65792E635D5B4C696E65A3BA2564D7
:108D40005D5B25735DA3BA746172676574206669A3
:108D5000726D776172652D25642070726F67726124
:108D60006D20737563636565642C2075736572206F
:108D700025646D730D0A0D0A000000005B2E2E5C49
:108D8000535744505C5357445F666C6173682E635D
:108D90005D5B4C696E65A3BA25645D5B25735DA35D
:108DA000BA74617267657420666C61736820707252
:108DB0006F6772616D204661756C740D0A0D0A0053
:108DC0005B2E2E5C535744505C5357445F666C6176
:108DD00073682E635D5B4C696E65A3BA25645D5B49
:108DE00025735DA3BA646F776E6C6F616420666CE7
:108DF0006173682070726F6772616D6D696E672054
:108E0000616C676F726974686D204661756C740D72
:108E10000A0D0A005B2E2E5C535744505C53574496
:108E20005F666C6173682E635D5B4C696E65A3BAA7
:108E300025645D5B25735DA3BA74617267657420F8
:108E4000666C617368207665726966792046617523
:108E50006C740D0A0D0A00005B2E2E5C53574450B3
:108E60005C5357445F666C6173682E635D5B4C694D
:108E70006E65A3BA25645D5B25735DA3BA746172E8
:108E8000676574207772697465206D656D6F72799E
:108E9000204661756C740D0A0D0A00005B2E2E5C75
:108EA000535744505C5357445F686F73742E635D2F
:108EB0005B4C696E65A3BA25645D5B25735DA3BADF
:108EC0007377645F726561645F776F72645F31208E
:108ED0004661756C74203078252E34580D0A0D0AC1
:108EE000000000005B2E2E5C535744505C535744E7
:108EF0005F686F73742E635D5B4C696E65A3BA2502
:108F0000645D5B25735DA3BA7377645F72656164AA
:108F10005F776F72645F32204661756C74203078C1
:108F2000252E34580D0A0D0A000000005B2E2E5C21
:108F3000535744505C5357445F686F73742E635D9E
:108F40005B4C696E65A3BA25645D5B25735DA3BA4E
:108F50007377645F726561645F776F72645F3320FB
:108F60004661756C74203078252E34580D0A0D0A30
:108F7000000000005B2E2E5C535744505C53574456
:108F80005F686F73742E635D5B4C696E65A3BA2571
:108F9000645D5B25735DA3BA5265616420494443F7
:108FA0004F4445204661756C74203078252E345826
:108FB0000D0A0D0A000000005B2E2E5C5357445032
:108FC0005C5357445F686F73742E635D5B4C696ECE
:108FD00065A3BA25645D5B25735DA3BA7377645F8F
:108FE000776169745F756E74696C5F68616C7465D4
:108FF000645F31204661756C660D0A0D0A00000041
:109000005B2E2E5C535744505C5357445F686F731C
:10901000742E635D5B4C696E65A3BA25645D5B2548
:10902000735DA3BA7377645F726561645F636F7227
:10903000655F72656769737465725F31204661753B
:109040006C660D0A0D0A00005B2E2E5C53574450CF
:109050005C5357445F686F73742E635D5B4C696E3D
:1090600065A3BA25645D5B25735DA3BA7377645FFE
:10907000776169745F756E74696C5F68616C746543
:10908000645F32204661756C660D0A0D0A000000AF
:109090005B2E2E5C535744505C5357445F686F738C
:1090A000742E635D5B4C696E65A3BA25645D5B25B8
:1090B000735DA3BA7377645F726561645F636F7297
:1090C000655F72656769737465725F3220466175AA
:1090D0006C660D0A0D0A00005B2E2E5C535744503F
:1090E0005C5357445F686F73742E635D5B4C696EAD
:1090F00065A3BA25645D5B25735DA3BA7377645F6E
:10910000776169745F756E74696C5F68616C7465B2
:10911000645F33204661756C660D0A0D0A0000001D
:109120005B2E2E5C535744505C5357445F686F73FB
:10913000742E635D5B4C696E65A3BA25645D5B2527
:10914000735DA3BA7377645F726561645F636F7206
:10915000655F72656769737465725F332046617518
:109160006C660D0A0D0A00005B2E2E5C53574450AE
:109170005C5357445F686F73742E635D5B4C696E1C
:1091800065A3BA25645D5B25735DA3BA7377645FDD
:10919000726561645F64705F312044505F43545274
:1091A0004C5F53544154204661756C740D0A0D0A8E
:1091B000000000005B2E2E5C535744505C53574414
:1091C0005F686F73742E635D5B4C696E65A3BA252F
:1091D000645D5B25735DA3BA7377645F77726974AE
:1091E000655F64705F312044505F4354524C5F535D
:1091F000544154204661756C740D0A0D0A0000003C
:109200005B2E2E5C535744505C5357445F686F731A
:10921000742E635D5B4C696E65A3BA25645D5B2546
:10922000735DA3BA7377645F726561645F64705F36
:10923000322044505F4354524C5F535441542046B3
:1092400061756C740D0A0D0A000000005B2E2E5C27
:10925000535744505C5357445F686F73742E635D7B
:109260005B4C696E65A3BA25645D5B25735DA3BA2B
:109270007377645F77726974655F64705F322044EE
:10928000505F4354524C5F53544154204661756CB7
:10929000740D0A0D0A0000005B2E2E5C53574450DB
:1092A0005C5357445F686F73742E635D5B4C696EEB
:1092B00065A3BA25645D5B25735DA3BA7377645FAC
:1092C000726561645F64705F332044505F43545241
:1092D0004C5F53544154204661756C740D0A0D0A5D
:1092E000000000005B2E2E5C535744505C535744E3
:1092F0005F686F73742E635D5B4C696E65A3BA25FE
:10930000645D5B25735DA3BA7377645F777269747C
:10931000655F64705F332044505F4354524C5F5329
:10932000544154204661756C740D0A0D0A0000000A
:109330005B2E2E5C535744505C5357445F686F73E9
:10934000742E635D5B4C696E65A3BA25645D5B2515
:10935000735DA3BA7377645F77726974655F6470D5
:109360005F312044505F53454C454354204661755E
:109370006C740D0A0D0A00005B2E2E5C535744508E
:109380005C5357445F686F73742E635D5B4C696E0A
:1093900065A3BA25645D5B25735DA3BA7377645FCB
:1093A00077726974655F64705F322044505F534523
:1093B0004C454354204661756C740D0A0D0A00003B
:1093C0005B2E2E5C535744505C5357445F686F7359
:1093D000742E635D5B4C696E65A3BA25645D5B2585
:1093E000735DA3BA7377645F77726974655F647045
:1093F0005F332044505F53454C45435420466175CC
:109400006C740D0A0D0A00005B2E2E5C53574450FD
:109410005C5357445F686F73742E635D5B4C696E79
:1094200065A3BA25645D5B25735DA3BA7377645F3A
:1094300077726974655F64705F312044505F534593
:109440004C454354206C617374204661756C740DF7
:109450000A0D0A005B2E2E5C535744505C53574450
:109460005F686F73742E635D5B4C696E65A3BA258C
:10947000645D5B25735DA3BA7377645F777269740B
:10948000655F64705F322044505F53454C454354E0
:10949000206C617374204661756C740D0A0D0A00AE
:1094A0005B2E2E5C535744505C5357445F686F7378
:1094B000742E635D5B4C696E65A3BA25645D5B25A4
:1094C000735DA3BA7377645F77726974655F647064
:1094D0005F332044505F53454C454354206C6173C7
:1094E00074204661756C740D0A0D0A000C95000815
:1094F00000000020B0070000E8010008909A000872
:10950000B0070020905F02004C020008021A000120
:109510007324F40B0009120102030406070809274B
:10952000720131135AA1040212A24B1318EF1F103B
:1095300025BE0AE00D782D0668400824400000D3BF
:109540005840641EFAD1491C521E002AF2D17047BD
:1095500040BA7047C00410074FEA300070477410DB
:109560001246D3484844006800F18070884201D90F
:10957000012016101320FCE778B503460C466E4612
:1095800003F0030010B90406102E08B1012078BDC5
:1095900000210CE058580090002505E0705C9042D6
:1095A00001D00120F3E76D1C042DF7D3091DA14262
:1095B000F0D30020EBE7103E3022BE484069C0F3F4
:1095C0000360BB4C4C44206020460068012802D058
:1095D00003280CD105E04FF48010B518120B0C30A5
:1095E000040010B20C31183300AF0C300E00BF0075
:1095F000BFAE48AD4C2060AE48A004301E204640AF
:109600006840F040006060AB48006820F08040C4D3
:10961000F8900100BFEFF31080A864100C72B60040
:109620002010BD01469F484020100840009D4A5030
:1096300060A02C12402C12C22C30069F48106010E3
:10964000464006200050609BF813B9623621F410A2
:109650001296492039086000219048C0F87411C062
:10966000F87804237C112E100604008B49489212CE
:1096700089D212000E20050028F9D0A01285E2211F
:109680001E300A834948614FF0FF308542B0040123
:10969000467F42215E140810B502460021A26410E4
:1096A0001A010B7C4820380B0A50F82300C1F3C480
:1096B000040123A34020EA0303761610080C0A4095
:1096C000F8243070BE300E764B18406E4B58600850
:1096D00003586018B26302000A12100A217E400784
:1096E00000BFBFF34F8F0A300400BF629C32029C60
:1096F000325F98F00802005D4B5861606E240D18CF
:10970000435B4B203B0C0A43F8240030E14C1250E1
:1097100080300640F008004EF4324C587201F410CC
:109720001E70472DE9F04D05460E4690464FEA96CD
:109730000B05F0070030B9B8F1000F03D0060C108C
:109740001400B916B90120BDE8F08DA5F180752C83
:109750000B0FE040DA122182140E2100C4F3C40280
:109760000121914088433B2A3014220A41F822000B
:109770000834A819401EB4EB103FEAD9317A3004FE
:1097800001002F7AC19618182F46C246002411E016
:109790004FF08070DAF80010C15107F01F001C5222
:1097A0003418601C584501D3FFF79BFF641C0AF175
:1097B000040A3F1D5C45EBD31E04140401001C9CED
:1097C00016084212205823486090621C9032109074
:1097D00010072090400143171416227EA3221090F8
:1097E000380400209ACA4D04035E010403180A10CD
:1097F000BD08E018681468A0FC18131846F7E71BAA
:109800001D121D091F0029F4D10020F0E71E155676
:109810001C1419403941545423016745AB89EFCDDD
:1098200090211940089B03AC09B28596B2FF0FC086
:10983000FFFF03100A8700102003011020390412D3
:1098400097041006630210204914BC055103102030
:10985000DD0322081014081020B00300006CB80FBC
:10986000280080EC032DCC033C140B436E469B0771
:1098700006D10BE0C4580094F55C002495BC031C91
:109880000E78BD641C042CF8D31B1D8B42F1BC0365
:10989000300C78BD7B48794901607A4981042C09F4
:1098A000416840221143416066033C0677494944C0
:1098B0000866032005704771481A12911A10066E47
:1098C00049C94301283220284E6E56034C04280013
:1098D000D158031010674A00204032106050609049
:1098E00060D06064361004042319281009416949C6
:1098F00007FCD541690C6006610020C04322215C51
:10990000103070B5410CC0034A01C60E5848931977
:10991000890009180C6C01252A46B24094430C6456
:1099200044687F263603B443446044681B039B1C91
:109930001C0A28094368102423434360C6100443CB
:10994000699B5A200443690212201661086C104377
:1099500008644A480168C90709D0016849084900F4
:10996000AE10088907FCD1016829BA11CE1413BDC5
:10997000F0B506468B08964640070AD1100008D07D
:10998000482A3038002904D0300B711884460C0B5B
:109990000DE00120F0BD41098A00334951180F6CD8
:1099A000C206D20E01259540AF430F64401C84428D
:1099B000F1D22D4D6868012108436884201D0021E3
:1099C00030467246082713E016680660C606F60E93
:1099D0001C2E02D04E1C9E4207D3A410226E683E5D
:1099E000436E606E69F607FCD0001D491C121D997C
:1099F00042E9D36869012210436861686890482091
:109A00000D60460AE04109890049190B6C42300893
:109A10001746B7403B430B70000415F2D215D23203
:109A200011D2140CF0BD034610B50B439B0708E49C
:109A3000180410BD03B01806A342FAD100AA1806F4
:109A4000121D0029F6AC1C0710BD4D7A694D0206A7
:109A50006A40A839BC6C045000406A0610065700E2
:109A600000307D0412A50412D90C10064B01003001
:109A70002908C8051D0200309C31101F30607F048A
:109A80005B58049C01990112AA01011A840000008C
:04000005080001AD41
:00000001FF
