Component: ARM Compiler 5.06 update 7 (build 960) Tool: armlink [4d3601]

==============================================================================

Section Cross References

    main.o(i.key_task) refers to key.o(i.key_scan) for key_scan
    main.o(i.main) refers to _printf_percent.o(.ARM.Collect$$_printf_percent$$00000000) for _printf_percent
    main.o(i.main) refers to _printf_d.o(.ARM.Collect$$_printf_percent$$00000009) for _printf_d
    main.o(i.main) refers to _printf_s.o(.ARM.Collect$$_printf_percent$$00000014) for _printf_s
    main.o(i.main) refers to _printf_dec.o(.text) for _printf_int_dec
    main.o(i.main) refers to _printf_str.o(.text) for _printf_str
    main.o(i.main) refers to stm32f4xx_hal.o(i.HAL_Init) for HAL_Init
    main.o(i.main) refers to sys.o(i.Stm32_Clock_Init) for Stm32_Clock_Init
    main.o(i.main) refers to delay.o(i.delay_init) for delay_init
    main.o(i.main) refers to usart.o(i.uart_init) for uart_init
    main.o(i.main) refers to led.o(i.LED_Init) for LED_Init
    main.o(i.main) refers to key.o(i.KEY_Init) for KEY_Init
    main.o(i.main) refers to thinktech_pack.o(i.usart3_init) for usart3_init
    main.o(i.main) refers to w25qxx.o(i.W25QXX_Init) for W25QXX_Init
    main.o(i.main) refers to noretval__2printf.o(.text) for __2printf
    main.o(i.main) refers to tasks.o(i.xTaskCreate) for xTaskCreate
    main.o(i.main) refers to tasks.o(i.vTaskStartScheduler) for vTaskStartScheduler
    main.o(i.main) refers to main.o(.constdata) for .constdata
==============================================================================

Removing Unused input sections from the image.

    Removing main.o(.rev16_text), (4 bytes).
    Removing main.o(.revsh_text), (4 bytes).
    Removing main.o(.rrx_text), (6 bytes).
    Removing main.o(.data), (4 bytes).
    Removing stm32f4xx_it.o(.rev16_text), (4 bytes).
    Removing stm32f4xx_it.o(.revsh_text), (4 bytes).
    Removing stm32f4xx_it.o(.rrx_text), (6 bytes).
    Removing system_stm32f4xx.o(.rev16_text), (4 bytes).
    Removing system_stm32f4xx.o(.revsh_text), (4 bytes).
    Removing system_stm32f4xx.o(.rrx_text), (6 bytes).
    Removing system_stm32f4xx.o(i.SystemCoreClockUpdate), (124 bytes).
    Removing stm32f4xx_hal.o(.rev16_text), (4 bytes).
    Removing stm32f4xx_hal.o(.revsh_text), (4 bytes).
    Removing stm32f4xx_hal.o(.rrx_text), (6 bytes).
    Removing stm32f4xx_hal.o(i.HAL_DBGMCU_DisableDBGSleepMode), (16 bytes).
    Removing stm32f4xx_hal.o(i.HAL_DBGMCU_DisableDBGStandbyMode), (16 bytes).
    Removing stm32f4xx_hal.o(i.HAL_DBGMCU_DisableDBGStopMode), (16 bytes).
    Removing stm32f4xx_hal.o(i.HAL_DBGMCU_EnableDBGSleepMode), (16 bytes).
==============================================================================

Image Symbol Table

    Local Symbols

    Symbol Name                              Value     Ov Type        Size  Object(Section)

    ../clib/angel/boardlib.s                 0x00000000   Number         0  boardinit1.o ABSOLUTE
    ../clib/angel/boardlib.s                 0x00000000   Number         0  boardinit2.o ABSOLUTE
    ../clib/angel/boardlib.s                 0x00000000   Number         0  boardinit3.o ABSOLUTE
    ../clib/angel/boardlib.s                 0x00000000   Number         0  boardshut.o ABSOLUTE
    ../clib/angel/dclz77c.s                  0x00000000   Number         0  __dclz77c.o ABSOLUTE
    ../clib/angel/handlers.s                 0x00000000   Number         0  __scatter_zi.o ABSOLUTE
    ../clib/angel/kernel.s                   0x00000000   Number         0  rtexit.o ABSOLUTE
    ../clib/angel/kernel.s                   0x00000000   Number         0  __rtentry4.o ABSOLUTE
    ../clib/angel/kernel.s                   0x00000000   Number         0  __rtentry2.o ABSOLUTE
    ../clib/angel/kernel.s                   0x00000000   Number         0  rtexit2.o ABSOLUTE
    ../clib/angel/kernel.s                   0x00000000   Number         0  __rtentry.o ABSOLUTE
    ../clib/angel/rt.s                       0x00000000   Number         0  rt_raise.o ABSOLUTE
    ../clib/angel/scatter.s                  0x00000000   Number         0  __scatter.o ABSOLUTE
    ../clib/angel/startup.s                  0x00000000   Number         0  __main.o ABSOLUTE
    ../clib/angel/sys.s                      0x00000000   Number         0  use_no_semi.o ABSOLUTE
    ../clib/angel/sys.s                      0x00000000   Number         0  use_no_semi_2.o ABSOLUTE
    ../clib/angel/sys.s                      0x00000000   Number         0  indicate_semi.o ABSOLUTE
    ../clib/angel/sys.s                      0x00000000   Number         0  libspace.o ABSOLUTE
    ../clib/angel/sys.s                      0x00000000   Number         0  sys_stackheap_outer.o ABSOLUTE
    ../clib/angel/sysapp.c                   0x00000000   Number         0  sys_wrch.o ABSOLUTE
    ../clib/angel/sysapp.c                   0x00000000   Number         0  sys_command.o ABSOLUTE
    ../clib/armsys.c                         0x00000000   Number         0  argv_veneer.o ABSOLUTE
    ../clib/armsys.c                         0x00000000   Number         0  argv_veneer.o ABSOLUTE
    ../clib/armsys.c                         0x00000000   Number         0  _get_argv_nomalloc.o ABSOLUTE
    ../clib/armsys.c                         0x00000000   Number         0  no_argv.o ABSOLUTE
    ../clib/heapalloc.c                      0x00000000   Number         0  hrguard.o ABSOLUTE
    ../clib/heapaux.c                        0x00000000   Number         0  heapauxi.o ABSOLUTE
    ../clib/libinit.s                        0x00000000   Number         0  libshutdown2.o ABSOLUTE
    ../clib/libinit.s                        0x00000000   Number         0  libinit2.o ABSOLUTE
    ../clib/libinit.s                        0x00000000   Number         0  libinit.o ABSOLUTE
    ../clib/libinit.s                        0x00000000   Number         0  libshutdown.o ABSOLUTE
    ../clib/memcpset.s                       0x00000000   Number         0  rt_memclr.o ABSOLUTE
    ../clib/memcpset.s                       0x00000000   Number         0  rt_memcpy_v6.o ABSOLUTE
    ../clib/memcpset.s                       0x00000000   Number         0  rt_memcpy_w.o ABSOLUTE
    ../clib/memcpset.s                       0x00000000   Number         0  aeabi_memset.o ABSOLUTE
    ../clib/memcpset.s                       0x00000000   Number         0  rt_memclr_w.o ABSOLUTE
    ../clib/misc.s                           0x00000000   Number         0  printf_stubs.o ABSOLUTE
    ../clib/printf.c                         0x00000000   Number         0  _printf_hex_int_ptr.o ABSOLUTE
    ../clib/printf.c                         0x00000000   Number         0  _printf_intcommon.o ABSOLUTE
    ../clib/printf.c                         0x00000000   Number         0  __printf.o ABSOLUTE
    ../clib/printf.c                         0x00000000   Number         0  _printf_str.o ABSOLUTE
    ../clib/printf.c                         0x00000000   Number         0  _sputc.o ABSOLUTE
    ../clib/printf.c                         0x00000000   Number         0  _printf_char.o ABSOLUTE
    ../clib/printf.c                         0x00000000   Number         0  _printf_char_file.o ABSOLUTE
    ../clib/printf.c                         0x00000000   Number         0  _printf_dec.o ABSOLUTE
    ../clib/printf.c                         0x00000000   Number         0  _printf_hex_ll.o ABSOLUTE
    ../clib/printf.c                         0x00000000   Number         0  _printf_hex_int.o ABSOLUTE
    ../clib/printf.c                         0x00000000   Number         0  _printf_hex_int_ll.o ABSOLUTE
    ../clib/printf.c                         0x00000000   Number         0  _printf_char_common.o ABSOLUTE
    ../clib/printf.c                         0x00000000   Number         0  __printf_wp.o ABSOLUTE
    ../clib/printf.c                         0x00000000   Number         0  _printf_hex_ptr.o ABSOLUTE
    ../clib/printf.c                         0x00000000   Number         0  __printf_flags_ss_wp.o ABSOLUTE
    ../clib/printf.c                         0x00000000   Number         0  __printf_ss_wp.o ABSOLUTE
    ../clib/printf.c                         0x00000000   Number         0  __printf_flags_wp.o ABSOLUTE
    ../clib/printf.c                         0x00000000   Number         0  __printf_flags_ss.o ABSOLUTE
    ../clib/printf.c                         0x00000000   Number         0  __printf_nopercent.o ABSOLUTE
    ../clib/printf.c                         0x00000000   Number         0  __printf_ss.o ABSOLUTE
    ../clib/printf.c                         0x00000000   Number         0  __printf_flags.o ABSOLUTE
    ../clib/printf.c                         0x00000000   Number         0  _printf_hex_int_ll_ptr.o ABSOLUTE
    ../clib/printf.c                         0x00000000   Number         0  _printf_hex_ll_ptr.o ABSOLUTE
    ../clib/printf.c                         0x00000000   Number         0  __2printf.o ABSOLUTE
    ../clib/printf.c                         0x00000000   Number         0  __2sprintf.o ABSOLUTE
    ../clib/printf.c                         0x00000000   Number         0  noretval__2printf.o ABSOLUTE
    ../clib/printf.c                         0x00000000   Number         0  noretval__2sprintf.o ABSOLUTE
    ../clib/printf_percent.s                 0x00000000   Number         0  _printf_percent.o ABSOLUTE
    ../clib/printf_percent.s                 0x00000000   Number         0  _printf_u.o ABSOLUTE
    ../clib/printf_percent.s                 0x00000000   Number         0  _printf_d.o ABSOLUTE
    ../clib/printf_percent.s                 0x00000000   Number         0  _printf_x.o ABSOLUTE
    ../clib/printf_percent.s                 0x00000000   Number         0  _printf_s.o ABSOLUTE
    ../clib/printf_percent.s                 0x00000000   Number         0  _printf_percent_end.o ABSOLUTE
    ../clib/printf_percent.s                 0x00000000   Number         0  _printf_c.o ABSOLUTE
    ../clib/signal.c                         0x00000000   Number         0  defsig_other.o ABSOLUTE
    ../clib/signal.c                         0x00000000   Number         0  defsig_rtred_inner.o ABSOLUTE
    ../clib/signal.c                         0x00000000   Number         0  defsig_fpe_inner.o ABSOLUTE
    ../clib/signal.c                         0x00000000   Number         0  defsig_abrt_inner.o ABSOLUTE
    ../clib/signal.c                         0x00000000   Number         0  defsig_segv_inner.o ABSOLUTE
    ../clib/signal.c                         0x00000000   Number         0  defsig_general.o ABSOLUTE
    ../clib/signal.c                         0x00000000   Number         0  __raise.o ABSOLUTE
    ../clib/signal.c                         0x00000000   Number         0  defsig_rtmem_inner.o ABSOLUTE
    ../clib/signal.c                         0x00000000   Number         0  defsig_exit.o ABSOLUTE
    ../clib/signal.c                         0x00000000   Number         0  defsig_cppl_inner.o ABSOLUTE
    ../clib/signal.c                         0x00000000   Number         0  defsig_rtmem_formal.o ABSOLUTE
    ../clib/signal.c                         0x00000000   Number         0  defsig_pvfn_inner.o ABSOLUTE
    ../clib/signal.c                         0x00000000   Number         0  defsig_rtmem_outer.o ABSOLUTE
    ../clib/signal.c                         0x00000000   Number         0  defsig_stak_inner.o ABSOLUTE
    ../clib/signal.s                         0x00000000   Number         0  defsig.o ABSOLUTE
    ../clib/stdio.c                          0x00000000   Number         0  ferror.o ABSOLUTE
    ../clib/stdio.c                          0x00000000   Number         0  ferror_locked.o ABSOLUTE
    ../clib/stdlib.c                         0x00000000   Number         0  exit.o ABSOLUTE
    ../clib/string.c                         0x00000000   Number         0  strcpy.o ABSOLUTE
    ../clib/string.c                         0x00000000   Number         0  strlen.o ABSOLUTE
    ../fplib/fpinit.s                        0x00000000   Number         0  fpinit.o ABSOLUTE
    ..\CORE\startup_stm32f429xx.s            0x00000000   Number         0  startup_stm32f429xx.o ABSOLUTE
    ..\FreeRTOS\croutine.c                   0x00000000   Number         0  croutine.o ABSOLUTE
    ..\FreeRTOS\event_groups.c               0x00000000   Number         0  event_groups.o ABSOLUTE
    ..\FreeRTOS\list.c                       0x00000000   Number         0  list.o ABSOLUTE
    ..\FreeRTOS\portable\MemMang\heap_4.c    0x00000000   Number         0  heap_4.o ABSOLUTE
    ..\FreeRTOS\portable\RVDS\ARM_CM4F\port.c 0x00000000   Number         0  port.o ABSOLUTE
    ..\FreeRTOS\queue.c                      0x00000000   Number         0  queue.o ABSOLUTE
    ..\FreeRTOS\tasks.c                      0x00000000   Number         0  tasks.o ABSOLUTE
    ..\FreeRTOS\timers.c                     0x00000000   Number         0  timers.o ABSOLUTE
    ..\HALLIB\STM32F4xx_HAL_Driver\Src\stm32f4xx_hal.c 0x00000000   Number         0  stm32f4xx_hal.o ABSOLUTE
    ..\HALLIB\STM32F4xx_HAL_Driver\Src\stm32f4xx_hal_cortex.c 0x00000000   Number         0  stm32f4xx_hal_cortex.o ABSOLUTE
    ..\HALLIB\STM32F4xx_HAL_Driver\Src\stm32f4xx_hal_dma.c 0x00000000   Number         0  stm32f4xx_hal_dma.o ABSOLUTE
    ..\HALLIB\STM32F4xx_HAL_Driver\Src\stm32f4xx_hal_dma2d.c 0x00000000   Number         0  stm32f4xx_hal_dma2d.o ABSOLUTE
    ..\HALLIB\STM32F4xx_HAL_Driver\Src\stm32f4xx_hal_dma_ex.c 0x00000000   Number         0  stm32f4xx_hal_dma_ex.o ABSOLUTE
    ..\HALLIB\STM32F4xx_HAL_Driver\Src\stm32f4xx_hal_gpio.c 0x00000000   Number         0  stm32f4xx_hal_gpio.o ABSOLUTE
    ..\HALLIB\STM32F4xx_HAL_Driver\Src\stm32f4xx_hal_ltdc.c 0x00000000   Number         0  stm32f4xx_hal_ltdc.o ABSOLUTE
    ..\HALLIB\STM32F4xx_HAL_Driver\Src\stm32f4xx_hal_ltdc_ex.c 0x00000000   Number         0  stm32f4xx_hal_ltdc_ex.o ABSOLUTE
    ..\HALLIB\STM32F4xx_HAL_Driver\Src\stm32f4xx_hal_pwr.c 0x00000000   Number         0  stm32f4xx_hal_pwr.o ABSOLUTE
    ..\HALLIB\STM32F4xx_HAL_Driver\Src\stm32f4xx_hal_pwr_ex.c 0x00000000   Number         0  stm32f4xx_hal_pwr_ex.o ABSOLUTE
    ..\HALLIB\STM32F4xx_HAL_Driver\Src\stm32f4xx_hal_rcc.c 0x00000000   Number         0  stm32f4xx_hal_rcc.o ABSOLUTE
    ..\HALLIB\STM32F4xx_HAL_Driver\Src\stm32f4xx_hal_rcc_ex.c 0x00000000   Number         0  stm32f4xx_hal_rcc_ex.o ABSOLUTE
    ..\HALLIB\STM32F4xx_HAL_Driver\Src\stm32f4xx_hal_sdram.c 0x00000000   Number         0  stm32f4xx_hal_sdram.o ABSOLUTE
    ..\HALLIB\STM32F4xx_HAL_Driver\Src\stm32f4xx_hal_spi.c 0x00000000   Number         0  stm32f4xx_hal_spi.o ABSOLUTE
    ..\HALLIB\STM32F4xx_HAL_Driver\Src\stm32f4xx_hal_sram.c 0x00000000   Number         0  stm32f4xx_hal_sram.o ABSOLUTE
    ..\HALLIB\STM32F4xx_HAL_Driver\Src\stm32f4xx_hal_uart.c 0x00000000   Number         0  stm32f4xx_hal_uart.o ABSOLUTE
    ..\HALLIB\STM32F4xx_HAL_Driver\Src\stm32f4xx_hal_usart.c 0x00000000   Number         0  stm32f4xx_hal_usart.o ABSOLUTE
    ..\HALLIB\STM32F4xx_HAL_Driver\Src\stm32f4xx_ll_fmc.c 0x00000000   Number         0  stm32f4xx_ll_fmc.o ABSOLUTE
    ..\HARDWARE\CRC\CRC16.c                  0x00000000   Number         0  crc16.o ABSOLUTE
    ..\HARDWARE\KEY\key.c                    0x00000000   Number         0  key.o ABSOLUTE
    ..\HARDWARE\LED\led.c                    0x00000000   Number         0  led.o ABSOLUTE
    ..\HARDWARE\SPI\spi.c                    0x00000000   Number         0  spi.o ABSOLUTE
    ..\HARDWARE\ThinkTech_Pack\ThinkTech_Pack.c 0x00000000   Number         0  thinktech_pack.o ABSOLUTE
    ..\HARDWARE\W25QXX\w25qxx.c              0x00000000   Number         0  w25qxx.o ABSOLUTE
    ..\SWDP\DAP.c                            0x00000000   Number         0  dap.o ABSOLUTE
    ..\SWDP\SWD_DAP.c                        0x00000000   Number         0  swd_dap.o ABSOLUTE
    ..\SWDP\SWD_flash.c                      0x00000000   Number         0  swd_flash.o ABSOLUTE
    ..\SWDP\SWD_host.c                       0x00000000   Number         0  swd_host.o ABSOLUTE
    ..\SWDP\error.c                          0x00000000   Number         0  error.o ABSOLUTE
    ..\SWDP\flash_blob.c                     0x00000000   Number         0  flash_blob.o ABSOLUTE
    ..\SYSTEM\delay\delay.c                  0x00000000   Number         0  delay.o ABSOLUTE
    ..\SYSTEM\sys\sys.c                      0x00000000   Number         0  sys.o ABSOLUTE
    ..\SYSTEM\usart\usart.c                  0x00000000   Number         0  usart.o ABSOLUTE
    ..\\FreeRTOS\\croutine.c                 0x00000000   Number         0  croutine.o ABSOLUTE
    ..\\FreeRTOS\\event_groups.c             0x00000000   Number         0  event_groups.o ABSOLUTE
    ..\\FreeRTOS\\list.c                     0x00000000   Number         0  list.o ABSOLUTE
    ..\\FreeRTOS\\portable\\MemMang\\heap_4.c 0x00000000   Number         0  heap_4.o ABSOLUTE
    ..\\FreeRTOS\\portable\\RVDS\\ARM_CM4F\\port.c 0x00000000   Number         0  port.o ABSOLUTE
    ..\\FreeRTOS\\queue.c                    0x00000000   Number         0  queue.o ABSOLUTE
    ..\\FreeRTOS\\tasks.c                    0x00000000   Number         0  tasks.o ABSOLUTE
    ..\\FreeRTOS\\timers.c                   0x00000000   Number         0  timers.o ABSOLUTE
    ..\\HALLIB\\STM32F4xx_HAL_Driver\\Src\\stm32f4xx_hal.c 0x00000000   Number         0  stm32f4xx_hal.o ABSOLUTE
    ..\\HALLIB\\STM32F4xx_HAL_Driver\\Src\\stm32f4xx_hal_cortex.c 0x00000000   Number         0  stm32f4xx_hal_cortex.o ABSOLUTE
    ..\\HALLIB\\STM32F4xx_HAL_Driver\\Src\\stm32f4xx_hal_dma.c 0x00000000   Number         0  stm32f4xx_hal_dma.o ABSOLUTE
    ..\\HALLIB\\STM32F4xx_HAL_Driver\\Src\\stm32f4xx_hal_dma2d.c 0x00000000   Number         0  stm32f4xx_hal_dma2d.o ABSOLUTE
    ..\\HALLIB\\STM32F4xx_HAL_Driver\\Src\\stm32f4xx_hal_dma_ex.c 0x00000000   Number         0  stm32f4xx_hal_dma_ex.o ABSOLUTE
    ..\\HALLIB\\STM32F4xx_HAL_Driver\\Src\\stm32f4xx_hal_gpio.c 0x00000000   Number         0  stm32f4xx_hal_gpio.o ABSOLUTE
    ..\\HALLIB\\STM32F4xx_HAL_Driver\\Src\\stm32f4xx_hal_ltdc.c 0x00000000   Number         0  stm32f4xx_hal_ltdc.o ABSOLUTE
    ..\\HALLIB\\STM32F4xx_HAL_Driver\\Src\\stm32f4xx_hal_ltdc_ex.c 0x00000000   Number         0  stm32f4xx_hal_ltdc_ex.o ABSOLUTE
    ..\\HALLIB\\STM32F4xx_HAL_Driver\\Src\\stm32f4xx_hal_pwr.c 0x00000000   Number         0  stm32f4xx_hal_pwr.o ABSOLUTE
    ..\\HALLIB\\STM32F4xx_HAL_Driver\\Src\\stm32f4xx_hal_pwr_ex.c 0x00000000   Number         0  stm32f4xx_hal_pwr_ex.o ABSOLUTE
    ..\\HALLIB\\STM32F4xx_HAL_Driver\\Src\\stm32f4xx_hal_rcc.c 0x00000000   Number         0  stm32f4xx_hal_rcc.o ABSOLUTE
    ..\\HALLIB\\STM32F4xx_HAL_Driver\\Src\\stm32f4xx_hal_rcc_ex.c 0x00000000   Number         0  stm32f4xx_hal_rcc_ex.o ABSOLUTE
    ..\\HALLIB\\STM32F4xx_HAL_Driver\\Src\\stm32f4xx_hal_sdram.c 0x00000000   Number         0  stm32f4xx_hal_sdram.o ABSOLUTE
    ..\\HALLIB\\STM32F4xx_HAL_Driver\\Src\\stm32f4xx_hal_spi.c 0x00000000   Number         0  stm32f4xx_hal_spi.o ABSOLUTE
    ..\\HALLIB\\STM32F4xx_HAL_Driver\\Src\\stm32f4xx_hal_sram.c 0x00000000   Number         0  stm32f4xx_hal_sram.o ABSOLUTE
    ..\\HALLIB\\STM32F4xx_HAL_Driver\\Src\\stm32f4xx_hal_uart.c 0x00000000   Number         0  stm32f4xx_hal_uart.o ABSOLUTE
    ..\\HALLIB\\STM32F4xx_HAL_Driver\\Src\\stm32f4xx_hal_usart.c 0x00000000   Number         0  stm32f4xx_hal_usart.o ABSOLUTE
    ..\\HALLIB\\STM32F4xx_HAL_Driver\\Src\\stm32f4xx_ll_fmc.c 0x00000000   Number         0  stm32f4xx_ll_fmc.o ABSOLUTE
    ..\\HARDWARE\\KEY\\key.c                 0x00000000   Number         0  key.o ABSOLUTE
    ..\\HARDWARE\\LED\\led.c                 0x00000000   Number         0  led.o ABSOLUTE
    ..\\HARDWARE\\SPI\\spi.c                 0x00000000   Number         0  spi.o ABSOLUTE
    ..\\HARDWARE\\ThinkTech_Pack\\ThinkTech_Pack.c 0x00000000   Number         0  thinktech_pack.o ABSOLUTE
    ..\\HARDWARE\\W25QXX\\w25qxx.c           0x00000000   Number         0  w25qxx.o ABSOLUTE
    ..\\SWDP\\DAP.c                          0x00000000   Number         0  dap.o ABSOLUTE
    ..\\SWDP\\SWD_DAP.c                      0x00000000   Number         0  swd_dap.o ABSOLUTE
    ..\\SWDP\\SWD_flash.c                    0x00000000   Number         0  swd_flash.o ABSOLUTE
    ..\\SWDP\\SWD_host.c                     0x00000000   Number         0  swd_host.o ABSOLUTE
    ..\\SYSTEM\\delay\\delay.c               0x00000000   Number         0  delay.o ABSOLUTE
    ..\\SYSTEM\\sys\\sys.c                   0x00000000   Number         0  sys.o ABSOLUTE
    ..\\SYSTEM\\usart\\usart.c               0x00000000   Number         0  usart.o ABSOLUTE
    dc.s                                     0x00000000   Number         0  dc.o ABSOLUTE
    main.c                                   0x00000000   Number         0  main.o ABSOLUTE
    main.c                                   0x00000000   Number         0  main.o ABSOLUTE
    stm32f4xx_it.c                           0x00000000   Number         0  stm32f4xx_it.o ABSOLUTE
    stm32f4xx_it.c                           0x00000000   Number         0  stm32f4xx_it.o ABSOLUTE
    system_stm32f4xx.c                       0x00000000   Number         0  system_stm32f4xx.o ABSOLUTE
    system_stm32f4xx.c                       0x00000000   Number         0  system_stm32f4xx.o ABSOLUTE
    RESET                                    0x08000000   Section      428  startup_stm32f429xx.o(RESET)
    !!!main                                  0x080001ac   Section        8  __main.o(!!!main)
    !!!scatter                               0x080001b4   Section       52  __scatter.o(!!!scatter)
    !!dclz77c                                0x080001e8   Section      100  __dclz77c.o(!!dclz77c)
    !!handler_zi                             0x0800024c   Section       28  __scatter_zi.o(!!handler_zi)
    .ARM.Collect$$_printf_percent$$00000000  0x08000268   Section        0  _printf_percent.o(.ARM.Collect$$_printf_percent$$00000000)
    .ARM.Collect$$_printf_percent$$00000009  0x08000268   Section        6  _printf_d.o(.ARM.Collect$$_printf_percent$$00000009)
    .ARM.Collect$$_printf_percent$$0000000A  0x0800026e   Section        6  _printf_u.o(.ARM.Collect$$_printf_percent$$0000000A)
    .ARM.Collect$$_printf_percent$$0000000C  0x08000274   Section        6  _printf_x.o(.ARM.Collect$$_printf_percent$$0000000C)
    .ARM.Collect$$_printf_percent$$00000013  0x0800027a   Section        6  _printf_c.o(.ARM.Collect$$_printf_percent$$00000013)
    .ARM.Collect$$_printf_percent$$00000014  0x08000280   Section        6  _printf_s.o(.ARM.Collect$$_printf_percent$$00000014)
    .ARM.Collect$$_printf_percent$$00000017  0x08000286   Section        4  _printf_percent_end.o(.ARM.Collect$$_printf_percent$$00000017)
    .ARM.Collect$$libinit$$00000000          0x0800028a   Section        2  libinit.o(.ARM.Collect$$libinit$$00000000)
    .ARM.Collect$$libinit$$00000001          0x0800028c   Section        4  libinit2.o(.ARM.Collect$$libinit$$00000001)
    .ARM.Collect$$libinit$$00000004          0x08000290   Section        0  libinit2.o(.ARM.Collect$$libinit$$00000004)
    .ARM.Collect$$libinit$$0000000A          0x08000290   Section        0  libinit2.o(.ARM.Collect$$libinit$$0000000A)
    .ARM.Collect$$libinit$$0000000C          0x08000290   Section        0  libinit2.o(.ARM.Collect$$libinit$$0000000C)
    .ARM.Collect$$libinit$$0000000E          0x08000290   Section        0  libinit2.o(.ARM.Collect$$libinit$$0000000E)
    .ARM.Collect$$libinit$$00000011          0x08000290   Section        0  libinit2.o(.ARM.Collect$$libinit$$00000011)
    .ARM.Collect$$libinit$$00000013          0x08000290   Section        0  libinit2.o(.ARM.Collect$$libinit$$00000013)
    .ARM.Collect$$libinit$$00000015          0x08000290   Section        0  libinit2.o(.ARM.Collect$$libinit$$00000015)
    .ARM.Collect$$libinit$$00000017          0x08000290   Section        0  libinit2.o(.ARM.Collect$$libinit$$00000017)
    .ARM.Collect$$libinit$$00000019          0x08000290   Section        0  libinit2.o(.ARM.Collect$$libinit$$00000019)
    .ARM.Collect$$libinit$$0000001B          0x08000290   Section        0  libinit2.o(.ARM.Collect$$libinit$$0000001B)
    .ARM.Collect$$libinit$$0000001D          0x08000290   Section        0  libinit2.o(.ARM.Collect$$libinit$$0000001D)
    .ARM.Collect$$libinit$$0000001F          0x08000290   Section        0  libinit2.o(.ARM.Collect$$libinit$$0000001F)
    .ARM.Collect$$libinit$$00000021          0x08000290   Section        0  libinit2.o(.ARM.Collect$$libinit$$00000021)
    .ARM.Collect$$libinit$$00000023          0x08000290   Section        0  libinit2.o(.ARM.Collect$$libinit$$00000023)
    .ARM.Collect$$libinit$$00000025          0x08000290   Section        0  libinit2.o(.ARM.Collect$$libinit$$00000025)
    .ARM.Collect$$libinit$$0000002C          0x08000290   Section        0  libinit2.o(.ARM.Collect$$libinit$$0000002C)
    .ARM.Collect$$libinit$$0000002E          0x08000290   Section        0  libinit2.o(.ARM.Collect$$libinit$$0000002E)
    .ARM.Collect$$libinit$$00000030          0x08000290   Section        0  libinit2.o(.ARM.Collect$$libinit$$00000030)
    .ARM.Collect$$libinit$$00000032          0x08000290   Section        0  libinit2.o(.ARM.Collect$$libinit$$00000032)
    .ARM.Collect$$libinit$$00000033          0x08000290   Section        2  libinit2.o(.ARM.Collect$$libinit$$00000033)
    .ARM.Collect$$libshutdown$$00000000      0x08000292   Section        2  libshutdown.o(.ARM.Collect$$libshutdown$$00000000)
    .ARM.Collect$$libshutdown$$00000002      0x08000294   Section        0  libshutdown2.o(.ARM.Collect$$libshutdown$$00000002)
    .ARM.Collect$$libshutdown$$00000004      0x08000294   Section        0  libshutdown2.o(.ARM.Collect$$libshutdown$$00000004)
    .ARM.Collect$$libshutdown$$00000006      0x08000294   Section        0  libshutdown2.o(.ARM.Collect$$libshutdown$$00000006)
    .ARM.Collect$$libshutdown$$00000009      0x08000294   Section        0  libshutdown2.o(.ARM.Collect$$libshutdown$$00000009)
    .ARM.Collect$$libshutdown$$0000000C      0x08000294   Section        0  libshutdown2.o(.ARM.Collect$$libshutdown$$0000000C)
    .ARM.Collect$$libshutdown$$0000000E      0x08000294   Section        0  libshutdown2.o(.ARM.Collect$$libshutdown$$0000000E)
    .ARM.Collect$$libshutdown$$00000011      0x08000294   Section        0  libshutdown2.o(.ARM.Collect$$libshutdown$$00000011)
    .ARM.Collect$$libshutdown$$00000012      0x08000294   Section        2  libshutdown2.o(.ARM.Collect$$libshutdown$$00000012)
    .ARM.Collect$$rtentry$$00000000          0x08000296   Section        0  __rtentry.o(.ARM.Collect$$rtentry$$00000000)
    .ARM.Collect$$rtentry$$00000002          0x08000296   Section        0  __rtentry2.o(.ARM.Collect$$rtentry$$00000002)
    .ARM.Collect$$rtentry$$00000004          0x08000296   Section        6  __rtentry4.o(.ARM.Collect$$rtentry$$00000004)
    .ARM.Collect$$rtentry$$00000009          0x0800029c   Section        0  __rtentry2.o(.ARM.Collect$$rtentry$$00000009)
    .ARM.Collect$$rtentry$$0000000A          0x0800029c   Section        4  __rtentry2.o(.ARM.Collect$$rtentry$$0000000A)
    .ARM.Collect$$rtentry$$0000000C          0x080002a0   Section        0  __rtentry2.o(.ARM.Collect$$rtentry$$0000000C)
    .ARM.Collect$$rtentry$$0000000D          0x080002a0   Section        8  __rtentry2.o(.ARM.Collect$$rtentry$$0000000D)
    .ARM.Collect$$rtexit$$00000000           0x080002a8   Section        2  rtexit.o(.ARM.Collect$$rtexit$$00000000)
    .ARM.Collect$$rtexit$$00000002           0x080002aa   Section        0  rtexit2.o(.ARM.Collect$$rtexit$$00000002)
    .ARM.Collect$$rtexit$$00000003           0x080002aa   Section        4  rtexit2.o(.ARM.Collect$$rtexit$$00000003)
    .ARM.Collect$$rtexit$$00000004           0x080002ae   Section        6  rtexit2.o(.ARM.Collect$$rtexit$$00000004)
    .emb_text                                0x080002b4   Section      182  port.o(.emb_text)
    $v0                                      0x080002b4   Number         0  port.o(.emb_text)
    .text                                    0x0800036c   Section       64  startup_stm32f429xx.o(.text)
    $v0                                      0x0800036c   Number         0  startup_stm32f429xx.o(.text)
    .text                                    0x080003ac   Section        2  use_no_semi_2.o(.text)
    .text                                    0x080003b0   Section        0  noretval__2printf.o(.text)
    .text                                    0x080003c8   Section        0  noretval__2sprintf.o(.text)
    .text                                    0x080003f0   Section        0  _printf_str.o(.text)
    .text                                    0x08000444   Section        0  _printf_dec.o(.text)
    .text                                    0x080004bc   Section        0  _printf_hex_int.o(.text)
    .text                                    0x08000514   Section        0  __printf_wp.o(.text)
    .text                                    0x08000622   Section        0  strcpy.o(.text)
    .text                                    0x0800066a   Section        0  strlen.o(.text)
    .text                                    0x080006a8   Section      138  rt_memcpy_v6.o(.text)
    .text                                    0x08000732   Section      100  rt_memcpy_w.o(.text)
    .text                                    0x08000796   Section       16  aeabi_memset.o(.text)
    .text                                    0x080007a6   Section       78  rt_memclr_w.o(.text)
    .text                                    0x080007f4   Section        0  heapauxi.o(.text)
    .text                                    0x080007fa   Section        2  use_no_semi.o(.text)
    .text                                    0x080007fc   Section        0  _printf_intcommon.o(.text)
    .text                                    0x080008b0   Section        0  _printf_char_common.o(.text)
    _printf_input_char                       0x080008b1   Thumb Code    10  _printf_char_common.o(.text)
    .text                                    0x080008e0   Section        0  _sputc.o(.text)
    .text                                    0x080008ea   Section        0  _printf_char.o(.text)
    .text                                    0x08000918   Section        0  _printf_char_file.o(.text)
    .text                                    0x0800093c   Section       68  rt_memclr.o(.text)
    .text                                    0x08000980   Section        0  ferror.o(.text)
    .text                                    0x08000988   Section       74  sys_stackheap_outer.o(.text)
    .text                                    0x080009d2   Section        0  exit.o(.text)
    .text                                    0x080009e4   Section        8  libspace.o(.text)
    i.BusFault_Handler                       0x080009ec   Section        0  stm32f4xx_it.o(i.BusFault_Handler)
    i.DAP_Setup_1                            0x080009f0   Section        0  dap.o(i.DAP_Setup_1)
    i.DAP_Setup_2                            0x08000a38   Section        0  dap.o(i.DAP_Setup_2)
    i.DAP_Setup_3                            0x08000a80   Section        0  dap.o(i.DAP_Setup_3)
    i.DebugMon_Handler                       0x08000ac8   Section        0  stm32f4xx_it.o(i.DebugMon_Handler)
    i.HAL_GPIO_Init                          0x08000acc   Section        0  stm32f4xx_hal_gpio.o(i.HAL_GPIO_Init)
    i.HAL_GPIO_ReadPin                       0x08000ca8   Section        0  stm32f4xx_hal_gpio.o(i.HAL_GPIO_ReadPin)
    i.HAL_GPIO_WritePin                      0x08000cb2   Section        0  stm32f4xx_hal_gpio.o(i.HAL_GPIO_WritePin)
    i.HAL_GetTick                            0x08000cbc   Section        0  stm32f4xx_hal.o(i.HAL_GetTick)
    i.HAL_IncTick                            0x08000cc8   Section        0  stm32f4xx_hal.o(i.HAL_IncTick)
    i.HAL_Init                               0x08000cd8   Section        0  stm32f4xx_hal.o(i.HAL_Init)
    i.HAL_InitTick                           0x08000d0c   Section        0  stm32f4xx_hal.o(i.HAL_InitTick)
    i.HAL_MspInit                            0x08000d2e   Section        0  stm32f4xx_hal.o(i.HAL_MspInit)
    i.HAL_NVIC_EnableIRQ                     0x08000d36   Section        0  stm32f4xx_hal_cortex.o(i.HAL_NVIC_EnableIRQ)
    i.HAL_NVIC_SetPriority                   0x08000d4c   Section        0  stm32f4xx_hal_cortex.o(i.HAL_NVIC_SetPriority)
    i.HAL_NVIC_SetPriorityGrouping           0x08000d8c   Section        0  stm32f4xx_hal_cortex.o(i.HAL_NVIC_SetPriorityGrouping)
    i.HAL_PWREx_EnableOverDrive              0x08000db0   Section        0  stm32f4xx_hal_pwr_ex.o(i.HAL_PWREx_EnableOverDrive)
    i.HAL_RCC_ClockConfig                    0x08000e38   Section        0  stm32f4xx_hal_rcc.o(i.HAL_RCC_ClockConfig)
    i.HAL_RCC_GetHCLKFreq                    0x08001040   Section        0  stm32f4xx_hal_rcc.o(i.HAL_RCC_GetHCLKFreq)
    i.HAL_RCC_GetPCLK1Freq                   0x08001074   Section        0  stm32f4xx_hal_rcc.o(i.HAL_RCC_GetPCLK1Freq)
    i.HAL_RCC_GetPCLK2Freq                   0x080010a0   Section        0  stm32f4xx_hal_rcc.o(i.HAL_RCC_GetPCLK2Freq)
    i.HAL_RCC_GetSysClockFreq                0x080010cc   Section        0  stm32f4xx_hal_rcc.o(i.HAL_RCC_GetSysClockFreq)
    i.HAL_RCC_OscConfig                      0x08001140   Section        0  stm32f4xx_hal_rcc.o(i.HAL_RCC_OscConfig)
    i.HAL_SPI_Init                           0x0800145c   Section        0  stm32f4xx_hal_spi.o(i.HAL_SPI_Init)
    i.HAL_SPI_MspInit                        0x080014e0   Section        0  spi.o(i.HAL_SPI_MspInit)
    i.HAL_SPI_TransmitReceive                0x08001540   Section        0  stm32f4xx_hal_spi.o(i.HAL_SPI_TransmitReceive)
    i.HAL_SYSTICK_CLKSourceConfig            0x080017ea   Section        0  stm32f4xx_hal_cortex.o(i.HAL_SYSTICK_CLKSourceConfig)
    i.HAL_SYSTICK_Config                     0x08001802   Section        0  stm32f4xx_hal_cortex.o(i.HAL_SYSTICK_Config)
    i.HAL_UART_ErrorCallback                 0x0800182a   Section        0  stm32f4xx_hal_uart.o(i.HAL_UART_ErrorCallback)
    i.HAL_UART_GetState                      0x0800182c   Section        0  stm32f4xx_hal_uart.o(i.HAL_UART_GetState)
    i.HAL_UART_IRQHandler                    0x08001832   Section        0  stm32f4xx_hal_uart.o(i.HAL_UART_IRQHandler)
    i.HAL_UART_Init                          0x08001926   Section        0  stm32f4xx_hal_uart.o(i.HAL_UART_Init)
    i.HAL_UART_MspInit                       0x08001984   Section        0  usart.o(i.HAL_UART_MspInit)
    i.HAL_UART_Receive_IT                    0x08001a00   Section        0  stm32f4xx_hal_uart.o(i.HAL_UART_Receive_IT)
    i.HAL_UART_RxCpltCallback                0x08001a68   Section        0  usart.o(i.HAL_UART_RxCpltCallback)
    i.HAL_UART_TxCpltCallback                0x08001ac0   Section        0  stm32f4xx_hal_uart.o(i.HAL_UART_TxCpltCallback)
    i.HardFault_Handler                      0x08001ac2   Section        0  stm32f4xx_it.o(i.HardFault_Handler)
    i.JTAG2SWD_1                             0x08001ac4   Section        0  swd_host.o(i.JTAG2SWD_1)
    JTAG2SWD_1                               0x08001ac5   Thumb Code   140  swd_host.o(i.JTAG2SWD_1)
    i.JTAG2SWD_2                             0x08001b94   Section        0  swd_host.o(i.JTAG2SWD_2)
    JTAG2SWD_2                               0x08001b95   Thumb Code   140  swd_host.o(i.JTAG2SWD_2)
    i.JTAG2SWD_3                             0x08001c2c   Section        0  swd_host.o(i.JTAG2SWD_3)
    JTAG2SWD_3                               0x08001c2d   Thumb Code   140  swd_host.o(i.JTAG2SWD_3)
    i.KEY_Init                               0x08001cc4   Section        0  key.o(i.KEY_Init)
    i.KEY_Scan                               0x08001d44   Section        0  key.o(i.KEY_Scan)
    i.LED_Init                               0x08001e1c   Section        0  led.o(i.LED_Init)
    i.MemManage_Handler                      0x08001e68   Section        0  stm32f4xx_it.o(i.MemManage_Handler)
    i.MizarMsgDecode                         0x08001e6a   Section        0  thinktech_pack.o(i.MizarMsgDecode)
    i.MizarMsgEncode                         0x08001ece   Section        0  thinktech_pack.o(i.MizarMsgEncode)
    i.NMI_Handler                            0x08001f40   Section        0  stm32f4xx_it.o(i.NMI_Handler)
    i.NVIC_SetPriority                       0x08001f42   Section        0  stm32f4xx_hal_cortex.o(i.NVIC_SetPriority)
    NVIC_SetPriority                         0x08001f43   Thumb Code    32  stm32f4xx_hal_cortex.o(i.NVIC_SetPriority)
    i.PIN_SWDIO_IN_1                         0x08001f64   Section        0  swd_dap.o(i.PIN_SWDIO_IN_1)
    PIN_SWDIO_IN_1                           0x08001f65   Thumb Code    10  swd_dap.o(i.PIN_SWDIO_IN_1)
    i.PIN_SWDIO_IN_2                         0x08001f74   Section        0  swd_dap.o(i.PIN_SWDIO_IN_2)
    PIN_SWDIO_IN_2                           0x08001f75   Thumb Code    10  swd_dap.o(i.PIN_SWDIO_IN_2)
    i.PIN_SWDIO_IN_3                         0x08001f84   Section        0  swd_dap.o(i.PIN_SWDIO_IN_3)
    PIN_SWDIO_IN_3                           0x08001f85   Thumb Code    10  swd_dap.o(i.PIN_SWDIO_IN_3)
    i.PIN_SWDIO_OUT_1                        0x08001f94   Section        0  swd_dap.o(i.PIN_SWDIO_OUT_1)
    PIN_SWDIO_OUT_1                          0x08001f95   Thumb Code    18  swd_dap.o(i.PIN_SWDIO_OUT_1)
    i.PIN_SWDIO_OUT_2                        0x08001fac   Section        0  swd_dap.o(i.PIN_SWDIO_OUT_2)
    PIN_SWDIO_OUT_2                          0x08001fad   Thumb Code    18  swd_dap.o(i.PIN_SWDIO_OUT_2)
    i.PIN_SWDIO_OUT_3                        0x08001fc4   Section        0  swd_dap.o(i.PIN_SWDIO_OUT_3)
    PIN_SWDIO_OUT_3                          0x08001fc5   Thumb Code    18  swd_dap.o(i.PIN_SWDIO_OUT_3)
    i.PIN_SWDIO_OUT_ENABLE_1                 0x08001fdc   Section        0  swd_dap.o(i.PIN_SWDIO_OUT_ENABLE_1)
    PIN_SWDIO_OUT_ENABLE_1                   0x08001fdd   Thumb Code    32  swd_dap.o(i.PIN_SWDIO_OUT_ENABLE_1)
    i.PIN_SWDIO_OUT_ENABLE_2                 0x08002000   Section        0  swd_dap.o(i.PIN_SWDIO_OUT_ENABLE_2)
    PIN_SWDIO_OUT_ENABLE_2                   0x08002001   Thumb Code    30  swd_dap.o(i.PIN_SWDIO_OUT_ENABLE_2)
    i.PIN_SWDIO_OUT_ENABLE_3                 0x08002024   Section        0  swd_dap.o(i.PIN_SWDIO_OUT_ENABLE_3)
    PIN_SWDIO_OUT_ENABLE_3                   0x08002025   Thumb Code    30  swd_dap.o(i.PIN_SWDIO_OUT_ENABLE_3)
    i.PIN_nRESET_OUT_1                       0x08002048   Section        0  swd_host.o(i.PIN_nRESET_OUT_1)
    PIN_nRESET_OUT_1                         0x08002049   Thumb Code    18  swd_host.o(i.PIN_nRESET_OUT_1)
    i.PIN_nRESET_OUT_2                       0x08002060   Section        0  swd_host.o(i.PIN_nRESET_OUT_2)
    PIN_nRESET_OUT_2                         0x08002061   Thumb Code    18  swd_host.o(i.PIN_nRESET_OUT_2)
    i.PIN_nRESET_OUT_3                       0x08002078   Section        0  swd_host.o(i.PIN_nRESET_OUT_3)
    PIN_nRESET_OUT_3                         0x08002079   Thumb Code    18  swd_host.o(i.PIN_nRESET_OUT_3)
    i.Program_Target_1                       0x08002090   Section        0  swd_flash.o(i.Program_Target_1)
    i.Program_Target_2                       0x0800224c   Section        0  swd_flash.o(i.Program_Target_2)
    i.Program_Target_3                       0x08002408   Section        0  swd_flash.o(i.Program_Target_3)
    i.SPI5_Init                              0x080025c4   Section        0  spi.o(i.SPI5_Init)
    i.SPI5_ReadWriteByte                     0x08002614   Section        0  spi.o(i.SPI5_ReadWriteByte)
    i.SPI5_SetSpeed                          0x08002634   Section        0  spi.o(i.SPI5_SetSpeed)
    i.SPI_WaitOnFlagUntilTimeout             0x08002668   Section        0  stm32f4xx_hal_spi.o(i.SPI_WaitOnFlagUntilTimeout)
    SPI_WaitOnFlagUntilTimeout               0x08002669   Thumb Code   158  stm32f4xx_hal_spi.o(i.SPI_WaitOnFlagUntilTimeout)
    i.SWD_Sequence_1                         0x08002708   Section        0  swd_dap.o(i.SWD_Sequence_1)
    i.SWD_Sequence_2                         0x08002758   Section        0  swd_dap.o(i.SWD_Sequence_2)
    i.SWD_Sequence_3                         0x080027a4   Section        0  swd_dap.o(i.SWD_Sequence_3)
    i.SWD_Transfer_1                         0x080027f0   Section        0  swd_dap.o(i.SWD_Transfer_1)
    i.SWD_Transfer_2                         0x080027f4   Section        0  swd_dap.o(i.SWD_Transfer_2)
    i.SWD_Transfer_3                         0x080027f8   Section        0  swd_dap.o(i.SWD_Transfer_3)
    i.SWD_Transfer_Buff_1                    0x080027fc   Section        0  swd_dap.o(i.SWD_Transfer_Buff_1)
    SWD_Transfer_Buff_1                      0x080027fd   Thumb Code   940  swd_dap.o(i.SWD_Transfer_Buff_1)
    i.SWD_Transfer_Buff_2                    0x08002bb4   Section        0  swd_dap.o(i.SWD_Transfer_Buff_2)
    SWD_Transfer_Buff_2                      0x08002bb5   Thumb Code   934  swd_dap.o(i.SWD_Transfer_Buff_2)
    i.SWD_Transfer_Buff_3                    0x08002f68   Section        0  swd_dap.o(i.SWD_Transfer_Buff_3)
    SWD_Transfer_Buff_3                      0x08002f69   Thumb Code   942  swd_dap.o(i.SWD_Transfer_Buff_3)
    i.Stm32_Clock_Init                       0x08003324   Section        0  sys.o(i.Stm32_Clock_Init)
    i.SysTick_Handler                        0x080033a8   Section        0  delay.o(i.SysTick_Handler)
    i.SystemInit                             0x080033c0   Section        0  system_stm32f4xx.o(i.SystemInit)
    i.UART_Receive_IT                        0x08003414   Section        0  stm32f4xx_hal_uart.o(i.UART_Receive_IT)
    UART_Receive_IT                          0x08003415   Thumb Code   166  stm32f4xx_hal_uart.o(i.UART_Receive_IT)
    i.UART_SetConfig                         0x080034bc   Section        0  stm32f4xx_hal_uart.o(i.UART_SetConfig)
    UART_SetConfig                           0x080034bd   Thumb Code   364  stm32f4xx_hal_uart.o(i.UART_SetConfig)
    i.UART_Transmit_IT                       0x08003630   Section        0  stm32f4xx_hal_uart.o(i.UART_Transmit_IT)
    UART_Transmit_IT                         0x08003631   Thumb Code   102  stm32f4xx_hal_uart.o(i.UART_Transmit_IT)
    i.USART1_IRQHandler                      0x08003698   Section        0  usart.o(i.USART1_IRQHandler)
    i.USART3_IRQHandler                      0x080036dc   Section        0  thinktech_pack.o(i.USART3_IRQHandler)
    i.UsageFault_Handler                     0x08003760   Section        0  stm32f4xx_it.o(i.UsageFault_Handler)
    i.W25QXX_Erase_Sector                    0x08003764   Section        0  w25qxx.o(i.W25QXX_Erase_Sector)
    i.W25QXX_Init                            0x080037bc   Section        0  w25qxx.o(i.W25QXX_Init)
    i.W25QXX_Read                            0x08003838   Section        0  w25qxx.o(i.W25QXX_Read)
    i.W25QXX_ReadID                          0x080038a0   Section        0  w25qxx.o(i.W25QXX_ReadID)
    i.W25QXX_ReadSR                          0x080038e4   Section        0  w25qxx.o(i.W25QXX_ReadSR)
    i.W25QXX_Wait_Busy                       0x0800391c   Section        0  w25qxx.o(i.W25QXX_Wait_Busy)
    i.W25QXX_Write                           0x0800392c   Section        0  w25qxx.o(i.W25QXX_Write)
    i.W25QXX_Write_Enable                    0x080039c8   Section        0  w25qxx.o(i.W25QXX_Write_Enable)
    i.W25QXX_Write_NoCheck                   0x080039e8   Section        0  w25qxx.o(i.W25QXX_Write_NoCheck)
    i.W25QXX_Write_Page                      0x08003a28   Section        0  w25qxx.o(i.W25QXX_Write_Page)
    i._is_digit                              0x08003a94   Section        0  __printf_wp.o(i._is_digit)
    i._sys_exit                              0x08003aa2   Section        0  usart.o(i._sys_exit)
    i.alioth_a8_erase_1                      0x08003aa4   Section        0  swd_flash.o(i.alioth_a8_erase_1)
    alioth_a8_erase_1                        0x08003aa5   Thumb Code   190  swd_flash.o(i.alioth_a8_erase_1)
    i.alioth_a8_erase_2                      0x08003b70   Section        0  swd_flash.o(i.alioth_a8_erase_2)
    alioth_a8_erase_2                        0x08003b71   Thumb Code   190  swd_flash.o(i.alioth_a8_erase_2)
    i.alioth_a8_erase_3                      0x08003c3c   Section        0  swd_flash.o(i.alioth_a8_erase_3)
    alioth_a8_erase_3                        0x08003c3d   Thumb Code   190  swd_flash.o(i.alioth_a8_erase_3)
    i.alioth_a8_unlock_reg_1                 0x08003d08   Section        0  swd_flash.o(i.alioth_a8_unlock_reg_1)
    alioth_a8_unlock_reg_1                   0x08003d09   Thumb Code   132  swd_flash.o(i.alioth_a8_unlock_reg_1)
    i.alioth_a8_unlock_reg_2                 0x08003dcc   Section        0  swd_flash.o(i.alioth_a8_unlock_reg_2)
    alioth_a8_unlock_reg_2                   0x08003dcd   Thumb Code   132  swd_flash.o(i.alioth_a8_unlock_reg_2)
    i.alioth_a8_unlock_reg_3                 0x08003e68   Section        0  swd_flash.o(i.alioth_a8_unlock_reg_3)
    alioth_a8_unlock_reg_3                   0x08003e69   Thumb Code   132  swd_flash.o(i.alioth_a8_unlock_reg_3)
    i.crc16_finalize                         0x08003f04   Section        0  crc16.o(i.crc16_finalize)
    i.crc16_init                             0x08003f0a   Section        0  crc16.o(i.crc16_init)
    i.crc16_update                           0x08003f10   Section        0  crc16.o(i.crc16_update)
    i.delay_init                             0x08003f40   Section        0  delay.o(i.delay_init)
    i.delay_ms                               0x08003f74   Section        0  delay.o(i.delay_ms)
    i.delay_us                               0x08003fac   Section        0  delay.o(i.delay_us)
    i.eTaskGetState                          0x08003fe0   Section        0  tasks.o(i.eTaskGetState)
    i.fputc                                  0x08004068   Section        0  usart.o(i.fputc)
    i.int2array_1                            0x0800407c   Section        0  swd_host.o(i.int2array_1)
    int2array_1                              0x0800407d   Thumb Code    24  swd_host.o(i.int2array_1)
    i.int2array_2                            0x08004094   Section        0  swd_host.o(i.int2array_2)
    int2array_2                              0x08004095   Thumb Code    24  swd_host.o(i.int2array_2)
    i.int2array_3                            0x080040ac   Section        0  swd_host.o(i.int2array_3)
    int2array_3                              0x080040ad   Thumb Code    24  swd_host.o(i.int2array_3)
    i.key_scan                               0x080040c4   Section        0  key.o(i.key_scan)
    i.key_task                               0x08004178   Section        0  main.o(i.key_task)
    i.main                                   0x08004180   Section        0  main.o(i.main)
    i.my_uart_send                           0x08004218   Section        0  thinktech_pack.o(i.my_uart_send)
    i.prvAddCurrentTaskToDelayedList         0x08004244   Section        0  tasks.o(i.prvAddCurrentTaskToDelayedList)
    prvAddCurrentTaskToDelayedList           0x08004245   Thumb Code   102  tasks.o(i.prvAddCurrentTaskToDelayedList)
    i.prvAddNewTaskToReadyList               0x080042b4   Section        0  tasks.o(i.prvAddNewTaskToReadyList)
    prvAddNewTaskToReadyList                 0x080042b5   Thumb Code   192  tasks.o(i.prvAddNewTaskToReadyList)
    i.prvCheckForValidListAndQueue           0x08004384   Section        0  timers.o(i.prvCheckForValidListAndQueue)
    prvCheckForValidListAndQueue             0x08004385   Thumb Code    62  timers.o(i.prvCheckForValidListAndQueue)
    i.prvCheckTasksWaitingTermination        0x080043d4   Section        0  tasks.o(i.prvCheckTasksWaitingTermination)
    prvCheckTasksWaitingTermination          0x080043d5   Thumb Code    74  tasks.o(i.prvCheckTasksWaitingTermination)
    i.prvCopyDataFromQueue                   0x08004428   Section        0  queue.o(i.prvCopyDataFromQueue)
    prvCopyDataFromQueue                     0x08004429   Thumb Code    38  queue.o(i.prvCopyDataFromQueue)
    i.prvCopyDataToQueue                     0x0800444e   Section        0  queue.o(i.prvCopyDataToQueue)
    prvCopyDataToQueue                       0x0800444f   Thumb Code   108  queue.o(i.prvCopyDataToQueue)
    i.prvDeleteTCB                           0x080044ba   Section        0  tasks.o(i.prvDeleteTCB)
    prvDeleteTCB                             0x080044bb   Thumb Code    20  tasks.o(i.prvDeleteTCB)
    i.prvHeapInit                            0x080044d0   Section        0  heap_4.o(i.prvHeapInit)
    prvHeapInit                              0x080044d1   Thumb Code    66  heap_4.o(i.prvHeapInit)
    i.prvIdleTask                            0x0800451c   Section        0  tasks.o(i.prvIdleTask)
    prvIdleTask                              0x0800451d   Thumb Code    30  tasks.o(i.prvIdleTask)
    i.prvInitialiseNewTask                   0x08004544   Section        0  tasks.o(i.prvInitialiseNewTask)
    prvInitialiseNewTask                     0x08004545   Thumb Code   154  tasks.o(i.prvInitialiseNewTask)
    i.prvInsertBlockIntoFreeList             0x08004604   Section        0  heap_4.o(i.prvInsertBlockIntoFreeList)
    prvInsertBlockIntoFreeList               0x08004605   Thumb Code    72  heap_4.o(i.prvInsertBlockIntoFreeList)
    i.prvInsertTimerInActiveList             0x08004650   Section        0  timers.o(i.prvInsertTimerInActiveList)
    prvInsertTimerInActiveList               0x08004651   Thumb Code    52  timers.o(i.prvInsertTimerInActiveList)
    i.prvIsQueueEmpty                        0x08004688   Section        0  queue.o(i.prvIsQueueEmpty)
    prvIsQueueEmpty                          0x08004689   Thumb Code    26  queue.o(i.prvIsQueueEmpty)
    i.prvListTasksWithinSingleList           0x080046a2   Section        0  tasks.o(i.prvListTasksWithinSingleList)
    prvListTasksWithinSingleList             0x080046a3   Thumb Code    86  tasks.o(i.prvListTasksWithinSingleList)
    i.prvNotifyQueueSetContainer             0x080046f8   Section        0  queue.o(i.prvNotifyQueueSetContainer)
    prvNotifyQueueSetContainer               0x080046f9   Thumb Code   108  queue.o(i.prvNotifyQueueSetContainer)
    i.prvProcessExpiredTimer                 0x08004788   Section        0  timers.o(i.prvProcessExpiredTimer)
    prvProcessExpiredTimer                   0x08004789   Thumb Code    86  timers.o(i.prvProcessExpiredTimer)
    i.prvProcessReceivedCommands             0x080047e8   Section        0  timers.o(i.prvProcessReceivedCommands)
    prvProcessReceivedCommands               0x080047e9   Thumb Code   196  timers.o(i.prvProcessReceivedCommands)
    i.prvProcessTimerOrBlockTask             0x080048d8   Section        0  timers.o(i.prvProcessTimerOrBlockTask)
    prvProcessTimerOrBlockTask               0x080048d9   Thumb Code    98  timers.o(i.prvProcessTimerOrBlockTask)
    i.prvResetNextTaskUnblockTime            0x08004944   Section        0  tasks.o(i.prvResetNextTaskUnblockTime)
    prvResetNextTaskUnblockTime              0x08004945   Thumb Code    26  tasks.o(i.prvResetNextTaskUnblockTime)
    i.prvSampleTimeNow                       0x08004964   Section        0  timers.o(i.prvSampleTimeNow)
    prvSampleTimeNow                         0x08004965   Thumb Code    36  timers.o(i.prvSampleTimeNow)
    i.prvSwitchTimerLists                    0x0800498c   Section        0  timers.o(i.prvSwitchTimerLists)
    prvSwitchTimerLists                      0x0800498d   Thumb Code   100  timers.o(i.prvSwitchTimerLists)
    i.prvTaskExitError                       0x080049f8   Section        0  port.o(i.prvTaskExitError)
    prvTaskExitError                         0x080049f9   Thumb Code    36  port.o(i.prvTaskExitError)
    i.prvTestWaitCondition                   0x08004a5c   Section        0  event_groups.o(i.prvTestWaitCondition)
    prvTestWaitCondition                     0x08004a5d   Thumb Code    20  event_groups.o(i.prvTestWaitCondition)
    i.prvTimerTask                           0x08004a70   Section        0  timers.o(i.prvTimerTask)
    prvTimerTask                             0x08004a71   Thumb Code    34  timers.o(i.prvTimerTask)
    i.prvUnlockQueue                         0x08004a98   Section        0  queue.o(i.prvUnlockQueue)
    prvUnlockQueue                           0x08004a99   Thumb Code   120  queue.o(i.prvUnlockQueue)
    i.pvPortMalloc                           0x08004b10   Section        0  heap_4.o(i.pvPortMalloc)
    i.pvTaskIncrementMutexHeldCount          0x08004c24   Section        0  tasks.o(i.pvTaskIncrementMutexHeldCount)
    i.pxPortInitialiseStack                  0x08004c3c   Section        0  port.o(i.pxPortInitialiseStack)
    i.r_start_task                           0x08004c68   Section        0  main.o(i.r_start_task)
    i.r_timeout                              0x08004c98   Section        0  thinktech_pack.o(i.r_timeout)
    i.start_task                             0x08004d20   Section        0  main.o(i.start_task)
    i.status_clean                           0x08004e00   Section        0  thinktech_pack.o(i.status_clean)
    i.swd_downloade_1                        0x08004e30   Section        0  key.o(i.swd_downloade_1)
    i.swd_downloade_2                        0x08004eb4   Section        0  key.o(i.swd_downloade_2)
    i.swd_downloade_3                        0x08004f38   Section        0  key.o(i.swd_downloade_3)
    i.swd_flash_syscall_exec_1               0x08004fbc   Section        0  swd_host.o(i.swd_flash_syscall_exec_1)
    i.swd_flash_syscall_exec_2               0x08005138   Section        0  swd_host.o(i.swd_flash_syscall_exec_2)
    i.swd_flash_syscall_exec_3               0x080052b4   Section        0  swd_host.o(i.swd_flash_syscall_exec_3)
    i.swd_init_1                             0x08005430   Section        0  swd_host.o(i.swd_init_1)
    i.swd_init_2                             0x08005490   Section        0  swd_host.o(i.swd_init_2)
    i.swd_init_3                             0x080054f0   Section        0  swd_host.o(i.swd_init_3)
    i.swd_init_debug_1                       0x08005550   Section        0  swd_host.o(i.swd_init_debug_1)
    i.swd_init_debug_2                       0x080056f8   Section        0  swd_host.o(i.swd_init_debug_2)
    i.swd_init_debug_3                       0x080058a0   Section        0  swd_host.o(i.swd_init_debug_3)
    i.swd_off_1                              0x08005a44   Section        0  swd_host.o(i.swd_off_1)
    i.swd_off_2                              0x08005a6c   Section        0  swd_host.o(i.swd_off_2)
    i.swd_off_3                              0x08005a90   Section        0  swd_host.o(i.swd_off_3)
    i.swd_read_data_1                        0x08005ab4   Section        0  swd_host.o(i.swd_read_data_1)
    i.swd_read_data_2                        0x08005b14   Section        0  swd_host.o(i.swd_read_data_2)
    i.swd_read_data_3                        0x08005b74   Section        0  swd_host.o(i.swd_read_data_3)
    i.swd_read_dp_1                          0x08005bd4   Section        0  swd_host.o(i.swd_read_dp_1)
    i.swd_read_dp_2                          0x08005c16   Section        0  swd_host.o(i.swd_read_dp_2)
    i.swd_read_dp_3                          0x08005c58   Section        0  swd_host.o(i.swd_read_dp_3)
    i.swd_read_word_1                        0x08005c9c   Section        0  swd_host.o(i.swd_read_word_1)
    i.swd_read_word_2                        0x08005cc4   Section        0  swd_host.o(i.swd_read_word_2)
    i.swd_read_word_3                        0x08005cec   Section        0  swd_host.o(i.swd_read_word_3)
    i.swd_reset_1                            0x08005d14   Section        0  swd_host.o(i.swd_reset_1)
    swd_reset_1                              0x08005d15   Thumb Code    30  swd_host.o(i.swd_reset_1)
    i.swd_reset_2                            0x08005d32   Section        0  swd_host.o(i.swd_reset_2)
    swd_reset_2                              0x08005d33   Thumb Code    30  swd_host.o(i.swd_reset_2)
    i.swd_reset_3                            0x08005d50   Section        0  swd_host.o(i.swd_reset_3)
    swd_reset_3                              0x08005d51   Thumb Code    30  swd_host.o(i.swd_reset_3)
    i.swd_set_target_reset_hw_1              0x08005d6e   Section        0  swd_host.o(i.swd_set_target_reset_hw_1)
    i.swd_set_target_reset_hw_2              0x08005d7a   Section        0  swd_host.o(i.swd_set_target_reset_hw_2)
    i.swd_set_target_reset_hw_3              0x08005d86   Section        0  swd_host.o(i.swd_set_target_reset_hw_3)
    i.swd_set_target_reset_sw_1              0x08005d94   Section        0  swd_host.o(i.swd_set_target_reset_sw_1)
    i.swd_set_target_reset_sw_2              0x08005dc0   Section        0  swd_host.o(i.swd_set_target_reset_sw_2)
    i.swd_set_target_reset_sw_3              0x08005dec   Section        0  swd_host.o(i.swd_set_target_reset_sw_3)
    i.swd_set_target_state_hw_1              0x08005e18   Section        0  swd_host.o(i.swd_set_target_state_hw_1)
    i.swd_set_target_state_hw_2              0x08005f00   Section        0  swd_host.o(i.swd_set_target_state_hw_2)
    i.swd_set_target_state_hw_3              0x08005fe8   Section        0  swd_host.o(i.swd_set_target_state_hw_3)
    i.swd_switch_1                           0x080060d0   Section        0  swd_host.o(i.swd_switch_1)
    swd_switch_1                             0x080060d1   Thumb Code    24  swd_host.o(i.swd_switch_1)
    i.swd_switch_2                           0x080060e8   Section        0  swd_host.o(i.swd_switch_2)
    swd_switch_2                             0x080060e9   Thumb Code    24  swd_host.o(i.swd_switch_2)
    i.swd_switch_3                           0x08006100   Section        0  swd_host.o(i.swd_switch_3)
    swd_switch_3                             0x08006101   Thumb Code    24  swd_host.o(i.swd_switch_3)
    i.swd_transfer_retry_1                   0x08006118   Section        0  swd_host.o(i.swd_transfer_retry_1)
    swd_transfer_retry_1                     0x08006119   Thumb Code    30  swd_host.o(i.swd_transfer_retry_1)
    i.swd_transfer_retry_2                   0x08006136   Section        0  swd_host.o(i.swd_transfer_retry_2)
    swd_transfer_retry_2                     0x08006137   Thumb Code    30  swd_host.o(i.swd_transfer_retry_2)
    i.swd_transfer_retry_3                   0x08006154   Section        0  swd_host.o(i.swd_transfer_retry_3)
    swd_transfer_retry_3                     0x08006155   Thumb Code    30  swd_host.o(i.swd_transfer_retry_3)
    i.swd_write_ap_1                         0x08006174   Section        0  swd_host.o(i.swd_write_ap_1)
    i.swd_write_ap_2                         0x080061dc   Section        0  swd_host.o(i.swd_write_ap_2)
    i.swd_write_ap_3                         0x08006244   Section        0  swd_host.o(i.swd_write_ap_3)
    i.swd_write_block_1                      0x080062ac   Section        0  swd_host.o(i.swd_write_block_1)
    swd_write_block_1                        0x080062ad   Thumb Code    88  swd_host.o(i.swd_write_block_1)
    i.swd_write_block_2                      0x08006308   Section        0  swd_host.o(i.swd_write_block_2)
    swd_write_block_2                        0x08006309   Thumb Code    88  swd_host.o(i.swd_write_block_2)
    i.swd_write_block_3                      0x08006364   Section        0  swd_host.o(i.swd_write_block_3)
    swd_write_block_3                        0x08006365   Thumb Code    88  swd_host.o(i.swd_write_block_3)
    i.swd_write_byte_1                       0x080063c0   Section        0  swd_host.o(i.swd_write_byte_1)
    swd_write_byte_1                         0x080063c1   Thumb Code    40  swd_host.o(i.swd_write_byte_1)
    i.swd_write_byte_2                       0x080063ec   Section        0  swd_host.o(i.swd_write_byte_2)
    swd_write_byte_2                         0x080063ed   Thumb Code    40  swd_host.o(i.swd_write_byte_2)
    i.swd_write_byte_3                       0x08006418   Section        0  swd_host.o(i.swd_write_byte_3)
    swd_write_byte_3                         0x08006419   Thumb Code    40  swd_host.o(i.swd_write_byte_3)
    i.swd_write_core_register_1              0x08006444   Section        0  swd_host.o(i.swd_write_core_register_1)
    swd_write_core_register_1                0x08006445   Thumb Code    72  swd_host.o(i.swd_write_core_register_1)
    i.swd_write_core_register_2              0x08006490   Section        0  swd_host.o(i.swd_write_core_register_2)
    swd_write_core_register_2                0x08006491   Thumb Code    72  swd_host.o(i.swd_write_core_register_2)
    i.swd_write_core_register_3              0x080064dc   Section        0  swd_host.o(i.swd_write_core_register_3)
    swd_write_core_register_3                0x080064dd   Thumb Code    72  swd_host.o(i.swd_write_core_register_3)
    i.swd_write_data_1                       0x08006528   Section        0  swd_host.o(i.swd_write_data_1)
    i.swd_write_data_2                       0x08006566   Section        0  swd_host.o(i.swd_write_data_2)
    i.swd_write_data_3                       0x080065a4   Section        0  swd_host.o(i.swd_write_data_3)
    i.swd_write_debug_state_1                0x080065e4   Section        0  swd_host.o(i.swd_write_debug_state_1)
    swd_write_debug_state_1                  0x080065e5   Thumb Code   124  swd_host.o(i.swd_write_debug_state_1)
    i.swd_write_debug_state_2                0x08006668   Section        0  swd_host.o(i.swd_write_debug_state_2)
    swd_write_debug_state_2                  0x08006669   Thumb Code   124  swd_host.o(i.swd_write_debug_state_2)
    i.swd_write_debug_state_3                0x080066ec   Section        0  swd_host.o(i.swd_write_debug_state_3)
    swd_write_debug_state_3                  0x080066ed   Thumb Code   124  swd_host.o(i.swd_write_debug_state_3)
    i.swd_write_dp_1                         0x08006770   Section        0  swd_host.o(i.swd_write_dp_1)
    i.swd_write_dp_2                         0x080067a4   Section        0  swd_host.o(i.swd_write_dp_2)
    i.swd_write_dp_3                         0x080067d8   Section        0  swd_host.o(i.swd_write_dp_3)
    i.swd_write_memory_1                     0x0800680c   Section        0  swd_host.o(i.swd_write_memory_1)
    i.swd_write_memory_2                     0x08006878   Section        0  swd_host.o(i.swd_write_memory_2)
    i.swd_write_memory_3                     0x080068e4   Section        0  swd_host.o(i.swd_write_memory_3)
    i.swd_write_word_1                       0x08006950   Section        0  swd_host.o(i.swd_write_word_1)
    i.swd_write_word_2                       0x08006978   Section        0  swd_host.o(i.swd_write_word_2)
    i.swd_write_word_3                       0x080069a0   Section        0  swd_host.o(i.swd_write_word_3)
    i.target_flash_init_1                    0x080069c8   Section        0  swd_flash.o(i.target_flash_init_1)
    i.target_flash_init_2                    0x08006aa4   Section        0  swd_flash.o(i.target_flash_init_2)
    i.target_flash_init_3                    0x08006b84   Section        0  swd_flash.o(i.target_flash_init_3)
    i.target_flash_program_1                 0x08006c64   Section        0  swd_flash.o(i.target_flash_program_1)
    i.target_flash_program_2                 0x08006cec   Section        0  swd_flash.o(i.target_flash_program_2)
    i.target_flash_program_3                 0x08006d74   Section        0  swd_flash.o(i.target_flash_program_3)
    i.task1_task                             0x08006dfc   Section        0  main.o(i.task1_task)
    i.task2_task                             0x08006e1c   Section        0  main.o(i.task2_task)
    i.task3_task                             0x08006e3c   Section        0  main.o(i.task3_task)
    i.uart_init                              0x08006e5c   Section        0  usart.o(i.uart_init)
    i.usart3_init                            0x08006e94   Section        0  thinktech_pack.o(i.usart3_init)
    i.uxListRemove                           0x08006f2c   Section        0  list.o(i.uxListRemove)
    i.uxTaskGetSystemState                   0x08006f50   Section        0  tasks.o(i.uxTaskGetSystemState)
    i.uxTaskResetEventItemValue              0x08006ffc   Section        0  tasks.o(i.uxTaskResetEventItemValue)
    i.vEventGroupSetBitsCallback             0x08007014   Section        0  event_groups.o(i.vEventGroupSetBitsCallback)
    i.vListInitialise                        0x08007018   Section        0  list.o(i.vListInitialise)
    i.vListInitialiseItem                    0x0800702e   Section        0  list.o(i.vListInitialiseItem)
    i.vListInsert                            0x08007034   Section        0  list.o(i.vListInsert)
    i.vListInsertEnd                         0x08007064   Section        0  list.o(i.vListInsertEnd)
    i.vPortEnterCritical                     0x0800707c   Section        0  port.o(i.vPortEnterCritical)
    i.vPortExitCritical                      0x080070f4   Section        0  port.o(i.vPortExitCritical)
    i.vPortFree                              0x08007158   Section        0  heap_4.o(i.vPortFree)
    i.vPortSetupTimerInterrupt               0x080071f4   Section        0  port.o(i.vPortSetupTimerInterrupt)
    i.vPortValidateInterruptPriority         0x08007210   Section        0  port.o(i.vPortValidateInterruptPriority)
    i.vQueueAddToRegistry                    0x0800729c   Section        0  queue.o(i.vQueueAddToRegistry)
    i.vQueueWaitForMessageRestricted         0x080072c0   Section        0  queue.o(i.vQueueWaitForMessageRestricted)
    i.vTaskDelay                             0x08007304   Section        0  tasks.o(i.vTaskDelay)
    i.vTaskDelete                            0x08007370   Section        0  tasks.o(i.vTaskDelete)
    i.vTaskGetInfo                           0x0800743c   Section        0  tasks.o(i.vTaskGetInfo)
    i.vTaskList                              0x080074c0   Section        0  tasks.o(i.vTaskList)
    i.vTaskMissedYield                       0x08007590   Section        0  tasks.o(i.vTaskMissedYield)
    i.vTaskPlaceOnEventList                  0x0800759c   Section        0  tasks.o(i.vTaskPlaceOnEventList)
    i.vTaskPlaceOnEventListRestricted        0x080075f0   Section        0  tasks.o(i.vTaskPlaceOnEventListRestricted)
    i.vTaskPlaceOnUnorderedEventList         0x0800764c   Section        0  tasks.o(i.vTaskPlaceOnUnorderedEventList)
    i.vTaskPriorityInherit                   0x080076bc   Section        0  tasks.o(i.vTaskPriorityInherit)
    i.vTaskSetTimeOutState                   0x08007740   Section        0  tasks.o(i.vTaskSetTimeOutState)
    i.vTaskStartScheduler                    0x08007788   Section        0  tasks.o(i.vTaskStartScheduler)
    i.vTaskSuspendAll                        0x0800781c   Section        0  tasks.o(i.vTaskSuspendAll)
    i.vTaskSwitchContext                     0x0800782c   Section        0  tasks.o(i.vTaskSwitchContext)
    i.wait_write_bin                         0x080078a8   Section        0  thinktech_pack.o(i.wait_write_bin)
    i.xEventGroupClearBits                   0x08007b70   Section        0  event_groups.o(i.xEventGroupClearBits)
    i.xEventGroupCreate                      0x08007bd4   Section        0  event_groups.o(i.xEventGroupCreate)
    i.xEventGroupSetBits                     0x08007bf0   Section        0  event_groups.o(i.xEventGroupSetBits)
    i.xEventGroupSetBitsFromISR              0x08007ca0   Section        0  event_groups.o(i.xEventGroupSetBitsFromISR)
    i.xEventGroupWaitBits                    0x08007cb0   Section        0  event_groups.o(i.xEventGroupWaitBits)
    i.xPortStartScheduler                    0x08007dd0   Section        0  port.o(i.xPortStartScheduler)
    i.xPortSysTickHandler                    0x08007ee4   Section        0  port.o(i.xPortSysTickHandler)
    i.xQueueGenericCreate                    0x08007f10   Section        0  queue.o(i.xQueueGenericCreate)
    i.xQueueGenericReceive                   0x08007f88   Section        0  queue.o(i.xQueueGenericReceive)
    i.xQueueGenericReset                     0x0800810c   Section        0  queue.o(i.xQueueGenericReset)
    i.xQueueGenericSend                      0x080081b4   Section        0  queue.o(i.xQueueGenericSend)
    i.xQueueGenericSendFromISR               0x0800833c   Section        0  queue.o(i.xQueueGenericSendFromISR)
    i.xTaskCheckForTimeOut                   0x0800841c   Section        0  tasks.o(i.xTaskCheckForTimeOut)
    i.xTaskCreate                            0x080084a4   Section        0  tasks.o(i.xTaskCreate)
    i.xTaskGetSchedulerState                 0x080084fc   Section        0  tasks.o(i.xTaskGetSchedulerState)
    i.xTaskGetTickCount                      0x08008518   Section        0  tasks.o(i.xTaskGetTickCount)
    i.xTaskIncrementTick                     0x08008524   Section        0  tasks.o(i.xTaskIncrementTick)
    i.xTaskPriorityDisinherit                0x0800860c   Section        0  tasks.o(i.xTaskPriorityDisinherit)
    i.xTaskRemoveFromEventList               0x080086c0   Section        0  tasks.o(i.xTaskRemoveFromEventList)
    i.xTaskRemoveFromUnorderedEventList      0x08008758   Section        0  tasks.o(i.xTaskRemoveFromUnorderedEventList)
    i.xTaskResumeAll                         0x080087f0   Section        0  tasks.o(i.xTaskResumeAll)
    i.xTimerCreate                           0x080088d4   Section        0  timers.o(i.xTimerCreate)
    i.xTimerCreateTimerTask                  0x08008948   Section        0  timers.o(i.xTimerCreateTimerTask)
    i.xTimerGenericCommand                   0x080089bc   Section        0  timers.o(i.xTimerGenericCommand)
    i.xTimerPendFunctionCallFromISR          0x08008a4c   Section        0  timers.o(i.xTimerPendFunctionCallFromISR)
    x$fpl$fpinit                             0x08008a74   Section       10  fpinit.o(x$fpl$fpinit)
    $v0                                      0x08008a74   Number         0  fpinit.o(x$fpl$fpinit)
    .constdata                               0x08008a7e   Section        5  main.o(.constdata)
    __func__                                 0x08008a7e   Data           5  main.o(.constdata)
    .constdata                               0x08008a83   Section       16  stm32f4xx_hal_rcc.o(.constdata)
    .constdata                               0x08008a93   Section       48  key.o(.constdata)
    __func__                                 0x08008a93   Data          16  key.o(.constdata)
    __func__                                 0x08008aa3   Data          16  key.o(.constdata)
    __func__                                 0x08008ab3   Data          16  key.o(.constdata)
    .constdata                               0x08008ac3   Section      246  swd_flash.o(.constdata)
    __func__                                 0x08008ac3   Data          20  swd_flash.o(.constdata)
    __func__                                 0x08008ad7   Data          22  swd_flash.o(.constdata)
    __func__                                 0x08008aed   Data          23  swd_flash.o(.constdata)
    __func__                                 0x08008b04   Data          17  swd_flash.o(.constdata)
    __func__                                 0x08008b15   Data          20  swd_flash.o(.constdata)
    __func__                                 0x08008b29   Data          22  swd_flash.o(.constdata)
    __func__                                 0x08008b3f   Data          23  swd_flash.o(.constdata)
    __func__                                 0x08008b56   Data          17  swd_flash.o(.constdata)
    __func__                                 0x08008b67   Data          20  swd_flash.o(.constdata)
    __func__                                 0x08008b7b   Data          22  swd_flash.o(.constdata)
    __func__                                 0x08008b91   Data          23  swd_flash.o(.constdata)
    __func__                                 0x08008ba8   Data          17  swd_flash.o(.constdata)
    .constdata                               0x08008bb9   Section      237  swd_host.o(.constdata)
    __func__                                 0x08008bb9   Data          25  swd_host.o(.constdata)
    __func__                                 0x08008bd2   Data          11  swd_host.o(.constdata)
    __func__                                 0x08008bdd   Data          17  swd_host.o(.constdata)
    __func__                                 0x08008bee   Data          26  swd_host.o(.constdata)
    __func__                                 0x08008c08   Data          25  swd_host.o(.constdata)
    __func__                                 0x08008c21   Data          11  swd_host.o(.constdata)
    __func__                                 0x08008c2c   Data          17  swd_host.o(.constdata)
    __func__                                 0x08008c3d   Data          26  swd_host.o(.constdata)
    __func__                                 0x08008c57   Data          25  swd_host.o(.constdata)
    __func__                                 0x08008c70   Data          11  swd_host.o(.constdata)
    __func__                                 0x08008c7b   Data          17  swd_host.o(.constdata)
    __func__                                 0x08008c8c   Data          26  swd_host.o(.constdata)
    .constdata                               0x08008ca6   Section       40  _printf_hex_int.o(.constdata)
    uc_hextab                                0x08008ca6   Data          20  _printf_hex_int.o(.constdata)
    lc_hextab                                0x08008cba   Data          20  _printf_hex_int.o(.constdata)
    .conststring                             0x08008cd0   Section      169  key.o(.conststring)
    .conststring                             0x08008d7c   Section      287  swd_flash.o(.conststring)
    .conststring                             0x08008e9c   Section     1616  swd_host.o(.conststring)
    .data                                    0x20000000   Section       28  main.o(.data)
    .data                                    0x2000001c   Section       20  system_stm32f4xx.o(.data)
    .data                                    0x20000030   Section        4  stm32f4xx_hal.o(.data)
    uwTick                                   0x20000030   Data           4  stm32f4xx_hal.o(.data)
    .data                                    0x20000034   Section        8  delay.o(.data)
    fac_ms                                   0x20000034   Data           2  delay.o(.data)
    fac_us                                   0x20000038   Data           4  delay.o(.data)
    .data                                    0x2000003c   Section        4  usart.o(.data)
    .data                                    0x20000040   Section        4  usart.o(.data)
    .data                                    0x20000044   Section        1  key.o(.data)
    key_up                                   0x20000044   Data           1  key.o(.data)
    .data                                    0x20000048   Section       32  thinktech_pack.o(.data)
    flashStatusAddr                          0x20000060   Data           4  thinktech_pack.o(.data)
    flashStartAddr                           0x20000064   Data           4  thinktech_pack.o(.data)
    .data                                    0x20000068   Section        2  w25qxx.o(.data)
    .data                                    0x2000006c   Section      944  flash_blob.o(.data)
    m7_flash_code                            0x2000006c   Data         944  flash_blob.o(.data)
    .data                                    0x2000041c   Section       60  flash_blob.o(.data)
    .data                                    0x20000458   Section      608  flash_blob.o(.data)
    m0_flash_code                            0x20000458   Data         608  flash_blob.o(.data)
    .data                                    0x200006b8   Section       60  flash_blob.o(.data)
    .data                                    0x200006f4   Section       48  swd_flash.o(.data)
    .data                                    0x20000724   Section       24  swd_host.o(.data)
    dap_state_1                              0x20000724   Data           8  swd_host.o(.data)
    dap_state_2                              0x2000072c   Data           8  swd_host.o(.data)
    dap_state_3                              0x20000734   Data           8  swd_host.o(.data)
    .data                                    0x2000073c   Section       60  tasks.o(.data)
    uxDeletedTasksWaitingCleanUp             0x20000740   Data           4  tasks.o(.data)
    uxCurrentNumberOfTasks                   0x20000744   Data           4  tasks.o(.data)
    xTickCount                               0x20000748   Data           4  tasks.o(.data)
    uxTopReadyPriority                       0x2000074c   Data           4  tasks.o(.data)
    xSchedulerRunning                        0x20000750   Data           4  tasks.o(.data)
    uxPendedTicks                            0x20000754   Data           4  tasks.o(.data)
    xYieldPending                            0x20000758   Data           4  tasks.o(.data)
    xNumOfOverflows                          0x2000075c   Data           4  tasks.o(.data)
    uxTaskNumber                             0x20000760   Data           4  tasks.o(.data)
    xNextTaskUnblockTime                     0x20000764   Data           4  tasks.o(.data)
    xIdleTaskHandle                          0x20000768   Data           4  tasks.o(.data)
    uxSchedulerSuspended                     0x2000076c   Data           4  tasks.o(.data)
    pxDelayedTaskList                        0x20000770   Data           4  tasks.o(.data)
    pxOverflowDelayedTaskList                0x20000774   Data           4  tasks.o(.data)
    .data                                    0x20000778   Section       20  timers.o(.data)
    xTimerQueue                              0x20000778   Data           4  timers.o(.data)
    xTimerTaskHandle                         0x2000077c   Data           4  timers.o(.data)
    xLastTime                                0x20000780   Data           4  timers.o(.data)
    pxCurrentTimerList                       0x20000784   Data           4  timers.o(.data)
    pxOverflowTimerList                      0x20000788   Data           4  timers.o(.data)
    .data                                    0x2000078c   Section       12  port.o(.data)
    ucMaxSysCallPriority                     0x2000078c   Data           1  port.o(.data)
    uxCriticalNesting                        0x20000790   Data           4  port.o(.data)
    ulMaxPRIGROUPValue                       0x20000794   Data           4  port.o(.data)
    .data                                    0x20000798   Section       24  heap_4.o(.data)
    pxEnd                                    0x20000798   Data           4  heap_4.o(.data)
    xFreeBytesRemaining                      0x2000079c   Data           4  heap_4.o(.data)
    xMinimumEverFreeBytesRemaining           0x200007a0   Data           4  heap_4.o(.data)
    xBlockAllocatedBit                       0x200007a4   Data           4  heap_4.o(.data)
    xStart                                   0x200007a8   Data           8  heap_4.o(.data)
    .bss                                     0x200007b0   Section      264  usart.o(.bss)
    .bss                                     0x200008b8   Section      400  key.o(.bss)
    .bss                                     0x20000a48   Section       88  spi.o(.bss)
    .bss                                     0x20000aa0   Section     2756  thinktech_pack.o(.bss)
    USART3Handler                            0x20000ea0   Data          64  thinktech_pack.o(.bss)
    .bss                                     0x20001564   Section     4096  w25qxx.o(.bss)
    .bss                                     0x20002564   Section       48  dap.o(.bss)
    .bss                                     0x20002594   Section    98304  swd_flash.o(.bss)
    .bss                                     0x2001a594   Section       64  queue.o(.bss)
    .bss                                     0x2001a5d4   Section      740  tasks.o(.bss)
    pxReadyTasksLists                        0x2001a5d4   Data         640  tasks.o(.bss)
    xDelayedTaskList1                        0x2001a854   Data          20  tasks.o(.bss)
    xDelayedTaskList2                        0x2001a868   Data          20  tasks.o(.bss)
    xPendingReadyList                        0x2001a87c   Data          20  tasks.o(.bss)
    xTasksWaitingTermination                 0x2001a890   Data          20  tasks.o(.bss)
    xSuspendedTaskList                       0x2001a8a4   Data          20  tasks.o(.bss)
    .bss                                     0x2001a8b8   Section       40  timers.o(.bss)
    xActiveTimerList1                        0x2001a8b8   Data          20  timers.o(.bss)
    xActiveTimerList2                        0x2001a8cc   Data          20  timers.o(.bss)
    .bss                                     0x2001a8e0   Section    47104  heap_4.o(.bss)
    ucHeap                                   0x2001a8e0   Data       47104  heap_4.o(.bss)
    .bss                                     0x200260e0   Section       96  libspace.o(.bss)
    HEAP                                     0x20026140   Section      512  startup_stm32f429xx.o(HEAP)
    Heap_Mem                                 0x20026140   Data         512  startup_stm32f429xx.o(HEAP)
    STACK                                    0x20026340   Section     1024  startup_stm32f429xx.o(STACK)
    Stack_Mem                                0x20026340   Data        1024  startup_stm32f429xx.o(STACK)
    __initial_sp                             0x20026740   Data           0  startup_stm32f429xx.o(STACK)

    Global Symbols

    Symbol Name                              Value     Ov Type        Size  Object(Section)

    BuildAttributes$$THM_ISAv4$E$P$D$K$B$S$7EM$VFPi3$EXTD16$VFPS$VFMA$PE$A:L22UL41UL21$X:L11$S22US41US21$IEEE1$IW$USESV6$~STKCKD$USESV7$~SHL$OSPACE$ROPI$EBA8$UX$STANDARDLIB$REQ8$PRES8$EABIv2 0x00000000   Number         0  anon$$obj.o ABSOLUTE
    __ARM_use_no_argv                        0x00000000   Number         0  main.o ABSOLUTE
    _printf_flags                            0x00000000   Number         0  printf_stubs.o ABSOLUTE
    _printf_return_value                     0x00000000   Number         0  printf_stubs.o ABSOLUTE
    _printf_sizespec                         0x00000000   Number         0  printf_stubs.o ABSOLUTE
    _printf_widthprec                        0x00000000   Number         0  printf_stubs.o ABSOLUTE
    __ARM_exceptions_init                     - Undefined Weak Reference
    __alloca_initialize                       - Undefined Weak Reference
    __arm_fini_                               - Undefined Weak Reference
    __arm_preinit_                            - Undefined Weak Reference
    __cpp_initialize__aeabi_                  - Undefined Weak Reference
    __cxa_finalize                            - Undefined Weak Reference
    __rt_locale                               - Undefined Weak Reference
    __sigvec_lookup                           - Undefined Weak Reference
    _atexit_init                              - Undefined Weak Reference
    _call_atexit_fns                          - Undefined Weak Reference
    _clock_init                               - Undefined Weak Reference
    _fp_trap_init                             - Undefined Weak Reference
    _fp_trap_shutdown                         - Undefined Weak Reference
    _get_lc_collate                           - Undefined Weak Reference
    _get_lc_ctype                             - Undefined Weak Reference
    _get_lc_monetary                          - Undefined Weak Reference
    _get_lc_numeric                           - Undefined Weak Reference
    _get_lc_time                              - Undefined Weak Reference
    _getenv_init                              - Undefined Weak Reference
    _handle_redirection                       - Undefined Weak Reference
    _init_alloc                               - Undefined Weak Reference
    _init_user_alloc                          - Undefined Weak Reference
    _initio                                   - Undefined Weak Reference
    _mutex_acquire                            - Undefined Weak Reference
    _mutex_release                            - Undefined Weak Reference
    _printf_mbtowc                            - Undefined Weak Reference
    _printf_post_padding                      - Undefined Weak Reference
    _printf_pre_padding                       - Undefined Weak Reference
    _printf_truncate_signed                   - Undefined Weak Reference
    _printf_truncate_unsigned                 - Undefined Weak Reference
    _rand_init                                - Undefined Weak Reference
    _signal_finish                            - Undefined Weak Reference
    _signal_init                              - Undefined Weak Reference
    _terminate_alloc                          - Undefined Weak Reference
    _terminate_user_alloc                     - Undefined Weak Reference
    _terminateio                              - Undefined Weak Reference
    __Vectors_Size                           0x000001ac   Number         0  startup_stm32f429xx.o ABSOLUTE
    __Vectors                                0x08000000   Data           4  startup_stm32f429xx.o(RESET)
    __Vectors_End                            0x080001ac   Data           0  startup_stm32f429xx.o(RESET)
    __main                                   0x080001ad   Thumb Code     8  __main.o(!!!main)
    __scatterload                            0x080001b5   Thumb Code     0  __scatter.o(!!!scatter)
    __scatterload_rt2                        0x080001b5   Thumb Code    44  __scatter.o(!!!scatter)
    __scatterload_rt2_thumb_only             0x080001b5   Thumb Code     0  __scatter.o(!!!scatter)
    __scatterload_null                       0x080001c3   Thumb Code     0  __scatter.o(!!!scatter)
    __decompress                             0x080001e9   Thumb Code   100  __dclz77c.o(!!dclz77c)
    __decompress2                            0x080001e9   Thumb Code     0  __dclz77c.o(!!dclz77c)
    __scatterload_zeroinit                   0x0800024d   Thumb Code    28  __scatter_zi.o(!!handler_zi)
    _printf_d                                0x08000269   Thumb Code     0  _printf_d.o(.ARM.Collect$$_printf_percent$$00000009)
    _printf_percent                          0x08000269   Thumb Code     0  _printf_percent.o(.ARM.Collect$$_printf_percent$$00000000)
    _printf_u                                0x0800026f   Thumb Code     0  _printf_u.o(.ARM.Collect$$_printf_percent$$0000000A)
    _printf_x                                0x08000275   Thumb Code     0  _printf_x.o(.ARM.Collect$$_printf_percent$$0000000C)
    _printf_c                                0x0800027b   Thumb Code     0  _printf_c.o(.ARM.Collect$$_printf_percent$$00000013)
    _printf_s                                0x08000281   Thumb Code     0  _printf_s.o(.ARM.Collect$$_printf_percent$$00000014)
    _printf_percent_end                      0x08000287   Thumb Code     0  _printf_percent_end.o(.ARM.Collect$$_printf_percent$$00000017)
    __rt_lib_init                            0x0800028b   Thumb Code     0  libinit.o(.ARM.Collect$$libinit$$00000000)
    __rt_lib_init_fp_1                       0x0800028d   Thumb Code     0  libinit2.o(.ARM.Collect$$libinit$$00000001)
    __rt_lib_init_alloca_1                   0x08000291   Thumb Code     0  libinit2.o(.ARM.Collect$$libinit$$0000002E)
    __rt_lib_init_argv_1                     0x08000291   Thumb Code     0  libinit2.o(.ARM.Collect$$libinit$$0000002C)
    __rt_lib_init_atexit_1                   0x08000291   Thumb Code     0  libinit2.o(.ARM.Collect$$libinit$$0000001B)
    __rt_lib_init_clock_1                    0x08000291   Thumb Code     0  libinit2.o(.ARM.Collect$$libinit$$00000021)
    __rt_lib_init_cpp_1                      0x08000291   Thumb Code     0  libinit2.o(.ARM.Collect$$libinit$$00000032)
    __rt_lib_init_exceptions_1               0x08000291   Thumb Code     0  libinit2.o(.ARM.Collect$$libinit$$00000030)
    __rt_lib_init_fp_trap_1                  0x08000291   Thumb Code     0  libinit2.o(.ARM.Collect$$libinit$$0000001F)
    __rt_lib_init_getenv_1                   0x08000291   Thumb Code     0  libinit2.o(.ARM.Collect$$libinit$$00000023)
    __rt_lib_init_heap_1                     0x08000291   Thumb Code     0  libinit2.o(.ARM.Collect$$libinit$$0000000A)
    __rt_lib_init_lc_collate_1               0x08000291   Thumb Code     0  libinit2.o(.ARM.Collect$$libinit$$00000011)
    __rt_lib_init_lc_ctype_1                 0x08000291   Thumb Code     0  libinit2.o(.ARM.Collect$$libinit$$00000013)
    __rt_lib_init_lc_monetary_1              0x08000291   Thumb Code     0  libinit2.o(.ARM.Collect$$libinit$$00000015)
    __rt_lib_init_lc_numeric_1               0x08000291   Thumb Code     0  libinit2.o(.ARM.Collect$$libinit$$00000017)
    __rt_lib_init_lc_time_1                  0x08000291   Thumb Code     0  libinit2.o(.ARM.Collect$$libinit$$00000019)
    __rt_lib_init_preinit_1                  0x08000291   Thumb Code     0  libinit2.o(.ARM.Collect$$libinit$$00000004)
    __rt_lib_init_rand_1                     0x08000291   Thumb Code     0  libinit2.o(.ARM.Collect$$libinit$$0000000E)
    __rt_lib_init_return                     0x08000291   Thumb Code     0  libinit2.o(.ARM.Collect$$libinit$$00000033)
    __rt_lib_init_signal_1                   0x08000291   Thumb Code     0  libinit2.o(.ARM.Collect$$libinit$$0000001D)
    __rt_lib_init_stdio_1                    0x08000291   Thumb Code     0  libinit2.o(.ARM.Collect$$libinit$$00000025)
    __rt_lib_init_user_alloc_1               0x08000291   Thumb Code     0  libinit2.o(.ARM.Collect$$libinit$$0000000C)
    __rt_lib_shutdown                        0x08000293   Thumb Code     0  libshutdown.o(.ARM.Collect$$libshutdown$$00000000)
    __rt_lib_shutdown_cpp_1                  0x08000295   Thumb Code     0  libshutdown2.o(.ARM.Collect$$libshutdown$$00000004)
    __rt_lib_shutdown_fini_1                 0x08000295   Thumb Code     0  libshutdown2.o(.ARM.Collect$$libshutdown$$00000002)
    __rt_lib_shutdown_fp_trap_1              0x08000295   Thumb Code     0  libshutdown2.o(.ARM.Collect$$libshutdown$$00000009)
    __rt_lib_shutdown_heap_1                 0x08000295   Thumb Code     0  libshutdown2.o(.ARM.Collect$$libshutdown$$00000011)
    __rt_lib_shutdown_return                 0x08000295   Thumb Code     0  libshutdown2.o(.ARM.Collect$$libshutdown$$00000012)
    __rt_lib_shutdown_signal_1               0x08000295   Thumb Code     0  libshutdown2.o(.ARM.Collect$$libshutdown$$0000000C)
    __rt_lib_shutdown_stdio_1                0x08000295   Thumb Code     0  libshutdown2.o(.ARM.Collect$$libshutdown$$00000006)
    __rt_lib_shutdown_user_alloc_1           0x08000295   Thumb Code     0  libshutdown2.o(.ARM.Collect$$libshutdown$$0000000E)
    __rt_entry                               0x08000297   Thumb Code     0  __rtentry.o(.ARM.Collect$$rtentry$$00000000)
    __rt_entry_presh_1                       0x08000297   Thumb Code     0  __rtentry2.o(.ARM.Collect$$rtentry$$00000002)
    __rt_entry_sh                            0x08000297   Thumb Code     0  __rtentry4.o(.ARM.Collect$$rtentry$$00000004)
    __rt_entry_li                            0x0800029d   Thumb Code     0  __rtentry2.o(.ARM.Collect$$rtentry$$0000000A)
    __rt_entry_postsh_1                      0x0800029d   Thumb Code     0  __rtentry2.o(.ARM.Collect$$rtentry$$00000009)
    __rt_entry_main                          0x080002a1   Thumb Code     0  __rtentry2.o(.ARM.Collect$$rtentry$$0000000D)
    __rt_entry_postli_1                      0x080002a1   Thumb Code     0  __rtentry2.o(.ARM.Collect$$rtentry$$0000000C)
    __rt_exit                                0x080002a9   Thumb Code     0  rtexit.o(.ARM.Collect$$rtexit$$00000000)
    __rt_exit_ls                             0x080002ab   Thumb Code     0  rtexit2.o(.ARM.Collect$$rtexit$$00000003)
    __rt_exit_prels_1                        0x080002ab   Thumb Code     0  rtexit2.o(.ARM.Collect$$rtexit$$00000002)
    __rt_exit_exit                           0x080002af   Thumb Code     0  rtexit2.o(.ARM.Collect$$rtexit$$00000004)
    SVC_Handler                              0x080002b5   Thumb Code    28  port.o(.emb_text)
    __asm___6_port_c_39a90d8d__prvStartFirstTask 0x080002d5   Thumb Code    28  port.o(.emb_text)
    __asm___6_port_c_39a90d8d__prvEnableVFP  0x080002f5   Thumb Code    16  port.o(.emb_text)
    PendSV_Handler                           0x08000309   Thumb Code    88  port.o(.emb_text)
    vPortGetIPSR                             0x08000365   Thumb Code     6  port.o(.emb_text)
    Reset_Handler                            0x0800036d   Thumb Code     8  startup_stm32f429xx.o(.text)
    ADC_IRQHandler                           0x08000387   Thumb Code     0  startup_stm32f429xx.o(.text)
    CAN1_RX0_IRQHandler                      0x08000387   Thumb Code     0  startup_stm32f429xx.o(.text)
    CAN1_RX1_IRQHandler                      0x08000387   Thumb Code     0  startup_stm32f429xx.o(.text)
    CAN1_SCE_IRQHandler                      0x08000387   Thumb Code     0  startup_stm32f429xx.o(.text)
    CAN1_TX_IRQHandler                       0x08000387   Thumb Code     0  startup_stm32f429xx.o(.text)
    CAN2_RX0_IRQHandler                      0x08000387   Thumb Code     0  startup_stm32f429xx.o(.text)
    CAN2_RX1_IRQHandler                      0x08000387   Thumb Code     0  startup_stm32f429xx.o(.text)
    CAN2_SCE_IRQHandler                      0x08000387   Thumb Code     0  startup_stm32f429xx.o(.text)
    CAN2_TX_IRQHandler                       0x08000387   Thumb Code     0  startup_stm32f429xx.o(.text)
    DCMI_IRQHandler                          0x08000387   Thumb Code     0  startup_stm32f429xx.o(.text)
    DMA1_Stream0_IRQHandler                  0x08000387   Thumb Code     0  startup_stm32f429xx.o(.text)
    DMA1_Stream1_IRQHandler                  0x08000387   Thumb Code     0  startup_stm32f429xx.o(.text)
    DMA1_Stream2_IRQHandler                  0x08000387   Thumb Code     0  startup_stm32f429xx.o(.text)
    DMA1_Stream3_IRQHandler                  0x08000387   Thumb Code     0  startup_stm32f429xx.o(.text)
    DMA1_Stream4_IRQHandler                  0x08000387   Thumb Code     0  startup_stm32f429xx.o(.text)
    DMA1_Stream5_IRQHandler                  0x08000387   Thumb Code     0  startup_stm32f429xx.o(.text)
    DMA1_Stream6_IRQHandler                  0x08000387   Thumb Code     0  startup_stm32f429xx.o(.text)
    DMA1_Stream7_IRQHandler                  0x08000387   Thumb Code     0  startup_stm32f429xx.o(.text)
    DMA2D_IRQHandler                         0x08000387   Thumb Code     0  startup_stm32f429xx.o(.text)
    DMA2_Stream0_IRQHandler                  0x08000387   Thumb Code     0  startup_stm32f429xx.o(.text)
    DMA2_Stream1_IRQHandler                  0x08000387   Thumb Code     0  startup_stm32f429xx.o(.text)
    DMA2_Stream2_IRQHandler                  0x08000387   Thumb Code     0  startup_stm32f429xx.o(.text)
    DMA2_Stream3_IRQHandler                  0x08000387   Thumb Code     0  startup_stm32f429xx.o(.text)
    DMA2_Stream4_IRQHandler                  0x08000387   Thumb Code     0  startup_stm32f429xx.o(.text)
    DMA2_Stream5_IRQHandler                  0x08000387   Thumb Code     0  startup_stm32f429xx.o(.text)
    DMA2_Stream6_IRQHandler                  0x08000387   Thumb Code     0  startup_stm32f429xx.o(.text)
    DMA2_Stream7_IRQHandler                  0x08000387   Thumb Code     0  startup_stm32f429xx.o(.text)
    ETH_IRQHandler                           0x08000387   Thumb Code     0  startup_stm32f429xx.o(.text)
    ETH_WKUP_IRQHandler                      0x08000387   Thumb Code     0  startup_stm32f429xx.o(.text)
    EXTI0_IRQHandler                         0x08000387   Thumb Code     0  startup_stm32f429xx.o(.text)
    EXTI15_10_IRQHandler                     0x08000387   Thumb Code     0  startup_stm32f429xx.o(.text)
    EXTI1_IRQHandler                         0x08000387   Thumb Code     0  startup_stm32f429xx.o(.text)
    EXTI2_IRQHandler                         0x08000387   Thumb Code     0  startup_stm32f429xx.o(.text)
    EXTI3_IRQHandler                         0x08000387   Thumb Code     0  startup_stm32f429xx.o(.text)
    EXTI4_IRQHandler                         0x08000387   Thumb Code     0  startup_stm32f429xx.o(.text)
    EXTI9_5_IRQHandler                       0x08000387   Thumb Code     0  startup_stm32f429xx.o(.text)
    FLASH_IRQHandler                         0x08000387   Thumb Code     0  startup_stm32f429xx.o(.text)
    FMC_IRQHandler                           0x08000387   Thumb Code     0  startup_stm32f429xx.o(.text)
    FPU_IRQHandler                           0x08000387   Thumb Code     0  startup_stm32f429xx.o(.text)
    HASH_RNG_IRQHandler                      0x08000387   Thumb Code     0  startup_stm32f429xx.o(.text)
    I2C1_ER_IRQHandler                       0x08000387   Thumb Code     0  startup_stm32f429xx.o(.text)
    I2C1_EV_IRQHandler                       0x08000387   Thumb Code     0  startup_stm32f429xx.o(.text)
    I2C2_ER_IRQHandler                       0x08000387   Thumb Code     0  startup_stm32f429xx.o(.text)
    I2C2_EV_IRQHandler                       0x08000387   Thumb Code     0  startup_stm32f429xx.o(.text)
    I2C3_ER_IRQHandler                       0x08000387   Thumb Code     0  startup_stm32f429xx.o(.text)
    I2C3_EV_IRQHandler                       0x08000387   Thumb Code     0  startup_stm32f429xx.o(.text)
    LTDC_ER_IRQHandler                       0x08000387   Thumb Code     0  startup_stm32f429xx.o(.text)
    LTDC_IRQHandler                          0x08000387   Thumb Code     0  startup_stm32f429xx.o(.text)
    OTG_FS_IRQHandler                        0x08000387   Thumb Code     0  startup_stm32f429xx.o(.text)
    OTG_FS_WKUP_IRQHandler                   0x08000387   Thumb Code     0  startup_stm32f429xx.o(.text)
    OTG_HS_EP1_IN_IRQHandler                 0x08000387   Thumb Code     0  startup_stm32f429xx.o(.text)
    OTG_HS_EP1_OUT_IRQHandler                0x08000387   Thumb Code     0  startup_stm32f429xx.o(.text)
    OTG_HS_IRQHandler                        0x08000387   Thumb Code     0  startup_stm32f429xx.o(.text)
    OTG_HS_WKUP_IRQHandler                   0x08000387   Thumb Code     0  startup_stm32f429xx.o(.text)
    PVD_IRQHandler                           0x08000387   Thumb Code     0  startup_stm32f429xx.o(.text)
    RCC_IRQHandler                           0x08000387   Thumb Code     0  startup_stm32f429xx.o(.text)
    RTC_Alarm_IRQHandler                     0x08000387   Thumb Code     0  startup_stm32f429xx.o(.text)
    RTC_WKUP_IRQHandler                      0x08000387   Thumb Code     0  startup_stm32f429xx.o(.text)
    SAI1_IRQHandler                          0x08000387   Thumb Code     0  startup_stm32f429xx.o(.text)
    SDIO_IRQHandler                          0x08000387   Thumb Code     0  startup_stm32f429xx.o(.text)
    SPI1_IRQHandler                          0x08000387   Thumb Code     0  startup_stm32f429xx.o(.text)
    SPI2_IRQHandler                          0x08000387   Thumb Code     0  startup_stm32f429xx.o(.text)
    SPI3_IRQHandler                          0x08000387   Thumb Code     0  startup_stm32f429xx.o(.text)
    SPI4_IRQHandler                          0x08000387   Thumb Code     0  startup_stm32f429xx.o(.text)
    SPI5_IRQHandler                          0x08000387   Thumb Code     0  startup_stm32f429xx.o(.text)
    SPI6_IRQHandler                          0x08000387   Thumb Code     0  startup_stm32f429xx.o(.text)
    TAMP_STAMP_IRQHandler                    0x08000387   Thumb Code     0  startup_stm32f429xx.o(.text)
    TIM1_BRK_TIM9_IRQHandler                 0x08000387   Thumb Code     0  startup_stm32f429xx.o(.text)
    TIM1_CC_IRQHandler                       0x08000387   Thumb Code     0  startup_stm32f429xx.o(.text)
    TIM1_TRG_COM_TIM11_IRQHandler            0x08000387   Thumb Code     0  startup_stm32f429xx.o(.text)
    TIM1_UP_TIM10_IRQHandler                 0x08000387   Thumb Code     0  startup_stm32f429xx.o(.text)
    TIM2_IRQHandler                          0x08000387   Thumb Code     0  startup_stm32f429xx.o(.text)
    TIM3_IRQHandler                          0x08000387   Thumb Code     0  startup_stm32f429xx.o(.text)
    TIM4_IRQHandler                          0x08000387   Thumb Code     0  startup_stm32f429xx.o(.text)
    TIM5_IRQHandler                          0x08000387   Thumb Code     0  startup_stm32f429xx.o(.text)
    TIM6_DAC_IRQHandler                      0x08000387   Thumb Code     0  startup_stm32f429xx.o(.text)
    TIM7_IRQHandler                          0x08000387   Thumb Code     0  startup_stm32f429xx.o(.text)
    TIM8_BRK_TIM12_IRQHandler                0x08000387   Thumb Code     0  startup_stm32f429xx.o(.text)
    TIM8_CC_IRQHandler                       0x08000387   Thumb Code     0  startup_stm32f429xx.o(.text)
    TIM8_TRG_COM_TIM14_IRQHandler            0x08000387   Thumb Code     0  startup_stm32f429xx.o(.text)
    TIM8_UP_TIM13_IRQHandler                 0x08000387   Thumb Code     0  startup_stm32f429xx.o(.text)
    UART4_IRQHandler                         0x08000387   Thumb Code     0  startup_stm32f429xx.o(.text)
    UART5_IRQHandler                         0x08000387   Thumb Code     0  startup_stm32f429xx.o(.text)
    UART7_IRQHandler                         0x08000387   Thumb Code     0  startup_stm32f429xx.o(.text)
    UART8_IRQHandler                         0x08000387   Thumb Code     0  startup_stm32f429xx.o(.text)
    USART2_IRQHandler                        0x08000387   Thumb Code     0  startup_stm32f429xx.o(.text)
    USART6_IRQHandler                        0x08000387   Thumb Code     0  startup_stm32f429xx.o(.text)
    WWDG_IRQHandler                          0x08000387   Thumb Code     0  startup_stm32f429xx.o(.text)
    __user_initial_stackheap                 0x08000389   Thumb Code     0  startup_stm32f429xx.o(.text)
    __use_no_semihosting                     0x080003ad   Thumb Code     2  use_no_semi_2.o(.text)
    __2printf                                0x080003b1   Thumb Code    20  noretval__2printf.o(.text)
    __2sprintf                               0x080003c9   Thumb Code    34  noretval__2sprintf.o(.text)
    _printf_str                              0x080003f1   Thumb Code    82  _printf_str.o(.text)
    _printf_int_dec                          0x08000445   Thumb Code   104  _printf_dec.o(.text)
    _printf_int_hex                          0x080004bd   Thumb Code    84  _printf_hex_int.o(.text)
    _printf_longlong_hex                     0x080004bd   Thumb Code     0  _printf_hex_int.o(.text)
    __printf                                 0x08000515   Thumb Code   270  __printf_wp.o(.text)
    strcpy                                   0x08000623   Thumb Code    72  strcpy.o(.text)
    strlen                                   0x0800066b   Thumb Code    62  strlen.o(.text)
    __aeabi_memcpy                           0x080006a9   Thumb Code     0  rt_memcpy_v6.o(.text)
    __rt_memcpy                              0x080006a9   Thumb Code   138  rt_memcpy_v6.o(.text)
    _memcpy_lastbytes                        0x0800070f   Thumb Code     0  rt_memcpy_v6.o(.text)
    __aeabi_memcpy4                          0x08000733   Thumb Code     0  rt_memcpy_w.o(.text)
    __aeabi_memcpy8                          0x08000733   Thumb Code     0  rt_memcpy_w.o(.text)
    __rt_memcpy_w                            0x08000733   Thumb Code   100  rt_memcpy_w.o(.text)
    _memcpy_lastbytes_aligned                0x0800077b   Thumb Code     0  rt_memcpy_w.o(.text)
    __aeabi_memset                           0x08000797   Thumb Code    16  aeabi_memset.o(.text)
    __aeabi_memclr4                          0x080007a7   Thumb Code     0  rt_memclr_w.o(.text)
    __aeabi_memclr8                          0x080007a7   Thumb Code     0  rt_memclr_w.o(.text)
    __rt_memclr_w                            0x080007a7   Thumb Code    78  rt_memclr_w.o(.text)
    _memset_w                                0x080007ab   Thumb Code     0  rt_memclr_w.o(.text)
    __use_two_region_memory                  0x080007f5   Thumb Code     2  heapauxi.o(.text)
    __rt_heap_escrow$2region                 0x080007f7   Thumb Code     2  heapauxi.o(.text)
    __rt_heap_expand$2region                 0x080007f9   Thumb Code     2  heapauxi.o(.text)
    __I$use$semihosting                      0x080007fb   Thumb Code     0  use_no_semi.o(.text)
    __use_no_semihosting_swi                 0x080007fb   Thumb Code     2  use_no_semi.o(.text)
    _printf_int_common                       0x080007fd   Thumb Code   178  _printf_intcommon.o(.text)
    _printf_char_common                      0x080008bb   Thumb Code    32  _printf_char_common.o(.text)
    _sputc                                   0x080008e1   Thumb Code    10  _sputc.o(.text)
    _printf_cs_common                        0x080008eb   Thumb Code    20  _printf_char.o(.text)
    _printf_char                             0x080008ff   Thumb Code    16  _printf_char.o(.text)
    _printf_string                           0x0800090f   Thumb Code     8  _printf_char.o(.text)
    _printf_char_file                        0x08000919   Thumb Code    32  _printf_char_file.o(.text)
    __aeabi_memclr                           0x0800093d   Thumb Code     0  rt_memclr.o(.text)
    __rt_memclr                              0x0800093d   Thumb Code    68  rt_memclr.o(.text)
    _memset                                  0x08000941   Thumb Code     0  rt_memclr.o(.text)
    ferror                                   0x08000981   Thumb Code     8  ferror.o(.text)
    __user_setup_stackheap                   0x08000989   Thumb Code    74  sys_stackheap_outer.o(.text)
    exit                                     0x080009d3   Thumb Code    18  exit.o(.text)
    __user_libspace                          0x080009e5   Thumb Code     8  libspace.o(.text)
    __user_perproc_libspace                  0x080009e5   Thumb Code     0  libspace.o(.text)
    __user_perthread_libspace                0x080009e5   Thumb Code     0  libspace.o(.text)
    BusFault_Handler                         0x080009ed   Thumb Code     2  stm32f4xx_it.o(i.BusFault_Handler)
    DAP_Setup_1                              0x080009f1   Thumb Code    56  dap.o(i.DAP_Setup_1)
    DAP_Setup_2                              0x08000a39   Thumb Code    54  dap.o(i.DAP_Setup_2)
    DAP_Setup_3                              0x08000a81   Thumb Code    54  dap.o(i.DAP_Setup_3)
    DebugMon_Handler                         0x08000ac9   Thumb Code     2  stm32f4xx_it.o(i.DebugMon_Handler)
    HAL_GPIO_Init                            0x08000acd   Thumb Code   422  stm32f4xx_hal_gpio.o(i.HAL_GPIO_Init)
    HAL_GPIO_ReadPin                         0x08000ca9   Thumb Code    10  stm32f4xx_hal_gpio.o(i.HAL_GPIO_ReadPin)
    HAL_GPIO_WritePin                        0x08000cb3   Thumb Code    10  stm32f4xx_hal_gpio.o(i.HAL_GPIO_WritePin)
    HAL_GetTick                              0x08000cbd   Thumb Code     6  stm32f4xx_hal.o(i.HAL_GetTick)
    HAL_IncTick                              0x08000cc9   Thumb Code    10  stm32f4xx_hal.o(i.HAL_IncTick)
    HAL_Init                                 0x08000cd9   Thumb Code    48  stm32f4xx_hal.o(i.HAL_Init)
    HAL_InitTick                             0x08000d0d   Thumb Code    34  stm32f4xx_hal.o(i.HAL_InitTick)
    HAL_MspInit                              0x08000d2f   Thumb Code     8  stm32f4xx_hal.o(i.HAL_MspInit)
    HAL_NVIC_EnableIRQ                       0x08000d37   Thumb Code    22  stm32f4xx_hal_cortex.o(i.HAL_NVIC_EnableIRQ)
    HAL_NVIC_SetPriority                     0x08000d4d   Thumb Code    60  stm32f4xx_hal_cortex.o(i.HAL_NVIC_SetPriority)
    HAL_NVIC_SetPriorityGrouping             0x08000d8d   Thumb Code    26  stm32f4xx_hal_cortex.o(i.HAL_NVIC_SetPriorityGrouping)
    HAL_PWREx_EnableOverDrive                0x08000db1   Thumb Code   122  stm32f4xx_hal_pwr_ex.o(i.HAL_PWREx_EnableOverDrive)
    HAL_RCC_ClockConfig                      0x08000e39   Thumb Code   512  stm32f4xx_hal_rcc.o(i.HAL_RCC_ClockConfig)
    HAL_RCC_GetHCLKFreq                      0x08001041   Thumb Code    38  stm32f4xx_hal_rcc.o(i.HAL_RCC_GetHCLKFreq)
    HAL_RCC_GetPCLK1Freq                     0x08001075   Thumb Code    36  stm32f4xx_hal_rcc.o(i.HAL_RCC_GetPCLK1Freq)
    HAL_RCC_GetPCLK2Freq                     0x080010a1   Thumb Code    36  stm32f4xx_hal_rcc.o(i.HAL_RCC_GetPCLK2Freq)
    HAL_RCC_GetSysClockFreq                  0x080010cd   Thumb Code   104  stm32f4xx_hal_rcc.o(i.HAL_RCC_GetSysClockFreq)
    HAL_RCC_OscConfig                        0x08001141   Thumb Code   774  stm32f4xx_hal_rcc.o(i.HAL_RCC_OscConfig)
    HAL_SPI_Init                             0x0800145d   Thumb Code   132  stm32f4xx_hal_spi.o(i.HAL_SPI_Init)
    HAL_SPI_MspInit                          0x080014e1   Thumb Code    82  spi.o(i.HAL_SPI_MspInit)
    HAL_SPI_TransmitReceive                  0x08001541   Thumb Code   682  stm32f4xx_hal_spi.o(i.HAL_SPI_TransmitReceive)
    HAL_SYSTICK_CLKSourceConfig              0x080017eb   Thumb Code    24  stm32f4xx_hal_cortex.o(i.HAL_SYSTICK_CLKSourceConfig)
    HAL_SYSTICK_Config                       0x08001803   Thumb Code    40  stm32f4xx_hal_cortex.o(i.HAL_SYSTICK_Config)
    HAL_UART_ErrorCallback                   0x0800182b   Thumb Code     2  stm32f4xx_hal_uart.o(i.HAL_UART_ErrorCallback)
    HAL_UART_GetState                        0x0800182d   Thumb Code     6  stm32f4xx_hal_uart.o(i.HAL_UART_GetState)
    HAL_UART_IRQHandler                      0x08001833   Thumb Code   244  stm32f4xx_hal_uart.o(i.HAL_UART_IRQHandler)
    HAL_UART_Init                            0x08001927   Thumb Code    94  stm32f4xx_hal_uart.o(i.HAL_UART_Init)
    HAL_UART_MspInit                         0x08001985   Thumb Code   112  usart.o(i.HAL_UART_MspInit)
    HAL_UART_Receive_IT                      0x08001a01   Thumb Code   104  stm32f4xx_hal_uart.o(i.HAL_UART_Receive_IT)
    HAL_UART_RxCpltCallback                  0x08001a69   Thumb Code    76  usart.o(i.HAL_UART_RxCpltCallback)
    HAL_UART_TxCpltCallback                  0x08001ac1   Thumb Code     2  stm32f4xx_hal_uart.o(i.HAL_UART_TxCpltCallback)
    HardFault_Handler                        0x08001ac3   Thumb Code     2  stm32f4xx_it.o(i.HardFault_Handler)
    KEY_Init                                 0x08001cc5   Thumb Code   110  key.o(i.KEY_Init)
    KEY_Scan                                 0x08001d45   Thumb Code   200  key.o(i.KEY_Scan)
    LED_Init                                 0x08001e1d   Thumb Code    68  led.o(i.LED_Init)
    MemManage_Handler                        0x08001e69   Thumb Code     2  stm32f4xx_it.o(i.MemManage_Handler)
    MizarMsgDecode                           0x08001e6b   Thumb Code   100  thinktech_pack.o(i.MizarMsgDecode)
    MizarMsgEncode                           0x08001ecf   Thumb Code   114  thinktech_pack.o(i.MizarMsgEncode)
    NMI_Handler                              0x08001f41   Thumb Code     2  stm32f4xx_it.o(i.NMI_Handler)
    Program_Target_1                         0x08002091   Thumb Code   360  swd_flash.o(i.Program_Target_1)
    Program_Target_2                         0x0800224d   Thumb Code   360  swd_flash.o(i.Program_Target_2)
    Program_Target_3                         0x08002409   Thumb Code   360  swd_flash.o(i.Program_Target_3)
    SPI5_Init                                0x080025c5   Thumb Code    70  spi.o(i.SPI5_Init)
    SPI5_ReadWriteByte                       0x08002615   Thumb Code    28  spi.o(i.SPI5_ReadWriteByte)
    SPI5_SetSpeed                            0x08002635   Thumb Code    46  spi.o(i.SPI5_SetSpeed)
    SWD_Sequence_1                           0x08002709   Thumb Code    70  swd_dap.o(i.SWD_Sequence_1)
    SWD_Sequence_2                           0x08002759   Thumb Code    68  swd_dap.o(i.SWD_Sequence_2)
    SWD_Sequence_3                           0x080027a5   Thumb Code    68  swd_dap.o(i.SWD_Sequence_3)
    SWD_Transfer_1                           0x080027f1   Thumb Code     4  swd_dap.o(i.SWD_Transfer_1)
    SWD_Transfer_2                           0x080027f5   Thumb Code     4  swd_dap.o(i.SWD_Transfer_2)
    SWD_Transfer_3                           0x080027f9   Thumb Code     4  swd_dap.o(i.SWD_Transfer_3)
    Stm32_Clock_Init                         0x08003325   Thumb Code   122  sys.o(i.Stm32_Clock_Init)
    SysTick_Handler                          0x080033a9   Thumb Code    22  delay.o(i.SysTick_Handler)
    SystemInit                               0x080033c1   Thumb Code    66  system_stm32f4xx.o(i.SystemInit)
    USART1_IRQHandler                        0x08003699   Thumb Code    56  usart.o(i.USART1_IRQHandler)
    USART3_IRQHandler                        0x080036dd   Thumb Code   114  thinktech_pack.o(i.USART3_IRQHandler)
    UsageFault_Handler                       0x08003761   Thumb Code     2  stm32f4xx_it.o(i.UsageFault_Handler)
    W25QXX_Erase_Sector                      0x08003765   Thumb Code    80  w25qxx.o(i.W25QXX_Erase_Sector)
    W25QXX_Init                              0x080037bd   Thumb Code   106  w25qxx.o(i.W25QXX_Init)
    W25QXX_Read                              0x08003839   Thumb Code    94  w25qxx.o(i.W25QXX_Read)
    W25QXX_ReadID                            0x080038a1   Thumb Code    62  w25qxx.o(i.W25QXX_ReadID)
    W25QXX_ReadSR                            0x080038e5   Thumb Code    52  w25qxx.o(i.W25QXX_ReadSR)
    W25QXX_Wait_Busy                         0x0800391d   Thumb Code    14  w25qxx.o(i.W25QXX_Wait_Busy)
    W25QXX_Write                             0x0800392d   Thumb Code   150  w25qxx.o(i.W25QXX_Write)
    W25QXX_Write_Enable                      0x080039c9   Thumb Code    26  w25qxx.o(i.W25QXX_Write_Enable)
    W25QXX_Write_NoCheck                     0x080039e9   Thumb Code    62  w25qxx.o(i.W25QXX_Write_NoCheck)
    W25QXX_Write_Page                        0x08003a29   Thumb Code   100  w25qxx.o(i.W25QXX_Write_Page)
    _is_digit                                0x08003a95   Thumb Code    14  __printf_wp.o(i._is_digit)
    _sys_exit                                0x08003aa3   Thumb Code     2  usart.o(i._sys_exit)
    crc16_finalize                           0x08003f05   Thumb Code     6  crc16.o(i.crc16_finalize)
    crc16_init                               0x08003f0b   Thumb Code     6  crc16.o(i.crc16_init)
    crc16_update                             0x08003f11   Thumb Code    46  crc16.o(i.crc16_update)
    delay_init                               0x08003f41   Thumb Code    48  delay.o(i.delay_init)
    delay_ms                                 0x08003f75   Thumb Code    52  delay.o(i.delay_ms)
    delay_us                                 0x08003fad   Thumb Code    48  delay.o(i.delay_us)
    eTaskGetState                            0x08003fe1   Thumb Code    90  tasks.o(i.eTaskGetState)
    fputc                                    0x08004069   Thumb Code    14  usart.o(i.fputc)
    key_scan                                 0x080040c5   Thumb Code    72  key.o(i.key_scan)
    key_task                                 0x08004179   Thumb Code     6  main.o(i.key_task)
    main                                     0x08004181   Thumb Code    88  main.o(i.main)
    my_uart_send                             0x08004219   Thumb Code    38  thinktech_pack.o(i.my_uart_send)
    pvPortMalloc                             0x08004b11   Thumb Code   214  heap_4.o(i.pvPortMalloc)
    pvTaskIncrementMutexHeldCount            0x08004c25   Thumb Code    18  tasks.o(i.pvTaskIncrementMutexHeldCount)
    pxPortInitialiseStack                    0x08004c3d   Thumb Code    40  port.o(i.pxPortInitialiseStack)
    r_start_task                             0x08004c69   Thumb Code    40  main.o(i.r_start_task)
    r_timeout                                0x08004c99   Thumb Code   122  thinktech_pack.o(i.r_timeout)
    start_task                               0x08004d21   Thumb Code   134  main.o(i.start_task)
    status_clean                             0x08004e01   Thumb Code    36  thinktech_pack.o(i.status_clean)
    swd_downloade_1                          0x08004e31   Thumb Code   114  key.o(i.swd_downloade_1)
    swd_downloade_2                          0x08004eb5   Thumb Code   114  key.o(i.swd_downloade_2)
    swd_downloade_3                          0x08004f39   Thumb Code   114  key.o(i.swd_downloade_3)
    swd_flash_syscall_exec_1                 0x08004fbd   Thumb Code   244  swd_host.o(i.swd_flash_syscall_exec_1)
    swd_flash_syscall_exec_2                 0x08005139   Thumb Code   244  swd_host.o(i.swd_flash_syscall_exec_2)
    swd_flash_syscall_exec_3                 0x080052b5   Thumb Code   244  swd_host.o(i.swd_flash_syscall_exec_3)
    swd_init_1                               0x08005431   Thumb Code    88  swd_host.o(i.swd_init_1)
    swd_init_2                               0x08005491   Thumb Code    86  swd_host.o(i.swd_init_2)
    swd_init_3                               0x080054f1   Thumb Code    86  swd_host.o(i.swd_init_3)
    swd_init_debug_1                         0x08005551   Thumb Code   208  swd_host.o(i.swd_init_debug_1)
    swd_init_debug_2                         0x080056f9   Thumb Code   208  swd_host.o(i.swd_init_debug_2)
    swd_init_debug_3                         0x080058a1   Thumb Code   208  swd_host.o(i.swd_init_debug_3)
    swd_off_1                                0x08005a45   Thumb Code    34  swd_host.o(i.swd_off_1)
    swd_off_2                                0x08005a6d   Thumb Code    32  swd_host.o(i.swd_off_2)
    swd_off_3                                0x08005a91   Thumb Code    32  swd_host.o(i.swd_off_3)
    swd_read_data_1                          0x08005ab5   Thumb Code    96  swd_host.o(i.swd_read_data_1)
    swd_read_data_2                          0x08005b15   Thumb Code    96  swd_host.o(i.swd_read_data_2)
    swd_read_data_3                          0x08005b75   Thumb Code    96  swd_host.o(i.swd_read_data_3)
    swd_read_dp_1                            0x08005bd5   Thumb Code    66  swd_host.o(i.swd_read_dp_1)
    swd_read_dp_2                            0x08005c17   Thumb Code    66  swd_host.o(i.swd_read_dp_2)
    swd_read_dp_3                            0x08005c59   Thumb Code    66  swd_host.o(i.swd_read_dp_3)
    swd_read_word_1                          0x08005c9d   Thumb Code    34  swd_host.o(i.swd_read_word_1)
    swd_read_word_2                          0x08005cc5   Thumb Code    34  swd_host.o(i.swd_read_word_2)
    swd_read_word_3                          0x08005ced   Thumb Code    34  swd_host.o(i.swd_read_word_3)
    swd_set_target_reset_hw_1                0x08005d6f   Thumb Code    12  swd_host.o(i.swd_set_target_reset_hw_1)
    swd_set_target_reset_hw_2                0x08005d7b   Thumb Code    12  swd_host.o(i.swd_set_target_reset_hw_2)
    swd_set_target_reset_hw_3                0x08005d87   Thumb Code    12  swd_host.o(i.swd_set_target_reset_hw_3)
    swd_set_target_reset_sw_1                0x08005d95   Thumb Code    30  swd_host.o(i.swd_set_target_reset_sw_1)
    swd_set_target_reset_sw_2                0x08005dc1   Thumb Code    30  swd_host.o(i.swd_set_target_reset_sw_2)
    swd_set_target_reset_sw_3                0x08005ded   Thumb Code    30  swd_host.o(i.swd_set_target_reset_sw_3)
    swd_set_target_state_hw_1                0x08005e19   Thumb Code   150  swd_host.o(i.swd_set_target_state_hw_1)
    swd_set_target_state_hw_2                0x08005f01   Thumb Code   150  swd_host.o(i.swd_set_target_state_hw_2)
    swd_set_target_state_hw_3                0x08005fe9   Thumb Code   150  swd_host.o(i.swd_set_target_state_hw_3)
    swd_write_ap_1                           0x08006175   Thumb Code    96  swd_host.o(i.swd_write_ap_1)
    swd_write_ap_2                           0x080061dd   Thumb Code    96  swd_host.o(i.swd_write_ap_2)
    swd_write_ap_3                           0x08006245   Thumb Code    96  swd_host.o(i.swd_write_ap_3)
    swd_write_data_1                         0x08006529   Thumb Code    62  swd_host.o(i.swd_write_data_1)
    swd_write_data_2                         0x08006567   Thumb Code    62  swd_host.o(i.swd_write_data_2)
    swd_write_data_3                         0x080065a5   Thumb Code    62  swd_host.o(i.swd_write_data_3)
    swd_write_dp_1                           0x08006771   Thumb Code    48  swd_host.o(i.swd_write_dp_1)
    swd_write_dp_2                           0x080067a5   Thumb Code    48  swd_host.o(i.swd_write_dp_2)
    swd_write_dp_3                           0x080067d9   Thumb Code    48  swd_host.o(i.swd_write_dp_3)
    swd_write_memory_1                       0x0800680d   Thumb Code   108  swd_host.o(i.swd_write_memory_1)
    swd_write_memory_2                       0x08006879   Thumb Code   108  swd_host.o(i.swd_write_memory_2)
    swd_write_memory_3                       0x080068e5   Thumb Code   108  swd_host.o(i.swd_write_memory_3)
    swd_write_word_1                         0x08006951   Thumb Code    34  swd_host.o(i.swd_write_word_1)
    swd_write_word_2                         0x08006979   Thumb Code    34  swd_host.o(i.swd_write_word_2)
    swd_write_word_3                         0x080069a1   Thumb Code    34  swd_host.o(i.swd_write_word_3)
    target_flash_init_1                      0x080069c9   Thumb Code   142  swd_flash.o(i.target_flash_init_1)
    target_flash_init_2                      0x08006aa5   Thumb Code   148  swd_flash.o(i.target_flash_init_2)
    target_flash_init_3                      0x08006b85   Thumb Code   148  swd_flash.o(i.target_flash_init_3)
    target_flash_program_1                   0x08006c65   Thumb Code   114  swd_flash.o(i.target_flash_program_1)
    target_flash_program_2                   0x08006ced   Thumb Code   114  swd_flash.o(i.target_flash_program_2)
    target_flash_program_3                   0x08006d75   Thumb Code   114  swd_flash.o(i.target_flash_program_3)
    task1_task                               0x08006dfd   Thumb Code    28  main.o(i.task1_task)
    task2_task                               0x08006e1d   Thumb Code    28  main.o(i.task2_task)
    task3_task                               0x08006e3d   Thumb Code    28  main.o(i.task3_task)
    uart_init                                0x08006e5d   Thumb Code    44  usart.o(i.uart_init)
    usart3_init                              0x08006e95   Thumb Code   136  thinktech_pack.o(i.usart3_init)
    uxListRemove                             0x08006f2d   Thumb Code    36  list.o(i.uxListRemove)
    uxTaskGetSystemState                     0x08006f51   Thumb Code   158  tasks.o(i.uxTaskGetSystemState)
    uxTaskResetEventItemValue                0x08006ffd   Thumb Code    20  tasks.o(i.uxTaskResetEventItemValue)
    vEventGroupSetBitsCallback               0x08007015   Thumb Code     4  event_groups.o(i.vEventGroupSetBitsCallback)
    vListInitialise                          0x08007019   Thumb Code    22  list.o(i.vListInitialise)
    vListInitialiseItem                      0x0800702f   Thumb Code     6  list.o(i.vListInitialiseItem)
    vListInsert                              0x08007035   Thumb Code    48  list.o(i.vListInsert)
    vListInsertEnd                           0x08007065   Thumb Code    24  list.o(i.vListInsertEnd)
    vPortEnterCritical                       0x0800707d   Thumb Code    50  port.o(i.vPortEnterCritical)
    vPortExitCritical                        0x080070f5   Thumb Code    34  port.o(i.vPortExitCritical)
    vPortFree                                0x08007159   Thumb Code    94  heap_4.o(i.vPortFree)
    vPortSetupTimerInterrupt                 0x080071f5   Thumb Code    24  port.o(i.vPortSetupTimerInterrupt)
    vPortValidateInterruptPriority           0x08007211   Thumb Code    70  port.o(i.vPortValidateInterruptPriority)
    vQueueAddToRegistry                      0x0800729d   Thumb Code    32  queue.o(i.vQueueAddToRegistry)
    vQueueWaitForMessageRestricted           0x080072c1   Thumb Code    68  queue.o(i.vQueueWaitForMessageRestricted)
    vTaskDelay                               0x08007305   Thumb Code    62  tasks.o(i.vTaskDelay)
    vTaskDelete                              0x08007371   Thumb Code   152  tasks.o(i.vTaskDelete)
    vTaskGetInfo                             0x0800743d   Thumb Code   128  tasks.o(i.vTaskGetInfo)
    vTaskList                                0x080074c1   Thumb Code   188  tasks.o(i.vTaskList)
    vTaskMissedYield                         0x08007591   Thumb Code     8  tasks.o(i.vTaskMissedYield)
    vTaskPlaceOnEventList                    0x0800759d   Thumb Code    44  tasks.o(i.vTaskPlaceOnEventList)
    vTaskPlaceOnEventListRestricted          0x080075f1   Thumb Code    52  tasks.o(i.vTaskPlaceOnEventListRestricted)
    vTaskPlaceOnUnorderedEventList           0x0800764d   Thumb Code    72  tasks.o(i.vTaskPlaceOnUnorderedEventList)
    vTaskPriorityInherit                     0x080076bd   Thumb Code   124  tasks.o(i.vTaskPriorityInherit)
    vTaskSetTimeOutState                     0x08007741   Thumb Code    30  tasks.o(i.vTaskSetTimeOutState)
    vTaskStartScheduler                      0x08007789   Thumb Code    96  tasks.o(i.vTaskStartScheduler)
    vTaskSuspendAll                          0x0800781d   Thumb Code    10  tasks.o(i.vTaskSuspendAll)
    vTaskSwitchContext                       0x0800782d   Thumb Code    80  tasks.o(i.vTaskSwitchContext)
    wait_write_bin                           0x080078a9   Thumb Code   696  thinktech_pack.o(i.wait_write_bin)
    xEventGroupClearBits                     0x08007b71   Thumb Code    56  event_groups.o(i.xEventGroupClearBits)
    xEventGroupCreate                        0x08007bd5   Thumb Code    26  event_groups.o(i.xEventGroupCreate)
    xEventGroupSetBits                       0x08007bf1   Thumb Code   132  event_groups.o(i.xEventGroupSetBits)
    xEventGroupSetBitsFromISR                0x08007ca1   Thumb Code    12  event_groups.o(i.xEventGroupSetBitsFromISR)
    xEventGroupWaitBits                      0x08007cb1   Thumb Code   240  event_groups.o(i.xEventGroupWaitBits)
    xPortStartScheduler                      0x08007dd1   Thumb Code   196  port.o(i.xPortStartScheduler)
    xPortSysTickHandler                      0x08007ee5   Thumb Code    38  port.o(i.xPortSysTickHandler)
    xQueueGenericCreate                      0x08007f11   Thumb Code    82  queue.o(i.xQueueGenericCreate)
    xQueueGenericReceive                     0x08007f89   Thumb Code   348  queue.o(i.xQueueGenericReceive)
    xQueueGenericReset                       0x0800810d   Thumb Code   128  queue.o(i.xQueueGenericReset)
    xQueueGenericSend                        0x080081b5   Thumb Code   350  queue.o(i.xQueueGenericSend)
    xQueueGenericSendFromISR                 0x0800833d   Thumb Code   188  queue.o(i.xQueueGenericSendFromISR)
    xTaskCheckForTimeOut                     0x0800841d   Thumb Code    94  tasks.o(i.xTaskCheckForTimeOut)
    xTaskCreate                              0x080084a5   Thumb Code    86  tasks.o(i.xTaskCreate)
    xTaskGetSchedulerState                   0x080084fd   Thumb Code    22  tasks.o(i.xTaskGetSchedulerState)
    xTaskGetTickCount                        0x08008519   Thumb Code     6  tasks.o(i.xTaskGetTickCount)
    xTaskIncrementTick                       0x08008525   Thumb Code   188  tasks.o(i.xTaskIncrementTick)
    xTaskPriorityDisinherit                  0x0800860d   Thumb Code   136  tasks.o(i.xTaskPriorityDisinherit)
    xTaskRemoveFromEventList                 0x080086c1   Thumb Code   102  tasks.o(i.xTaskRemoveFromEventList)
    xTaskRemoveFromUnorderedEventList        0x08008759   Thumb Code   108  tasks.o(i.xTaskRemoveFromUnorderedEventList)
    xTaskResumeAll                           0x080087f1   Thumb Code   180  tasks.o(i.xTaskResumeAll)
    xTimerCreate                             0x080088d5   Thumb Code    74  timers.o(i.xTimerCreate)
    xTimerCreateTimerTask                    0x08008949   Thumb Code    58  timers.o(i.xTimerCreateTimerTask)
    xTimerGenericCommand                     0x080089bd   Thumb Code    98  timers.o(i.xTimerGenericCommand)
    xTimerPendFunctionCallFromISR            0x08008a4d   Thumb Code    34  timers.o(i.xTimerPendFunctionCallFromISR)
    _fp_init                                 0x08008a75   Thumb Code    10  fpinit.o(x$fpl$fpinit)
    __fplib_config_fpu_vfp                   0x08008a7d   Thumb Code     0  fpinit.o(x$fpl$fpinit)
    __fplib_config_pureend_doubles           0x08008a7d   Thumb Code     0  fpinit.o(x$fpl$fpinit)
    APBAHBPrescTable                         0x08008a83   Data          16  stm32f4xx_hal_rcc.o(.constdata)
    Region$$Table$$Base                      0x080094ec   Number         0  anon$$obj.o(Region$$Table)
    Region$$Table$$Limit                     0x0800950c   Number         0  anon$$obj.o(Region$$Table)
    StartTask_Handler                        0x20000000   Data           4  main.o(.data)
    Task1Task_Handler                        0x20000004   Data           4  main.o(.data)
    Task2Task_Handler                        0x20000008   Data           4  main.o(.data)
    Task3Task_Handler                        0x2000000c   Data           4  main.o(.data)
    KeyTask_Handler                          0x20000010   Data           4  main.o(.data)
    R_StartTask_Handler                      0x20000014   Data           4  main.o(.data)
    xEventGroupCreate_swd                    0x20000018   Data           4  main.o(.data)
    SystemCoreClock                          0x2000001c   Data           4  system_stm32f4xx.o(.data)
    AHBPrescTable                            0x20000020   Data          16  system_stm32f4xx.o(.data)
    aRxBuffer                                0x2000003c   Data           1  usart.o(.data)
    USART_RX_STA                             0x2000003e   Data           2  usart.o(.data)
    __stdout                                 0x20000040   Data           4  usart.o(.data)
    receiveStartFlag                         0x20000048   Data           1  thinktech_pack.o(.data)
    receiveOverFlag                          0x20000049   Data           1  thinktech_pack.o(.data)
    uartRxSta                                0x2000004a   Data           2  thinktech_pack.o(.data)
    wait_cnt                                 0x2000004c   Data           2  thinktech_pack.o(.data)
    ACK                                      0x2000004e   Data           4  thinktech_pack.o(.data)
    NAK                                      0x20000052   Data           4  thinktech_pack.o(.data)
    receiveLen                               0x20000058   Data           4  thinktech_pack.o(.data)
    ConfigInformationLength                  0x2000005c   Data           4  thinktech_pack.o(.data)
    W25QXX_TYPE                              0x20000068   Data           2  w25qxx.o(.data)
    m7_flash_algo                            0x2000041c   Data          60  flash_blob.o(.data)
    m0_flash_algo                            0x200006b8   Data          60  flash_blob.o(.data)
    my_flash_length_1                        0x200006f4   Data           4  swd_flash.o(.data)
    syscall_exec_try_1                       0x200006f8   Data           4  swd_flash.o(.data)
    my_flash_length_2                        0x200006fc   Data           4  swd_flash.o(.data)
    syscall_exec_try_2                       0x20000700   Data           4  swd_flash.o(.data)
    my_flash_length_3                        0x20000704   Data           4  swd_flash.o(.data)
    syscall_exec_try_3                       0x20000708   Data           4  swd_flash.o(.data)
    g_AP_SEL_1                               0x2000070c   Data           4  swd_flash.o(.data)
    flash_algo_1                             0x20000710   Data           4  swd_flash.o(.data)
    g_AP_SEL_2                               0x20000714   Data           4  swd_flash.o(.data)
    flash_algo_2                             0x20000718   Data           4  swd_flash.o(.data)
    g_AP_SEL_3                               0x2000071c   Data           4  swd_flash.o(.data)
    flash_algo_3                             0x20000720   Data           4  swd_flash.o(.data)
    pxCurrentTCB                             0x2000073c   Data           4  tasks.o(.data)
    USART_RX_BUF                             0x200007b0   Data         200  usart.o(.bss)
    UART1_Handler                            0x20000878   Data          64  usart.o(.bss)
    TaskListBuffer                           0x200008b8   Data         400  key.o(.bss)
    SPI5_Handler                             0x20000a48   Data          88  spi.o(.bss)
    uartTxBuf                                0x20000aa0   Data        1024  thinktech_pack.o(.bss)
    packet                                   0x20000ee0   Data         520  thinktech_pack.o(.bss)
    updataInfo                               0x200010e8   Data          20  thinktech_pack.o(.bss)
    realUpdataInfo                           0x200010fc   Data          20  thinktech_pack.o(.bss)
    readConfigInformation                    0x20001110   Data          84  thinktech_pack.o(.bss)
    uartRxBuf                                0x20001164   Data        1024  thinktech_pack.o(.bss)
    W25QXX_BUFFER                            0x20001564   Data        4096  w25qxx.o(.bss)
    DAP_Data_1                               0x20002564   Data          16  dap.o(.bss)
    DAP_Data_2                               0x20002574   Data          16  dap.o(.bss)
    DAP_Data_3                               0x20002584   Data          16  dap.o(.bss)
    Progarm_Buff_1                           0x20002594   Data       32768  swd_flash.o(.bss)
    Progarm_Buff_2                           0x2000a594   Data       32768  swd_flash.o(.bss)
    Progarm_Buff_3                           0x20012594   Data       32768  swd_flash.o(.bss)
    xQueueRegistry                           0x2001a594   Data          64  queue.o(.bss)
    __libspace_start                         0x200260e0   Data          96  libspace.o(.bss)
    __temporary_stack_top$libspace           0x20026140   Data           0  libspace.o(.bss)



==============================================================================

Memory Map of the image

  Image Entry point : 0x080001ad

  Load Region LR_IROM1 (Base: 0x08000000, Size: 0x00009cbc, Max: 0x00100000, ABSOLUTE, COMPRESSED[0x00009a90])

    Execution Region ER_IROM1 (Exec base: 0x08000000, Load base: 0x08000000, Size: 0x0000950c, Max: 0x00100000, ABSOLUTE)

    Exec Addr    Load Addr    Size         Type   Attr      Idx    E Section Name        Object

    0x08000000   0x08000000   0x000001ac   Data   RO          559    RESET               startup_stm32f429xx.o
    0x080001ac   0x080001ac   0x00000008   Code   RO         5369  * !!!main             c_w.l(__main.o)
    0x080001b4   0x080001b4   0x00000034   Code   RO         5547    !!!scatter          c_w.l(__scatter.o)
    0x080001e8   0x080001e8   0x00000064   Code   RO         5545    !!dclz77c           c_w.l(__dclz77c.o)
    0x0800024c   0x0800024c   0x0000001c   Code   RO         5549    !!handler_zi        c_w.l(__scatter_zi.o)
    0x08000268   0x08000268   0x00000000   Code   RO         5354    .ARM.Collect$$_printf_percent$$00000000  c_w.l(_printf_percent.o)
    0x08000268   0x08000268   0x00000006   Code   RO         5352    .ARM.Collect$$_printf_percent$$00000009  c_w.l(_printf_d.o)
    0x0800026e   0x0800026e   0x00000006   Code   RO         5353    .ARM.Collect$$_printf_percent$$0000000A  c_w.l(_printf_u.o)
    0x08000274   0x08000274   0x00000006   Code   RO         5351    .ARM.Collect$$_printf_percent$$0000000C  c_w.l(_printf_x.o)
    0x0800027a   0x0800027a   0x00000006   Code   RO         5349    .ARM.Collect$$_printf_percent$$00000013  c_w.l(_printf_c.o)
    0x08000280   0x08000280   0x00000006   Code   RO         5350    .ARM.Collect$$_printf_percent$$00000014  c_w.l(_printf_s.o)
    0x08000286   0x08000286   0x00000004   Code   RO         5384    .ARM.Collect$$_printf_percent$$00000017  c_w.l(_printf_percent_end.o)
    0x0800028a   0x0800028a   0x00000002   Code   RO         5417    .ARM.Collect$$libinit$$00000000  c_w.l(libinit.o)
    0x0800028c   0x0800028c   0x00000004   Code   RO         5423    .ARM.Collect$$libinit$$00000001  c_w.l(libinit2.o)
    0x08000290   0x08000290   0x00000000   Code   RO         5426    .ARM.Collect$$libinit$$00000004  c_w.l(libinit2.o)
    0x08000290   0x08000290   0x00000000   Code   RO         5429    .ARM.Collect$$libinit$$0000000A  c_w.l(libinit2.o)
    0x08000290   0x08000290   0x00000000   Code   RO         5431    .ARM.Collect$$libinit$$0000000C  c_w.l(libinit2.o)
    0x08000290   0x08000290   0x00000000   Code   RO         5433    .ARM.Collect$$libinit$$0000000E  c_w.l(libinit2.o)
    0x08000290   0x08000290   0x00000000   Code   RO         5436    .ARM.Collect$$libinit$$00000011  c_w.l(libinit2.o)
    0x08000290   0x08000290   0x00000000   Code   RO         5438    .ARM.Collect$$libinit$$00000013  c_w.l(libinit2.o)
    0x08000290   0x08000290   0x00000000   Code   RO         5440    .ARM.Collect$$libinit$$00000015  c_w.l(libinit2.o)
    0x08000290   0x08000290   0x00000000   Code   RO         5442    .ARM.Collect$$libinit$$00000017  c_w.l(libinit2.o)
    0x08000290   0x08000290   0x00000000   Code   RO         5444    .ARM.Collect$$libinit$$00000019  c_w.l(libinit2.o)
    0x08000290   0x08000290   0x00000000   Code   RO         5446    .ARM.Collect$$libinit$$0000001B  c_w.l(libinit2.o)
    0x08000290   0x08000290   0x00000000   Code   RO         5448    .ARM.Collect$$libinit$$0000001D  c_w.l(libinit2.o)
    0x08000290   0x08000290   0x00000000   Code   RO         5450    .ARM.Collect$$libinit$$0000001F  c_w.l(libinit2.o)
    0x08000290   0x08000290   0x00000000   Code   RO         5452    .ARM.Collect$$libinit$$00000021  c_w.l(libinit2.o)
    0x08000290   0x08000290   0x00000000   Code   RO         5454    .ARM.Collect$$libinit$$00000023  c_w.l(libinit2.o)
    0x08000290   0x08000290   0x00000000   Code   RO         5456    .ARM.Collect$$libinit$$00000025  c_w.l(libinit2.o)
    0x08000290   0x08000290   0x00000000   Code   RO         5460    .ARM.Collect$$libinit$$0000002C  c_w.l(libinit2.o)
    0x08000290   0x08000290   0x00000000   Code   RO         5462    .ARM.Collect$$libinit$$0000002E  c_w.l(libinit2.o)
    0x08000290   0x08000290   0x00000000   Code   RO         5464    .ARM.Collect$$libinit$$00000030  c_w.l(libinit2.o)
    0x08000290   0x08000290   0x00000000   Code   RO         5466    .ARM.Collect$$libinit$$00000032  c_w.l(libinit2.o)
    0x08000290   0x08000290   0x00000002   Code   RO         5467    .ARM.Collect$$libinit$$00000033  c_w.l(libinit2.o)
    0x08000292   0x08000292   0x00000002   Code   RO         5485    .ARM.Collect$$libshutdown$$00000000  c_w.l(libshutdown.o)
    0x08000294   0x08000294   0x00000000   Code   RO         5495    .ARM.Collect$$libshutdown$$00000002  c_w.l(libshutdown2.o)
    0x08000294   0x08000294   0x00000000   Code   RO         5497    .ARM.Collect$$libshutdown$$00000004  c_w.l(libshutdown2.o)
    0x08000294   0x08000294   0x00000000   Code   RO         5499    .ARM.Collect$$libshutdown$$00000006  c_w.l(libshutdown2.o)
    0x08000294   0x08000294   0x00000000   Code   RO         5502    .ARM.Collect$$libshutdown$$00000009  c_w.l(libshutdown2.o)
    0x08000294   0x08000294   0x00000000   Code   RO         5505    .ARM.Collect$$libshutdown$$0000000C  c_w.l(libshutdown2.o)
    0x08000294   0x08000294   0x00000000   Code   RO         5507    .ARM.Collect$$libshutdown$$0000000E  c_w.l(libshutdown2.o)
    0x08000294   0x08000294   0x00000000   Code   RO         5510    .ARM.Collect$$libshutdown$$00000011  c_w.l(libshutdown2.o)
    0x08000294   0x08000294   0x00000002   Code   RO         5511    .ARM.Collect$$libshutdown$$00000012  c_w.l(libshutdown2.o)
    0x08000296   0x08000296   0x00000000   Code   RO         5373    .ARM.Collect$$rtentry$$00000000  c_w.l(__rtentry.o)
    0x08000296   0x08000296   0x00000000   Code   RO         5388    .ARM.Collect$$rtentry$$00000002  c_w.l(__rtentry2.o)
    0x08000296   0x08000296   0x00000006   Code   RO         5400    .ARM.Collect$$rtentry$$00000004  c_w.l(__rtentry4.o)
    0x0800029c   0x0800029c   0x00000000   Code   RO         5390    .ARM.Collect$$rtentry$$00000009  c_w.l(__rtentry2.o)
    0x0800029c   0x0800029c   0x00000004   Code   RO         5391    .ARM.Collect$$rtentry$$0000000A  c_w.l(__rtentry2.o)
    0x080002a0   0x080002a0   0x00000000   Code   RO         5393    .ARM.Collect$$rtentry$$0000000C  c_w.l(__rtentry2.o)
    0x080002a0   0x080002a0   0x00000008   Code   RO         5394    .ARM.Collect$$rtentry$$0000000D  c_w.l(__rtentry2.o)
    0x080002a8   0x080002a8   0x00000002   Code   RO         5421    .ARM.Collect$$rtexit$$00000000  c_w.l(rtexit.o)
    0x080002aa   0x080002aa   0x00000000   Code   RO         5469    .ARM.Collect$$rtexit$$00000002  c_w.l(rtexit2.o)
    0x080002aa   0x080002aa   0x00000004   Code   RO         5470    .ARM.Collect$$rtexit$$00000003  c_w.l(rtexit2.o)
    0x080002ae   0x080002ae   0x00000006   Code   RO         5471    .ARM.Collect$$rtexit$$00000004  c_w.l(rtexit2.o)
    0x080002b4   0x080002b4   0x000000b6   Code   RO         5143    .emb_text           port.o
    0x0800036a   0x0800036a   0x00000002   PAD
    0x0800036c   0x0800036c   0x00000040   Code   RO          560    .text               startup_stm32f429xx.o
    0x080003ac   0x080003ac   0x00000002   Code   RO         5292    .text               c_w.l(use_no_semi_2.o)
    0x080003ae   0x080003ae   0x00000002   PAD
    0x080003b0   0x080003b0   0x00000018   Code   RO         5298    .text               c_w.l(noretval__2printf.o)
    0x080003c8   0x080003c8   0x00000028   Code   RO         5300    .text               c_w.l(noretval__2sprintf.o)
    0x080003f0   0x080003f0   0x00000052   Code   RO         5304    .text               c_w.l(_printf_str.o)
    0x08000442   0x08000442   0x00000002   PAD
    0x08000444   0x08000444   0x00000078   Code   RO         5306    .text               c_w.l(_printf_dec.o)
    0x080004bc   0x080004bc   0x00000058   Code   RO         5311    .text               c_w.l(_printf_hex_int.o)
    0x08000514   0x08000514   0x0000010e   Code   RO         5337    .text               c_w.l(__printf_wp.o)
    0x08000622   0x08000622   0x00000048   Code   RO         5355    .text               c_w.l(strcpy.o)
    0x0800066a   0x0800066a   0x0000003e   Code   RO         5357    .text               c_w.l(strlen.o)
    0x080006a8   0x080006a8   0x0000008a   Code   RO         5359    .text               c_w.l(rt_memcpy_v6.o)
    0x08000732   0x08000732   0x00000064   Code   RO         5361    .text               c_w.l(rt_memcpy_w.o)
    0x08000796   0x08000796   0x00000010   Code   RO         5363    .text               c_w.l(aeabi_memset.o)
    0x080007a6   0x080007a6   0x0000004e   Code   RO         5365    .text               c_w.l(rt_memclr_w.o)
    0x080007f4   0x080007f4   0x00000006   Code   RO         5367    .text               c_w.l(heapauxi.o)
    0x080007fa   0x080007fa   0x00000002   Code   RO         5371    .text               c_w.l(use_no_semi.o)
    0x080007fc   0x080007fc   0x000000b2   Code   RO         5374    .text               c_w.l(_printf_intcommon.o)
    0x080008ae   0x080008ae   0x00000002   PAD
    0x080008b0   0x080008b0   0x00000030   Code   RO         5376    .text               c_w.l(_printf_char_common.o)
    0x080008e0   0x080008e0   0x0000000a   Code   RO         5378    .text               c_w.l(_sputc.o)
    0x080008ea   0x080008ea   0x0000002c   Code   RO         5380    .text               c_w.l(_printf_char.o)
    0x08000916   0x08000916   0x00000002   PAD
    0x08000918   0x08000918   0x00000024   Code   RO         5382    .text               c_w.l(_printf_char_file.o)
    0x0800093c   0x0800093c   0x00000044   Code   RO         5385    .text               c_w.l(rt_memclr.o)
    0x08000980   0x08000980   0x00000008   Code   RO         5404    .text               c_w.l(ferror.o)
    0x08000988   0x08000988   0x0000004a   Code   RO         5408    .text               c_w.l(sys_stackheap_outer.o)
    0x080009d2   0x080009d2   0x00000012   Code   RO         5410    .text               c_w.l(exit.o)
    0x080009e4   0x080009e4   0x00000008   Code   RO         5418    .text               c_w.l(libspace.o)
    0x080009ec   0x080009ec   0x00000002   Code   RO          364    i.BusFault_Handler  stm32f4xx_it.o
    0x080009ee   0x080009ee   0x00000002   PAD
    0x080009f0   0x080009f0   0x00000048   Code   RO         3372    i.DAP_Setup_1       dap.o
    0x08000a38   0x08000a38   0x00000048   Code   RO         3373    i.DAP_Setup_2       dap.o
    0x08000a80   0x08000a80   0x00000048   Code   RO         3374    i.DAP_Setup_3       dap.o
    0x08000ac8   0x08000ac8   0x00000002   Code   RO          365    i.DebugMon_Handler  stm32f4xx_it.o
    0x08000aca   0x08000aca   0x00000002   PAD
    0x08000acc   0x08000acc   0x000001dc   Code   RO          851    i.HAL_GPIO_Init     stm32f4xx_hal_gpio.o
    0x08000ca8   0x08000ca8   0x0000000a   Code   RO          853    i.HAL_GPIO_ReadPin  stm32f4xx_hal_gpio.o
    0x08000cb2   0x08000cb2   0x0000000a   Code   RO          855    i.HAL_GPIO_WritePin  stm32f4xx_hal_gpio.o
    0x08000cbc   0x08000cbc   0x0000000c   Code   RO          582    i.HAL_GetTick       stm32f4xx_hal.o
    0x08000cc8   0x08000cc8   0x00000010   Code   RO          583    i.HAL_IncTick       stm32f4xx_hal.o
    0x08000cd8   0x08000cd8   0x00000034   Code   RO          584    i.HAL_Init          stm32f4xx_hal.o
    0x08000d0c   0x08000d0c   0x00000022   Code   RO          585    i.HAL_InitTick      stm32f4xx_hal.o
    0x08000d2e   0x08000d2e   0x00000008   Code   RO          587    i.HAL_MspInit       stm32f4xx_hal.o
    0x08000d36   0x08000d36   0x00000016   Code   RO          728    i.HAL_NVIC_EnableIRQ  stm32f4xx_hal_cortex.o
    0x08000d4c   0x08000d4c   0x00000040   Code   RO          734    i.HAL_NVIC_SetPriority  stm32f4xx_hal_cortex.o
    0x08000d8c   0x08000d8c   0x00000024   Code   RO          735    i.HAL_NVIC_SetPriorityGrouping  stm32f4xx_hal_cortex.o
    0x08000db0   0x08000db0   0x00000088   Code   RO         1040    i.HAL_PWREx_EnableOverDrive  stm32f4xx_hal_pwr_ex.o
    0x08000e38   0x08000e38   0x00000208   Code   RO         1107    i.HAL_RCC_ClockConfig  stm32f4xx_hal_rcc.o
    0x08001040   0x08001040   0x00000034   Code   RO         1112    i.HAL_RCC_GetHCLKFreq  stm32f4xx_hal_rcc.o
    0x08001074   0x08001074   0x0000002c   Code   RO         1114    i.HAL_RCC_GetPCLK1Freq  stm32f4xx_hal_rcc.o
    0x080010a0   0x080010a0   0x0000002c   Code   RO         1115    i.HAL_RCC_GetPCLK2Freq  stm32f4xx_hal_rcc.o
    0x080010cc   0x080010cc   0x00000074   Code   RO         1116    i.HAL_RCC_GetSysClockFreq  stm32f4xx_hal_rcc.o
    0x08001140   0x08001140   0x0000031c   Code   RO         1119    i.HAL_RCC_OscConfig  stm32f4xx_hal_rcc.o
    0x0800145c   0x0800145c   0x00000084   Code   RO         2624    i.HAL_SPI_Init      stm32f4xx_hal_spi.o
    0x080014e0   0x080014e0   0x00000060   Code   RO         3130    i.HAL_SPI_MspInit   spi.o
    0x08001540   0x08001540   0x000002aa   Code   RO         2633    i.HAL_SPI_TransmitReceive  stm32f4xx_hal_spi.o
    0x080017ea   0x080017ea   0x00000018   Code   RO          737    i.HAL_SYSTICK_CLKSourceConfig  stm32f4xx_hal_cortex.o
    0x08001802   0x08001802   0x00000028   Code   RO          739    i.HAL_SYSTICK_Config  stm32f4xx_hal_cortex.o
    0x0800182a   0x0800182a   0x00000002   Code   RO         1259    i.HAL_UART_ErrorCallback  stm32f4xx_hal_uart.o
    0x0800182c   0x0800182c   0x00000006   Code   RO         1261    i.HAL_UART_GetState  stm32f4xx_hal_uart.o
    0x08001832   0x08001832   0x000000f4   Code   RO         1262    i.HAL_UART_IRQHandler  stm32f4xx_hal_uart.o
    0x08001926   0x08001926   0x0000005e   Code   RO         1263    i.HAL_UART_Init     stm32f4xx_hal_uart.o
    0x08001984   0x08001984   0x0000007c   Code   RO         2938    i.HAL_UART_MspInit  usart.o
    0x08001a00   0x08001a00   0x00000068   Code   RO         1268    i.HAL_UART_Receive_IT  stm32f4xx_hal_uart.o
    0x08001a68   0x08001a68   0x00000058   Code   RO         2939    i.HAL_UART_RxCpltCallback  usart.o
    0x08001ac0   0x08001ac0   0x00000002   Code   RO         1274    i.HAL_UART_TxCpltCallback  stm32f4xx_hal_uart.o
    0x08001ac2   0x08001ac2   0x00000002   Code   RO          366    i.HardFault_Handler  stm32f4xx_it.o
    0x08001ac4   0x08001ac4   0x000000d0   Code   RO         3721    i.JTAG2SWD_1        swd_host.o
    0x08001b94   0x08001b94   0x00000098   Code   RO         3722    i.JTAG2SWD_2        swd_host.o
    0x08001c2c   0x08001c2c   0x00000098   Code   RO         3723    i.JTAG2SWD_3        swd_host.o
    0x08001cc4   0x08001cc4   0x00000080   Code   RO         3031    i.KEY_Init          key.o
    0x08001d44   0x08001d44   0x000000d8   Code   RO         3032    i.KEY_Scan          key.o
    0x08001e1c   0x08001e1c   0x0000004c   Code   RO         3007    i.LED_Init          led.o
    0x08001e68   0x08001e68   0x00000002   Code   RO          367    i.MemManage_Handler  stm32f4xx_it.o
    0x08001e6a   0x08001e6a   0x00000064   Code   RO         3178    i.MizarMsgDecode    thinktech_pack.o
    0x08001ece   0x08001ece   0x00000072   Code   RO         3179    i.MizarMsgEncode    thinktech_pack.o
    0x08001f40   0x08001f40   0x00000002   Code   RO          368    i.NMI_Handler       stm32f4xx_it.o
    0x08001f42   0x08001f42   0x00000020   Code   RO          741    i.NVIC_SetPriority  stm32f4xx_hal_cortex.o
    0x08001f62   0x08001f62   0x00000002   PAD
    0x08001f64   0x08001f64   0x00000010   Code   RO         3464    i.PIN_SWDIO_IN_1    swd_dap.o
    0x08001f74   0x08001f74   0x00000010   Code   RO         3465    i.PIN_SWDIO_IN_2    swd_dap.o
    0x08001f84   0x08001f84   0x00000010   Code   RO         3466    i.PIN_SWDIO_IN_3    swd_dap.o
    0x08001f94   0x08001f94   0x00000018   Code   RO         3467    i.PIN_SWDIO_OUT_1   swd_dap.o
    0x08001fac   0x08001fac   0x00000018   Code   RO         3468    i.PIN_SWDIO_OUT_2   swd_dap.o
    0x08001fc4   0x08001fc4   0x00000018   Code   RO         3469    i.PIN_SWDIO_OUT_3   swd_dap.o
    0x08001fdc   0x08001fdc   0x00000024   Code   RO         3470    i.PIN_SWDIO_OUT_ENABLE_1  swd_dap.o
    0x08002000   0x08002000   0x00000024   Code   RO         3471    i.PIN_SWDIO_OUT_ENABLE_2  swd_dap.o
    0x08002024   0x08002024   0x00000024   Code   RO         3472    i.PIN_SWDIO_OUT_ENABLE_3  swd_dap.o
    0x08002048   0x08002048   0x00000018   Code   RO         3724    i.PIN_nRESET_OUT_1  swd_host.o
    0x08002060   0x08002060   0x00000018   Code   RO         3725    i.PIN_nRESET_OUT_2  swd_host.o
    0x08002078   0x08002078   0x00000018   Code   RO         3726    i.PIN_nRESET_OUT_3  swd_host.o
    0x08002090   0x08002090   0x000001bc   Code   RO         3585    i.Program_Target_1  swd_flash.o
    0x0800224c   0x0800224c   0x000001bc   Code   RO         3586    i.Program_Target_2  swd_flash.o
    0x08002408   0x08002408   0x000001bc   Code   RO         3587    i.Program_Target_3  swd_flash.o
    0x080025c4   0x080025c4   0x00000050   Code   RO         3131    i.SPI5_Init         spi.o
    0x08002614   0x08002614   0x00000020   Code   RO         3132    i.SPI5_ReadWriteByte  spi.o
    0x08002634   0x08002634   0x00000034   Code   RO         3133    i.SPI5_SetSpeed     spi.o
    0x08002668   0x08002668   0x0000009e   Code   RO         2655    i.SPI_WaitOnFlagUntilTimeout  stm32f4xx_hal_spi.o
    0x08002706   0x08002706   0x00000002   PAD
    0x08002708   0x08002708   0x00000050   Code   RO         3473    i.SWD_Sequence_1    swd_dap.o
    0x08002758   0x08002758   0x0000004c   Code   RO         3474    i.SWD_Sequence_2    swd_dap.o
    0x080027a4   0x080027a4   0x0000004c   Code   RO         3475    i.SWD_Sequence_3    swd_dap.o
    0x080027f0   0x080027f0   0x00000004   Code   RO         3476    i.SWD_Transfer_1    swd_dap.o
    0x080027f4   0x080027f4   0x00000004   Code   RO         3477    i.SWD_Transfer_2    swd_dap.o
    0x080027f8   0x080027f8   0x00000004   Code   RO         3478    i.SWD_Transfer_3    swd_dap.o
    0x080027fc   0x080027fc   0x000003b8   Code   RO         3479    i.SWD_Transfer_Buff_1  swd_dap.o
    0x08002bb4   0x08002bb4   0x000003b4   Code   RO         3480    i.SWD_Transfer_Buff_2  swd_dap.o
    0x08002f68   0x08002f68   0x000003bc   Code   RO         3481    i.SWD_Transfer_Buff_3  swd_dap.o
    0x08003324   0x08003324   0x00000084   Code   RO         2911    i.Stm32_Clock_Init  sys.o
    0x080033a8   0x080033a8   0x00000016   Code   RO         2860    i.SysTick_Handler   delay.o
    0x080033be   0x080033be   0x00000002   PAD
    0x080033c0   0x080033c0   0x00000054   Code   RO          425    i.SystemInit        system_stm32f4xx.o
    0x08003414   0x08003414   0x000000a6   Code   RO         1281    i.UART_Receive_IT   stm32f4xx_hal_uart.o
    0x080034ba   0x080034ba   0x00000002   PAD
    0x080034bc   0x080034bc   0x00000174   Code   RO         1282    i.UART_SetConfig    stm32f4xx_hal_uart.o
    0x08003630   0x08003630   0x00000066   Code   RO         1283    i.UART_Transmit_IT  stm32f4xx_hal_uart.o
    0x08003696   0x08003696   0x00000002   PAD
    0x08003698   0x08003698   0x00000044   Code   RO         2940    i.USART1_IRQHandler  usart.o
    0x080036dc   0x080036dc   0x00000084   Code   RO         3180    i.USART3_IRQHandler  thinktech_pack.o
    0x08003760   0x08003760   0x00000002   Code   RO          369    i.UsageFault_Handler  stm32f4xx_it.o
    0x08003762   0x08003762   0x00000002   PAD
    0x08003764   0x08003764   0x00000058   Code   RO         3256    i.W25QXX_Erase_Sector  w25qxx.o
    0x080037bc   0x080037bc   0x0000007c   Code   RO         3257    i.W25QXX_Init       w25qxx.o
    0x08003838   0x08003838   0x00000068   Code   RO         3259    i.W25QXX_Read       w25qxx.o
    0x080038a0   0x080038a0   0x00000044   Code   RO         3260    i.W25QXX_ReadID     w25qxx.o
    0x080038e4   0x080038e4   0x00000038   Code   RO         3261    i.W25QXX_ReadSR     w25qxx.o
    0x0800391c   0x0800391c   0x0000000e   Code   RO         3263    i.W25QXX_Wait_Busy  w25qxx.o
    0x0800392a   0x0800392a   0x00000002   PAD
    0x0800392c   0x0800392c   0x0000009c   Code   RO         3264    i.W25QXX_Write      w25qxx.o
    0x080039c8   0x080039c8   0x00000020   Code   RO         3266    i.W25QXX_Write_Enable  w25qxx.o
    0x080039e8   0x080039e8   0x0000003e   Code   RO         3267    i.W25QXX_Write_NoCheck  w25qxx.o
    0x08003a26   0x08003a26   0x00000002   PAD
    0x08003a28   0x08003a28   0x0000006c   Code   RO         3268    i.W25QXX_Write_Page  w25qxx.o
    0x08003a94   0x08003a94   0x0000000e   Code   RO         5339    i._is_digit         c_w.l(__printf_wp.o)
    0x08003aa2   0x08003aa2   0x00000002   Code   RO         2941    i._sys_exit         usart.o
    0x08003aa4   0x08003aa4   0x000000cc   Code   RO         3588    i.alioth_a8_erase_1  swd_flash.o
    0x08003b70   0x08003b70   0x000000cc   Code   RO         3589    i.alioth_a8_erase_2  swd_flash.o
    0x08003c3c   0x08003c3c   0x000000cc   Code   RO         3590    i.alioth_a8_erase_3  swd_flash.o
    0x08003d08   0x08003d08   0x000000c4   Code   RO         3591    i.alioth_a8_unlock_reg_1  swd_flash.o
    0x08003dcc   0x08003dcc   0x0000009c   Code   RO         3592    i.alioth_a8_unlock_reg_2  swd_flash.o
    0x08003e68   0x08003e68   0x0000009c   Code   RO         3593    i.alioth_a8_unlock_reg_3  swd_flash.o
    0x08003f04   0x08003f04   0x00000006   Code   RO         3100    i.crc16_finalize    crc16.o
    0x08003f0a   0x08003f0a   0x00000006   Code   RO         3101    i.crc16_init        crc16.o
    0x08003f10   0x08003f10   0x0000002e   Code   RO         3102    i.crc16_update      crc16.o
    0x08003f3e   0x08003f3e   0x00000002   PAD
    0x08003f40   0x08003f40   0x00000034   Code   RO         2861    i.delay_init        delay.o
    0x08003f74   0x08003f74   0x00000038   Code   RO         2862    i.delay_ms          delay.o
    0x08003fac   0x08003fac   0x00000034   Code   RO         2863    i.delay_us          delay.o
    0x08003fe0   0x08003fe0   0x00000088   Code   RO         4652    i.eTaskGetState     tasks.o
    0x08004068   0x08004068   0x00000014   Code   RO         2942    i.fputc             usart.o
    0x0800407c   0x0800407c   0x00000018   Code   RO         3727    i.int2array_1       swd_host.o
    0x08004094   0x08004094   0x00000018   Code   RO         3728    i.int2array_2       swd_host.o
    0x080040ac   0x080040ac   0x00000018   Code   RO         3729    i.int2array_3       swd_host.o
    0x080040c4   0x080040c4   0x000000b4   Code   RO         3033    i.key_scan          key.o
    0x08004178   0x08004178   0x00000006   Code   RO            4    i.key_task          main.o
    0x0800417e   0x0800417e   0x00000002   PAD
    0x08004180   0x08004180   0x00000098   Code   RO            5    i.main              main.o
    0x08004218   0x08004218   0x0000002c   Code   RO         3181    i.my_uart_send      thinktech_pack.o
    0x08004244   0x08004244   0x00000070   Code   RO         4654    i.prvAddCurrentTaskToDelayedList  tasks.o
    0x080042b4   0x080042b4   0x000000d0   Code   RO         4655    i.prvAddNewTaskToReadyList  tasks.o
    0x08004384   0x08004384   0x00000050   Code   RO         5011    i.prvCheckForValidListAndQueue  timers.o
    0x080043d4   0x080043d4   0x00000054   Code   RO         4656    i.prvCheckTasksWaitingTermination  tasks.o
    0x08004428   0x08004428   0x00000026   Code   RO         4424    i.prvCopyDataFromQueue  queue.o
    0x0800444e   0x0800444e   0x0000006c   Code   RO         4425    i.prvCopyDataToQueue  queue.o
    0x080044ba   0x080044ba   0x00000014   Code   RO         4657    i.prvDeleteTCB      tasks.o
    0x080044ce   0x080044ce   0x00000002   PAD
    0x080044d0   0x080044d0   0x0000004c   Code   RO         5232    i.prvHeapInit       heap_4.o
    0x0800451c   0x0800451c   0x00000028   Code   RO         4658    i.prvIdleTask       tasks.o
    0x08004544   0x08004544   0x000000c0   Code   RO         4659    i.prvInitialiseNewTask  tasks.o
    0x08004604   0x08004604   0x0000004c   Code   RO         5233    i.prvInsertBlockIntoFreeList  heap_4.o
    0x08004650   0x08004650   0x00000038   Code   RO         5012    i.prvInsertTimerInActiveList  timers.o
    0x08004688   0x08004688   0x0000001a   Code   RO         4426    i.prvIsQueueEmpty   queue.o
    0x080046a2   0x080046a2   0x00000056   Code   RO         4660    i.prvListTasksWithinSingleList  tasks.o
    0x080046f8   0x080046f8   0x00000090   Code   RO         4427    i.prvNotifyQueueSetContainer  queue.o
    0x08004788   0x08004788   0x00000060   Code   RO         5013    i.prvProcessExpiredTimer  timers.o
    0x080047e8   0x080047e8   0x000000f0   Code   RO         5014    i.prvProcessReceivedCommands  timers.o
    0x080048d8   0x080048d8   0x0000006c   Code   RO         5015    i.prvProcessTimerOrBlockTask  timers.o
    0x08004944   0x08004944   0x00000020   Code   RO         4661    i.prvResetNextTaskUnblockTime  tasks.o
    0x08004964   0x08004964   0x00000028   Code   RO         5016    i.prvSampleTimeNow  timers.o
    0x0800498c   0x0800498c   0x0000006c   Code   RO         5017    i.prvSwitchTimerLists  timers.o
    0x080049f8   0x080049f8   0x00000064   Code   RO         5144    i.prvTaskExitError  port.o
    0x08004a5c   0x08004a5c   0x00000014   Code   RO         4252    i.prvTestWaitCondition  event_groups.o
    0x08004a70   0x08004a70   0x00000028   Code   RO         5018    i.prvTimerTask      timers.o
    0x08004a98   0x08004a98   0x00000078   Code   RO         4428    i.prvUnlockQueue    queue.o
    0x08004b10   0x08004b10   0x00000114   Code   RO         5234    i.pvPortMalloc      heap_4.o
    0x08004c24   0x08004c24   0x00000018   Code   RO         4663    i.pvTaskIncrementMutexHeldCount  tasks.o
    0x08004c3c   0x08004c3c   0x0000002c   Code   RO         5145    i.pxPortInitialiseStack  port.o
    0x08004c68   0x08004c68   0x00000030   Code   RO            6    i.r_start_task      main.o
    0x08004c98   0x08004c98   0x00000088   Code   RO         3182    i.r_timeout         thinktech_pack.o
    0x08004d20   0x08004d20   0x000000e0   Code   RO            7    i.start_task        main.o
    0x08004e00   0x08004e00   0x00000030   Code   RO         3183    i.status_clean      thinktech_pack.o
    0x08004e30   0x08004e30   0x00000084   Code   RO         3034    i.swd_downloade_1   key.o
    0x08004eb4   0x08004eb4   0x00000084   Code   RO         3035    i.swd_downloade_2   key.o
    0x08004f38   0x08004f38   0x00000084   Code   RO         3036    i.swd_downloade_3   key.o
    0x08004fbc   0x08004fbc   0x0000017c   Code   RO         3730    i.swd_flash_syscall_exec_1  swd_host.o
    0x08005138   0x08005138   0x0000017c   Code   RO         3731    i.swd_flash_syscall_exec_2  swd_host.o
    0x080052b4   0x080052b4   0x0000017c   Code   RO         3732    i.swd_flash_syscall_exec_3  swd_host.o
    0x08005430   0x08005430   0x00000060   Code   RO         3733    i.swd_init_1        swd_host.o
    0x08005490   0x08005490   0x00000060   Code   RO         3734    i.swd_init_2        swd_host.o
    0x080054f0   0x080054f0   0x00000060   Code   RO         3735    i.swd_init_3        swd_host.o
    0x08005550   0x08005550   0x000001a8   Code   RO         3736    i.swd_init_debug_1  swd_host.o
    0x080056f8   0x080056f8   0x000001a8   Code   RO         3737    i.swd_init_debug_2  swd_host.o
    0x080058a0   0x080058a0   0x000001a4   Code   RO         3738    i.swd_init_debug_3  swd_host.o
    0x08005a44   0x08005a44   0x00000028   Code   RO         3739    i.swd_off_1         swd_host.o
    0x08005a6c   0x08005a6c   0x00000024   Code   RO         3740    i.swd_off_2         swd_host.o
    0x08005a90   0x08005a90   0x00000024   Code   RO         3741    i.swd_off_3         swd_host.o
    0x08005ab4   0x08005ab4   0x00000060   Code   RO         3751    i.swd_read_data_1   swd_host.o
    0x08005b14   0x08005b14   0x00000060   Code   RO         3752    i.swd_read_data_2   swd_host.o
    0x08005b74   0x08005b74   0x00000060   Code   RO         3753    i.swd_read_data_3   swd_host.o
    0x08005bd4   0x08005bd4   0x00000042   Code   RO         3754    i.swd_read_dp_1     swd_host.o
    0x08005c16   0x08005c16   0x00000042   Code   RO         3755    i.swd_read_dp_2     swd_host.o
    0x08005c58   0x08005c58   0x00000042   Code   RO         3756    i.swd_read_dp_3     swd_host.o
    0x08005c9a   0x08005c9a   0x00000002   PAD
    0x08005c9c   0x08005c9c   0x00000028   Code   RO         3760    i.swd_read_word_1   swd_host.o
    0x08005cc4   0x08005cc4   0x00000028   Code   RO         3761    i.swd_read_word_2   swd_host.o
    0x08005cec   0x08005cec   0x00000028   Code   RO         3762    i.swd_read_word_3   swd_host.o
    0x08005d14   0x08005d14   0x0000001e   Code   RO         3763    i.swd_reset_1       swd_host.o
    0x08005d32   0x08005d32   0x0000001e   Code   RO         3764    i.swd_reset_2       swd_host.o
    0x08005d50   0x08005d50   0x0000001e   Code   RO         3765    i.swd_reset_3       swd_host.o
    0x08005d6e   0x08005d6e   0x0000000c   Code   RO         3766    i.swd_set_target_reset_hw_1  swd_host.o
    0x08005d7a   0x08005d7a   0x0000000c   Code   RO         3767    i.swd_set_target_reset_hw_2  swd_host.o
    0x08005d86   0x08005d86   0x0000000c   Code   RO         3768    i.swd_set_target_reset_hw_3  swd_host.o
    0x08005d92   0x08005d92   0x00000002   PAD
    0x08005d94   0x08005d94   0x0000002c   Code   RO         3769    i.swd_set_target_reset_sw_1  swd_host.o
    0x08005dc0   0x08005dc0   0x0000002c   Code   RO         3770    i.swd_set_target_reset_sw_2  swd_host.o
    0x08005dec   0x08005dec   0x0000002c   Code   RO         3771    i.swd_set_target_reset_sw_3  swd_host.o
    0x08005e18   0x08005e18   0x000000e8   Code   RO         3772    i.swd_set_target_state_hw_1  swd_host.o
    0x08005f00   0x08005f00   0x000000e8   Code   RO         3773    i.swd_set_target_state_hw_2  swd_host.o
    0x08005fe8   0x08005fe8   0x000000e8   Code   RO         3774    i.swd_set_target_state_hw_3  swd_host.o
    0x080060d0   0x080060d0   0x00000018   Code   RO         3775    i.swd_switch_1      swd_host.o
    0x080060e8   0x080060e8   0x00000018   Code   RO         3776    i.swd_switch_2      swd_host.o
    0x08006100   0x08006100   0x00000018   Code   RO         3777    i.swd_switch_3      swd_host.o
    0x08006118   0x08006118   0x0000001e   Code   RO         3778    i.swd_transfer_retry_1  swd_host.o
    0x08006136   0x08006136   0x0000001e   Code   RO         3779    i.swd_transfer_retry_2  swd_host.o
    0x08006154   0x08006154   0x0000001e   Code   RO         3780    i.swd_transfer_retry_3  swd_host.o
    0x08006172   0x08006172   0x00000002   PAD
    0x08006174   0x08006174   0x00000068   Code   RO         3781    i.swd_write_ap_1    swd_host.o
    0x080061dc   0x080061dc   0x00000068   Code   RO         3782    i.swd_write_ap_2    swd_host.o
    0x08006244   0x08006244   0x00000068   Code   RO         3783    i.swd_write_ap_3    swd_host.o
    0x080062ac   0x080062ac   0x0000005c   Code   RO         3784    i.swd_write_block_1  swd_host.o
    0x08006308   0x08006308   0x0000005c   Code   RO         3785    i.swd_write_block_2  swd_host.o
    0x08006364   0x08006364   0x0000005c   Code   RO         3786    i.swd_write_block_3  swd_host.o
    0x080063c0   0x080063c0   0x0000002c   Code   RO         3787    i.swd_write_byte_1  swd_host.o
    0x080063ec   0x080063ec   0x0000002c   Code   RO         3788    i.swd_write_byte_2  swd_host.o
    0x08006418   0x08006418   0x0000002c   Code   RO         3789    i.swd_write_byte_3  swd_host.o
    0x08006444   0x08006444   0x0000004c   Code   RO         3790    i.swd_write_core_register_1  swd_host.o
    0x08006490   0x08006490   0x0000004c   Code   RO         3791    i.swd_write_core_register_2  swd_host.o
    0x080064dc   0x080064dc   0x0000004c   Code   RO         3792    i.swd_write_core_register_3  swd_host.o
    0x08006528   0x08006528   0x0000003e   Code   RO         3793    i.swd_write_data_1  swd_host.o
    0x08006566   0x08006566   0x0000003e   Code   RO         3794    i.swd_write_data_2  swd_host.o
    0x080065a4   0x080065a4   0x0000003e   Code   RO         3795    i.swd_write_data_3  swd_host.o
    0x080065e2   0x080065e2   0x00000002   PAD
    0x080065e4   0x080065e4   0x00000084   Code   RO         3796    i.swd_write_debug_state_1  swd_host.o
    0x08006668   0x08006668   0x00000084   Code   RO         3797    i.swd_write_debug_state_2  swd_host.o
    0x080066ec   0x080066ec   0x00000084   Code   RO         3798    i.swd_write_debug_state_3  swd_host.o
    0x08006770   0x08006770   0x00000034   Code   RO         3799    i.swd_write_dp_1    swd_host.o
    0x080067a4   0x080067a4   0x00000034   Code   RO         3800    i.swd_write_dp_2    swd_host.o
    0x080067d8   0x080067d8   0x00000034   Code   RO         3801    i.swd_write_dp_3    swd_host.o
    0x0800680c   0x0800680c   0x0000006c   Code   RO         3802    i.swd_write_memory_1  swd_host.o
    0x08006878   0x08006878   0x0000006c   Code   RO         3803    i.swd_write_memory_2  swd_host.o
    0x080068e4   0x080068e4   0x0000006c   Code   RO         3804    i.swd_write_memory_3  swd_host.o
    0x08006950   0x08006950   0x00000028   Code   RO         3805    i.swd_write_word_1  swd_host.o
    0x08006978   0x08006978   0x00000028   Code   RO         3806    i.swd_write_word_2  swd_host.o
    0x080069a0   0x080069a0   0x00000028   Code   RO         3807    i.swd_write_word_3  swd_host.o
    0x080069c8   0x080069c8   0x000000dc   Code   RO         3594    i.target_flash_init_1  swd_flash.o
    0x08006aa4   0x08006aa4   0x000000e0   Code   RO         3595    i.target_flash_init_2  swd_flash.o
    0x08006b84   0x08006b84   0x000000e0   Code   RO         3596    i.target_flash_init_3  swd_flash.o
    0x08006c64   0x08006c64   0x00000088   Code   RO         3597    i.target_flash_program_1  swd_flash.o
    0x08006cec   0x08006cec   0x00000088   Code   RO         3598    i.target_flash_program_2  swd_flash.o
    0x08006d74   0x08006d74   0x00000088   Code   RO         3599    i.target_flash_program_3  swd_flash.o
    0x08006dfc   0x08006dfc   0x00000020   Code   RO            8    i.task1_task        main.o
    0x08006e1c   0x08006e1c   0x00000020   Code   RO            9    i.task2_task        main.o
    0x08006e3c   0x08006e3c   0x00000020   Code   RO           10    i.task3_task        main.o
    0x08006e5c   0x08006e5c   0x00000038   Code   RO         2943    i.uart_init         usart.o
    0x08006e94   0x08006e94   0x00000098   Code   RO         3184    i.usart3_init       thinktech_pack.o
    0x08006f2c   0x08006f2c   0x00000024   Code   RO         4375    i.uxListRemove      list.o
    0x08006f50   0x08006f50   0x000000ac   Code   RO         4666    i.uxTaskGetSystemState  tasks.o
    0x08006ffc   0x08006ffc   0x00000018   Code   RO         4670    i.uxTaskResetEventItemValue  tasks.o
    0x08007014   0x08007014   0x00000004   Code   RO         4256    i.vEventGroupSetBitsCallback  event_groups.o
    0x08007018   0x08007018   0x00000016   Code   RO         4376    i.vListInitialise   list.o
    0x0800702e   0x0800702e   0x00000006   Code   RO         4377    i.vListInitialiseItem  list.o
    0x08007034   0x08007034   0x00000030   Code   RO         4378    i.vListInsert       list.o
    0x08007064   0x08007064   0x00000018   Code   RO         4379    i.vListInsertEnd    list.o
    0x0800707c   0x0800707c   0x00000078   Code   RO         5147    i.vPortEnterCritical  port.o
    0x080070f4   0x080070f4   0x00000064   Code   RO         5148    i.vPortExitCritical  port.o
    0x08007158   0x08007158   0x0000009c   Code   RO         5235    i.vPortFree         heap_4.o
    0x080071f4   0x080071f4   0x0000001c   Code   RO         5149    i.vPortSetupTimerInterrupt  port.o
    0x08007210   0x08007210   0x0000008c   Code   RO         5150    i.vPortValidateInterruptPriority  port.o
    0x0800729c   0x0800729c   0x00000024   Code   RO         4434    i.vQueueAddToRegistry  queue.o
    0x080072c0   0x080072c0   0x00000044   Code   RO         4438    i.vQueueWaitForMessageRestricted  queue.o
    0x08007304   0x08007304   0x0000006c   Code   RO         4671    i.vTaskDelay        tasks.o
    0x08007370   0x08007370   0x000000cc   Code   RO         4673    i.vTaskDelete       tasks.o
    0x0800743c   0x0800743c   0x00000084   Code   RO         4675    i.vTaskGetInfo      tasks.o
    0x080074c0   0x080074c0   0x000000d0   Code   RO         4676    i.vTaskList         tasks.o
    0x08007590   0x08007590   0x0000000c   Code   RO         4677    i.vTaskMissedYield  tasks.o
    0x0800759c   0x0800759c   0x00000054   Code   RO         4679    i.vTaskPlaceOnEventList  tasks.o
    0x080075f0   0x080075f0   0x0000005c   Code   RO         4680    i.vTaskPlaceOnEventListRestricted  tasks.o
    0x0800764c   0x0800764c   0x00000070   Code   RO         4681    i.vTaskPlaceOnUnorderedEventList  tasks.o
    0x080076bc   0x080076bc   0x00000084   Code   RO         4682    i.vTaskPriorityInherit  tasks.o
    0x08007740   0x08007740   0x00000048   Code   RO         4686    i.vTaskSetTimeOutState  tasks.o
    0x08007788   0x08007788   0x00000094   Code   RO         4687    i.vTaskStartScheduler  tasks.o
    0x0800781c   0x0800781c   0x00000010   Code   RO         4689    i.vTaskSuspendAll   tasks.o
    0x0800782c   0x0800782c   0x0000007c   Code   RO         4690    i.vTaskSwitchContext  tasks.o
    0x080078a8   0x080078a8   0x000002c8   Code   RO         3185    i.wait_write_bin    thinktech_pack.o
    0x08007b70   0x08007b70   0x00000064   Code   RO         4257    i.xEventGroupClearBits  event_groups.o
    0x08007bd4   0x08007bd4   0x0000001a   Code   RO         4259    i.xEventGroupCreate  event_groups.o
    0x08007bee   0x08007bee   0x00000002   PAD
    0x08007bf0   0x08007bf0   0x000000b0   Code   RO         4261    i.xEventGroupSetBits  event_groups.o
    0x08007ca0   0x08007ca0   0x00000010   Code   RO         4262    i.xEventGroupSetBitsFromISR  event_groups.o
    0x08007cb0   0x08007cb0   0x00000120   Code   RO         4264    i.xEventGroupWaitBits  event_groups.o
    0x08007dd0   0x08007dd0   0x00000114   Code   RO         5151    i.xPortStartScheduler  port.o
    0x08007ee4   0x08007ee4   0x0000002c   Code   RO         5152    i.xPortSysTickHandler  port.o
    0x08007f10   0x08007f10   0x00000078   Code   RO         4443    i.xQueueGenericCreate  queue.o
    0x08007f88   0x08007f88   0x00000184   Code   RO         4444    i.xQueueGenericReceive  queue.o
    0x0800810c   0x0800810c   0x000000a8   Code   RO         4445    i.xQueueGenericReset  queue.o
    0x080081b4   0x080081b4   0x00000188   Code   RO         4446    i.xQueueGenericSend  queue.o
    0x0800833c   0x0800833c   0x000000e0   Code   RO         4447    i.xQueueGenericSendFromISR  queue.o
    0x0800841c   0x0800841c   0x00000088   Code   RO         4691    i.xTaskCheckForTimeOut  tasks.o
    0x080084a4   0x080084a4   0x00000056   Code   RO         4692    i.xTaskCreate       tasks.o
    0x080084fa   0x080084fa   0x00000002   PAD
    0x080084fc   0x080084fc   0x0000001c   Code   RO         4696    i.xTaskGetSchedulerState  tasks.o
    0x08008518   0x08008518   0x0000000c   Code   RO         4697    i.xTaskGetTickCount  tasks.o
    0x08008524   0x08008524   0x000000e8   Code   RO         4699    i.xTaskIncrementTick  tasks.o
    0x0800860c   0x0800860c   0x000000b4   Code   RO         4702    i.xTaskPriorityDisinherit  tasks.o
    0x080086c0   0x080086c0   0x00000098   Code   RO         4703    i.xTaskRemoveFromEventList  tasks.o
    0x08008758   0x08008758   0x00000098   Code   RO         4704    i.xTaskRemoveFromUnorderedEventList  tasks.o
    0x080087f0   0x080087f0   0x000000e4   Code   RO         4705    i.xTaskResumeAll    tasks.o
    0x080088d4   0x080088d4   0x00000074   Code   RO         5021    i.xTimerCreate      timers.o
    0x08008948   0x08008948   0x00000074   Code   RO         5022    i.xTimerCreateTimerTask  timers.o
    0x080089bc   0x080089bc   0x00000090   Code   RO         5023    i.xTimerGenericCommand  timers.o
    0x08008a4c   0x08008a4c   0x00000028   Code   RO         5029    i.xTimerPendFunctionCallFromISR  timers.o
    0x08008a74   0x08008a74   0x0000000a   Code   RO         5477    x$fpl$fpinit        fz_wm.l(fpinit.o)
    0x08008a7e   0x08008a7e   0x00000005   Data   RO           11    .constdata          main.o
    0x08008a83   0x08008a83   0x00000010   Data   RO         1120    .constdata          stm32f4xx_hal_rcc.o
    0x08008a93   0x08008a93   0x00000030   Data   RO         3038    .constdata          key.o
    0x08008ac3   0x08008ac3   0x000000f6   Data   RO         3604    .constdata          swd_flash.o
    0x08008bb9   0x08008bb9   0x000000ed   Data   RO         3808    .constdata          swd_host.o
    0x08008ca6   0x08008ca6   0x00000028   Data   RO         5312    .constdata          c_w.l(_printf_hex_int.o)
    0x08008cce   0x08008cce   0x00000002   PAD
    0x08008cd0   0x08008cd0   0x000000a9   Data   RO         3039    .conststring        key.o
    0x08008d79   0x08008d79   0x00000003   PAD
    0x08008d7c   0x08008d7c   0x0000011f   Data   RO         3605    .conststring        swd_flash.o
    0x08008e9b   0x08008e9b   0x00000001   PAD
    0x08008e9c   0x08008e9c   0x00000650   Data   RO         3809    .conststring        swd_host.o
    0x080094ec   0x080094ec   0x00000020   Data   RO         5543    Region$$Table       anon$$obj.o


    Execution Region RW_IRAM1 (Exec base: 0x20000000, Load base: 0x0800950c, Size: 0x00026740, Max: 0x00030000, ABSOLUTE, COMPRESSED[0x00000584])

    Exec Addr    Load Addr    Size         Type   Attr      Idx    E Section Name        Object

    0x20000000   COMPRESSED   0x0000001c   Data   RW           12    .data               main.o
    0x2000001c   COMPRESSED   0x00000014   Data   RW          426    .data               system_stm32f4xx.o
    0x20000030   COMPRESSED   0x00000004   Data   RW          590    .data               stm32f4xx_hal.o
    0x20000034   COMPRESSED   0x00000008   Data   RW         2865    .data               delay.o
    0x2000003c   COMPRESSED   0x00000004   Data   RW         2945    .data               usart.o
    0x20000040   COMPRESSED   0x00000004   Data   RW         2946    .data               usart.o
    0x20000044   COMPRESSED   0x00000001   Data   RW         3040    .data               key.o
    0x20000045   COMPRESSED   0x00000003   PAD
    0x20000048   COMPRESSED   0x00000020   Data   RW         3187    .data               thinktech_pack.o
    0x20000068   COMPRESSED   0x00000002   Data   RW         3271    .data               w25qxx.o
    0x2000006a   COMPRESSED   0x00000002   PAD
    0x2000006c   COMPRESSED   0x000003b0   Data   RW         3446    .data               flash_blob.o
    0x2000041c   COMPRESSED   0x0000003c   Data   RW         3447    .data               flash_blob.o
    0x20000458   COMPRESSED   0x00000260   Data   RW         3448    .data               flash_blob.o
    0x200006b8   COMPRESSED   0x0000003c   Data   RW         3449    .data               flash_blob.o
    0x200006f4   COMPRESSED   0x00000030   Data   RW         3606    .data               swd_flash.o
    0x20000724   COMPRESSED   0x00000018   Data   RW         3810    .data               swd_host.o
    0x2000073c   COMPRESSED   0x0000003c   Data   RW         4708    .data               tasks.o
    0x20000778   COMPRESSED   0x00000014   Data   RW         5031    .data               timers.o
    0x2000078c   COMPRESSED   0x0000000c   Data   RW         5153    .data               port.o
    0x20000798   COMPRESSED   0x00000018   Data   RW         5240    .data               heap_4.o
    0x200007b0        -       0x00000108   Zero   RW         2944    .bss                usart.o
    0x200008b8        -       0x00000190   Zero   RW         3037    .bss                key.o
    0x20000a48        -       0x00000058   Zero   RW         3134    .bss                spi.o
    0x20000aa0        -       0x00000ac4   Zero   RW         3186    .bss                thinktech_pack.o
    0x20001564        -       0x00001000   Zero   RW         3270    .bss                w25qxx.o
    0x20002564        -       0x00000030   Zero   RW         3375    .bss                dap.o
    0x20002594        -       0x00018000   Zero   RW         3603    .bss                swd_flash.o
    0x2001a594        -       0x00000040   Zero   RW         4458    .bss                queue.o
    0x2001a5d4        -       0x000002e4   Zero   RW         4707    .bss                tasks.o
    0x2001a8b8        -       0x00000028   Zero   RW         5030    .bss                timers.o
    0x2001a8e0        -       0x0000b800   Zero   RW         5239    .bss                heap_4.o
    0x200260e0        -       0x00000060   Zero   RW         5419    .bss                c_w.l(libspace.o)
    0x20026140        -       0x00000200   Zero   RW          558    HEAP                startup_stm32f429xx.o
    0x20026340        -       0x00000400   Zero   RW          557    STACK               startup_stm32f429xx.o


==============================================================================

Image component sizes


      Code (inc. data)   RO Data    RW Data    ZI Data      Debug   Object Name

        58          0          0          0          0       2461   crc16.o
       216         52          0          0         48       5981   dap.o
       182         12          0          8          0       2477   delay.o
       630        140          0          0          0      16191   event_groups.o
         0          0          0       1672          0       1410   flash_blob.o
       584        138          0         24      47104       4039   heap_4.o
       920        196        217          1        400       7894   key.o
        76          8          0          0          0        847   led.o
       136          0          0          0          0       3106   list.o
       526        174          5         28          0     401855   main.o
      1034        380          0         12          0      10665   port.o
      1832        236          0          0         64      13205   queue.o
       260         34          0          0         88       2810   spi.o
        64         26        428          0       1536        824   startup_stm32f429xx.o
       122         16          0          4          0       4080   stm32f4xx_hal.o
       218         14          0          0          0      30833   stm32f4xx_hal_cortex.o
       496         54          0          0          0       3279   stm32f4xx_hal_gpio.o
       136         14          0          0          0       1284   stm32f4xx_hal_pwr_ex.o
      1572         72         16          0          0       6295   stm32f4xx_hal_rcc.o
       972          0          0          0          0       3741   stm32f4xx_hal_spi.o
      1092          8          0          0          0       7303   stm32f4xx_hal_uart.o
        12          0          0          0          0       2621   stm32f4xx_it.o
      3328        118          0          0          0      32145   swd_dap.o
      3528        702        533         48      98304      21108   swd_flash.o
      7316       1624       1853         24          0      57264   swd_host.o
       132         10          0          0          0       1123   sys.o
        84         18          0         20          0       1013   system_stm32f4xx.o
      3780        842          0         60        740      36046   tasks.o
      1438         82          0         32       2756       9171   thinktech_pack.o
      1184        266          0         20         40      10610   timers.o
       358         54          0          8        264       5505   usart.o
       812         66          0          2       4096       7513   w25qxx.o

    ----------------------------------------------------------------------
     33138       5356       3088       1968     155440     714699   Object Totals
         0          0         32          0          0          0   (incl. Generated)
        40          0          4          5          0          0   (incl. Padding)

    ----------------------------------------------------------------------

      Code (inc. data)   RO Data    RW Data    ZI Data      Debug   Library Member Name

       100          0          0          0          0          0   __dclz77c.o
         8          0          0          0          0         68   __main.o
       284          0          0          0          0        156   __printf_wp.o
         0          0          0          0          0          0   __rtentry.o
        12          0          0          0          0          0   __rtentry2.o
         6          0          0          0          0          0   __rtentry4.o
        52          8          0          0          0          0   __scatter.o
        28          0          0          0          0          0   __scatter_zi.o
         6          0          0          0          0          0   _printf_c.o
        44          0          0          0          0        108   _printf_char.o
        48          6          0          0          0         96   _printf_char_common.o
        36          4          0          0          0         80   _printf_char_file.o
         6          0          0          0          0          0   _printf_d.o
       120         16          0          0          0         92   _printf_dec.o
        88          4         40          0          0         88   _printf_hex_int.o
       178          0          0          0          0         88   _printf_intcommon.o
         0          0          0          0          0          0   _printf_percent.o
         4          0          0          0          0          0   _printf_percent_end.o
         6          0          0          0          0          0   _printf_s.o
        82          0          0          0          0         80   _printf_str.o
         6          0          0          0          0          0   _printf_u.o
         6          0          0          0          0          0   _printf_x.o
        10          0          0          0          0         68   _sputc.o
        16          0          0          0          0         68   aeabi_memset.o
        18          0          0          0          0         80   exit.o
         8          0          0          0          0         68   ferror.o
         6          0          0          0          0        152   heapauxi.o
         2          0          0          0          0          0   libinit.o
         6          0          0          0          0          0   libinit2.o
         2          0          0          0          0          0   libshutdown.o
         2          0          0          0          0          0   libshutdown2.o
         8          4          0          0         96         68   libspace.o
        24          4          0          0          0         84   noretval__2printf.o
        40          6          0          0          0         84   noretval__2sprintf.o
        68          0          0          0          0         68   rt_memclr.o
        78          0          0          0          0         80   rt_memclr_w.o
       138          0          0          0          0         68   rt_memcpy_v6.o
       100          0          0          0          0         80   rt_memcpy_w.o
         2          0          0          0          0          0   rtexit.o
        10          0          0          0          0          0   rtexit2.o
        72          0          0          0          0         80   strcpy.o
        62          0          0          0          0         76   strlen.o
        74          0          0          0          0         80   sys_stackheap_outer.o
         2          0          0          0          0         68   use_no_semi.o
         2          0          0          0          0         68   use_no_semi_2.o
        10          0          0          0          0        116   fpinit.o

    ----------------------------------------------------------------------
      1888         52         42          0         96       2312   Library Totals
         8          0          2          0          0          0   (incl. Padding)

    ----------------------------------------------------------------------

      Code (inc. data)   RO Data    RW Data    ZI Data      Debug   Library Name

      1870         52         40          0         96       2196   c_w.l
        10          0          0          0          0        116   fz_wm.l

    ----------------------------------------------------------------------
      1888         52         42          0         96       2312   Library Totals

    ----------------------------------------------------------------------

==============================================================================


      Code (inc. data)   RO Data    RW Data    ZI Data      Debug   

     35026       5408       3130       1968     155536     688115   Grand Totals
     35026       5408       3130       1412     155536     688115   ELF Image Totals (compressed)
     35026       5408       3130       1412          0          0   ROM Totals

==============================================================================

    Total RO  Size (Code + RO Data)                38156 (  37.26kB)
    Total RW  Size (RW Data + ZI Data)            157504 ( 153.81kB)
    Total ROM Size (Code + RO Data + RW Data)      39568 (  38.64kB)

==============================================================================

